Component: ARM Compiler 5.06 update 6 (build 750) Tool: armlink [4d35ed]

==============================================================================

Section Cross References

    main.o(i.main) refers to app_console.o(i.APP_Console_Config) for APP_Console_Config
    main.o(i.main) refers to main.o(.bss) for app_console
    math_pid.o(i.Module_PIDUpdate) refers to f2d.o(x$fpl$f2d) for __aeabi_f2d
    math_pid.o(i.Module_PIDUpdate) refers to fabs.o(i.__hardfp_fabs) for __hardfp_fabs
    math_pid.o(i.Module_PIDUpdate) refers to dleqf.o(x$fpl$dleqf) for __aeabi_cdcmple
    math_pid.o(i.Module_PID_Config) refers to kservice.o(i.rt_kprintf) for rt_kprintf
    math_pid.o(i.Module_PID_Config) refers to math_pid.o(i.Module_PIDInit) for Module_PIDInit
    math_pid.o(i.Module_PID_Config) refers to math_pid.o(i.Module_PIDUpdate) for Module_PIDUpdate
    module_djic610620group.o(i.Module_DjiC610620GroupFeed) refers to ipc.o(i.rt_sem_take) for rt_sem_take
    module_djic610620group.o(i.Module_DjiC610620GroupFeed) refers to device.o(i.rt_device_read) for rt_device_read
    module_djic610620group.o(i.Module_DjiC610620GroupFeed) refers to module_djic610620group.o(.bss) for can3508Motor_sem
    module_djic610620group.o(i.Module_DjiC610620GroupHandle) refers to ipc.o(i.rt_sem_release) for rt_sem_release
    module_djic610620group.o(i.Module_DjiC610620GroupHandle) refers to module_djic610620group.o(.bss) for can3508Motor_sem
    module_djic610620group.o(i.Module_DjiC610620GroupInit) refers to device.o(i.rt_device_find) for rt_device_find
    module_djic610620group.o(i.Module_DjiC610620GroupInit) refers to kservice.o(i.rt_kprintf) for rt_kprintf
    module_djic610620group.o(i.Module_DjiC610620GroupInit) refers to ipc.o(i.rt_sem_init) for rt_sem_init
    module_djic610620group.o(i.Module_DjiC610620GroupInit) refers to device.o(i.rt_device_open) for rt_device_open
    module_djic610620group.o(i.Module_DjiC610620GroupInit) refers to kservice.o(i.rt_assert_handler) for rt_assert_handler
==============================================================================

Removing Unused input sections from the image.

    Removing main.o(.rev16_text), (4 bytes).
    Removing main.o(.revsh_text), (4 bytes).
    Removing main.o(.rrx_text), (6 bytes).
    Removing math_pid.o(.rev16_text), (4 bytes).
    Removing math_pid.o(.revsh_text), (4 bytes).
    Removing math_pid.o(.rrx_text), (6 bytes).
    Removing module_djic610620group.o(.rev16_text), (4 bytes).
    Removing module_djic610620group.o(.revsh_text), (4 bytes).
    Removing module_djic610620group.o(.rrx_text), (6 bytes).
    Removing module_led.o(.rev16_text), (4 bytes).
    Removing module_led.o(.revsh_text), (4 bytes).
    Removing module_led.o(.rrx_text), (6 bytes).
    Removing module_oled.o(.rev16_text), (4 bytes).
    Removing module_oled.o(.revsh_text), (4 bytes).
    Removing module_oled.o(.rrx_text), (6 bytes).
    Removing module_oled.o(i.IICStart), (38 bytes).
    Removing module_oled.o(i.IICStop), (30 bytes).
    Removing module_oled.o(i.IICWaitAck), (22 bytes).
==============================================================================

Image Symbol Table

    Local Symbols

    Symbol Name                              Value     Ov Type        Size  Object(Section)

    ../clib/angel/boardlib.s                 0x00000000   Number         0  boardinit3.o ABSOLUTE
    ../clib/angel/boardlib.s                 0x00000000   Number         0  boardinit2.o ABSOLUTE
    ../clib/angel/boardlib.s                 0x00000000   Number         0  boardinit1.o ABSOLUTE
    ../clib/angel/boardlib.s                 0x00000000   Number         0  boardshut.o ABSOLUTE
    ../clib/angel/dczerorl2.s                0x00000000   Number         0  __dczerorl2.o ABSOLUTE
    ../clib/angel/handlers.s                 0x00000000   Number         0  __scatter_zi.o ABSOLUTE
    ../clib/angel/kernel.s                   0x00000000   Number         0  __rtentry2.o ABSOLUTE
    ../clib/angel/kernel.s                   0x00000000   Number         0  rtexit2.o ABSOLUTE
    ../clib/angel/kernel.s                   0x00000000   Number         0  __rtentry.o ABSOLUTE
    ../clib/angel/kernel.s                   0x00000000   Number         0  rtexit.o ABSOLUTE
    ../clib/angel/kernel.s                   0x00000000   Number         0  __rtentry4.o ABSOLUTE
    ../clib/angel/rt.s                       0x00000000   Number         0  rt_errno_addr.o ABSOLUTE
    ../clib/angel/rt.s                       0x00000000   Number         0  aeabi_ldiv0_sigfpe.o ABSOLUTE
    ../clib/angel/rt.s                       0x00000000   Number         0  aeabi_ldiv0.o ABSOLUTE
    ../clib/angel/rt.s                       0x00000000   Number         0  rt_locale_intlibspace.o ABSOLUTE
    ../clib/angel/rt.s                       0x00000000   Number         0  rt_locale.o ABSOLUTE
    ../clib/angel/rt.s                       0x00000000   Number         0  rt_div0.o ABSOLUTE
    ../clib/angel/rt.s                       0x00000000   Number         0  rt_ctype_table.o ABSOLUTE
    ../clib/angel/rt.s                       0x00000000   Number         0  rt_raise.o ABSOLUTE
    ../clib/angel/rt.s                       0x00000000   Number         0  rt_errno_addr_intlibspace.o ABSOLUTE
    ../clib/angel/scatter.s                  0x00000000   Number         0  __scatter.o ABSOLUTE
    ../clib/angel/startup.s                  0x00000000   Number         0  __main.o ABSOLUTE
    ../clib/angel/sys.s                      0x00000000   Number         0  use_no_semi.o ABSOLUTE
    ../clib/angel/sys.s                      0x00000000   Number         0  libspace.o ABSOLUTE
    ../clib/angel/sys.s                      0x00000000   Number         0  indicate_semi.o ABSOLUTE
    ../clib/angel/sys.s                      0x00000000   Number         0  sys_stackheap_outer.o ABSOLUTE
    ../clib/angel/sysapp.c                   0x00000000   Number         0  sys_wrch.o ABSOLUTE
    ../clib/angel/sysapp.c                   0x00000000   Number         0  sys_exit.o ABSOLUTE
    ../clib/angel/sysapp.c                   0x00000000   Number         0  sys_command.o ABSOLUTE
    ../clib/armsys.c                         0x00000000   Number         0  no_argv.o ABSOLUTE
    ../clib/armsys.c                         0x00000000   Number         0  argv_veneer.o ABSOLUTE
    ../clib/armsys.c                         0x00000000   Number         0  _get_argv_nomalloc.o ABSOLUTE
    ../clib/armsys.c                         0x00000000   Number         0  argv_veneer.o ABSOLUTE
    ../clib/heapalloc.c                      0x00000000   Number         0  hrguard.o ABSOLUTE
    ../clib/heapaux.c                        0x00000000   Number         0  heapauxi.o ABSOLUTE
    ../clib/libinit.s                        0x00000000   Number         0  libinit.o ABSOLUTE
    ../clib/libinit.s                        0x00000000   Number         0  libinit2.o ABSOLUTE
    ../clib/libinit.s                        0x00000000   Number         0  libshutdown.o ABSOLUTE
    ../clib/libinit.s                        0x00000000   Number         0  libshutdown2.o ABSOLUTE
    ../clib/locale.s                         0x00000000   Number         0  lc_ctype_c.o ABSOLUTE
    ../clib/longlong.s                       0x00000000   Number         0  lludivv7m.o ABSOLUTE
    ../clib/memcpset.s                       0x00000000   Number         0  rt_memclr_w.o ABSOLUTE
    ../clib/memcpset.s                       0x00000000   Number         0  strncpy.o ABSOLUTE
    ../clib/memcpset.s                       0x00000000   Number         0  rt_memclr.o ABSOLUTE
    ../clib/memcpset.s                       0x00000000   Number         0  aeabi_memset.o ABSOLUTE
    ../clib/memcpset.s                       0x00000000   Number         0  rt_memcpy_w.o ABSOLUTE
    ../clib/memcpset.s                       0x00000000   Number         0  strcmpv7m.o ABSOLUTE
    ../clib/memcpset.s                       0x00000000   Number         0  rt_memcpy_v6.o ABSOLUTE
    ../clib/printf.c                         0x00000000   Number         0  __printf_flags_ss.o ABSOLUTE
    ../clib/printf.c                         0x00000000   Number         0  __printf_wp.o ABSOLUTE
    ../clib/printf.c                         0x00000000   Number         0  __printf_ss_wp.o ABSOLUTE
    ../clib/printf.c                         0x00000000   Number         0  _printf_intcommon.o ABSOLUTE
    ../clib/printf.c                         0x00000000   Number         0  _printf_char_common.o ABSOLUTE
    ../clib/printf.c                         0x00000000   Number         0  __printf_flags_wp.o ABSOLUTE
    ../clib/printf.c                         0x00000000   Number         0  _sputc.o ABSOLUTE
    ../clib/printf.c                         0x00000000   Number         0  _printf_dec.o ABSOLUTE
    ../clib/printf.c                         0x00000000   Number         0  __2sprintf.o ABSOLUTE
    ../clib/printf.c                         0x00000000   Number         0  noretval__2sprintf.o ABSOLUTE
    ../clib/printf.c                         0x00000000   Number         0  __printf.o ABSOLUTE
    ../clib/printf.c                         0x00000000   Number         0  __printf_flags_ss_wp.o ABSOLUTE
    ../clib/printf.c                         0x00000000   Number         0  __printf_nopercent.o ABSOLUTE
    ../clib/printf.c                         0x00000000   Number         0  __printf_flags.o ABSOLUTE
    ../clib/printf.c                         0x00000000   Number         0  __printf_ss.o ABSOLUTE
    ../clib/printf_percent.s                 0x00000000   Number         0  _printf_percent.o ABSOLUTE
    ../clib/printf_percent.s                 0x00000000   Number         0  _printf_d.o ABSOLUTE
    ../clib/printf_percent.s                 0x00000000   Number         0  _printf_percent_end.o ABSOLUTE
    ../clib/scanf.c                          0x00000000   Number         0  _chval.o ABSOLUTE
    ../clib/scanf.c                          0x00000000   Number         0  strtol.o ABSOLUTE
    ../clib/scanf.c                          0x00000000   Number         0  atoi.o ABSOLUTE
    ../clib/scanf.c                          0x00000000   Number         0  _strtoul.o ABSOLUTE
    ../clib/signal.c                         0x00000000   Number         0  __raise.o ABSOLUTE
    ../clib/signal.c                         0x00000000   Number         0  defsig_fpe_formal.o ABSOLUTE
    ../clib/signal.c                         0x00000000   Number         0  defsig_fpe_outer.o ABSOLUTE
    ../clib/signal.c                         0x00000000   Number         0  defsig_rtmem_outer.o ABSOLUTE
    ../clib/signal.c                         0x00000000   Number         0  defsig_rtmem_formal.o ABSOLUTE
    ../clib/signal.c                         0x00000000   Number         0  defsig_other.o ABSOLUTE
    ../clib/signal.c                         0x00000000   Number         0  defsig_stak_inner.o ABSOLUTE
    ../clib/signal.c                         0x00000000   Number         0  defsig_pvfn_inner.o ABSOLUTE
    ../clib/signal.c                         0x00000000   Number         0  defsig_abrt_inner.o ABSOLUTE
    ../clib/signal.c                         0x00000000   Number         0  defsig_rtred_inner.o ABSOLUTE
    ../clib/signal.c                         0x00000000   Number         0  defsig_cppl_inner.o ABSOLUTE
    ../clib/signal.c                         0x00000000   Number         0  defsig_segv_inner.o ABSOLUTE
    ../clib/signal.c                         0x00000000   Number         0  defsig_general.o ABSOLUTE
    ../clib/signal.c                         0x00000000   Number         0  defsig_exit.o ABSOLUTE
    ../clib/signal.c                         0x00000000   Number         0  defsig_rtmem_inner.o ABSOLUTE
    ../clib/signal.c                         0x00000000   Number         0  defsig_fpe_inner.o ABSOLUTE
    ../clib/signal.s                         0x00000000   Number         0  defsig.o ABSOLUTE
    ../clib/stdlib.c                         0x00000000   Number         0  exit.o ABSOLUTE
    ../clib/string.c                         0x00000000   Number         0  memcmp.o ABSOLUTE
    ../clib/string.c                         0x00000000   Number         0  strlen.o ABSOLUTE
    ../clib/string.c                         0x00000000   Number         0  strncmp.o ABSOLUTE
    ../clib/string.c                         0x00000000   Number         0  strcpy.o ABSOLUTE
    ../clib/string.c                         0x00000000   Number         0  strcat.o ABSOLUTE
    ../fplib/dcmpi.s                         0x00000000   Number         0  dcmpi.o ABSOLUTE
    ../fplib/dleqf.s                         0x00000000   Number         0  dleqf.o ABSOLUTE
    ../fplib/dnaninf.s                       0x00000000   Number         0  dnaninf.o ABSOLUTE
    ../fplib/dretinf.s                       0x00000000   Number         0  dretinf.o ABSOLUTE
    ../fplib/f2d.s                           0x00000000   Number         0  f2d.o ABSOLUTE
    ../fplib/fnaninf.s                       0x00000000   Number         0  fnaninf.o ABSOLUTE
    ../fplib/fpinit.s                        0x00000000   Number         0  fpinit.o ABSOLUTE
    ../fplib/usenofp.s                       0x00000000   Number         0  usenofp.o ABSOLUTE
    ../mathlib/fabs.c                        0x00000000   Number         0  fabs.o ABSOLUTE
    ..\..\..\components\drivers\can\can.c    0x00000000   Number         0  can.o ABSOLUTE
    ..\..\..\components\drivers\misc\pin.c   0x00000000   Number         0  pin.o ABSOLUTE
    ..\..\..\components\drivers\misc\pulse_encoder.c 0x00000000   Number         0  pulse_encoder.o ABSOLUTE
    ..\..\..\components\drivers\misc\rt_drv_pwm.c 0x00000000   Number         0  rt_drv_pwm.o ABSOLUTE
    ..\..\..\components\drivers\serial\serial.c 0x00000000   Number         0  serial.o ABSOLUTE
    ..\..\..\components\drivers\spi\spi_core.c 0x00000000   Number         0  spi_core.o ABSOLUTE
    ..\..\..\components\drivers\spi\spi_dev.c 0x00000000   Number         0  spi_dev.o ABSOLUTE
    ..\..\..\components\drivers\src\completion.c 0x00000000   Number         0  completion.o ABSOLUTE
    ..\..\..\components\drivers\src\dataqueue.c 0x00000000   Number         0  dataqueue.o ABSOLUTE
    ..\..\..\components\drivers\src\pipe.c   0x00000000   Number         0  pipe.o ABSOLUTE
    ..\..\..\components\drivers\src\ringblk_buf.c 0x00000000   Number         0  ringblk_buf.o ABSOLUTE
    ..\..\..\components\drivers\src\ringbuffer.c 0x00000000   Number         0  ringbuffer.o ABSOLUTE
    ..\..\..\components\drivers\src\waitqueue.c 0x00000000   Number         0  waitqueue.o ABSOLUTE
    ..\..\..\components\drivers\src\workqueue.c 0x00000000   Number         0  workqueue.o ABSOLUTE
    ..\..\..\components\finsh\cmd.c          0x00000000   Number         0  cmd.o ABSOLUTE
    ..\..\..\components\finsh\msh.c          0x00000000   Number         0  msh.o ABSOLUTE
    ..\..\..\components\finsh\shell.c        0x00000000   Number         0  shell.o ABSOLUTE
    ..\..\..\components\libc\compilers\common\time.c 0x00000000   Number         0  time.o ABSOLUTE
    ..\..\..\libcpu\arm\common\backtrace.c   0x00000000   Number         0  backtrace.o ABSOLUTE
    ..\..\..\libcpu\arm\common\div0.c        0x00000000   Number         0  div0.o ABSOLUTE
    ..\..\..\libcpu\arm\common\showmem.c     0x00000000   Number         0  showmem.o ABSOLUTE
    ..\..\..\libcpu\arm\cortex-m4\context_rvds.S 0x00000000   Number         0  context_rvds.o ABSOLUTE
    ..\..\..\libcpu\arm\cortex-m4\cpuport.c  0x00000000   Number         0  cpuport.o ABSOLUTE
    ..\..\..\src\clock.c                     0x00000000   Number         0  clock.o ABSOLUTE
    ..\..\..\src\components.c                0x00000000   Number         0  components.o ABSOLUTE
    ..\..\..\src\device.c                    0x00000000   Number         0  device.o ABSOLUTE
    ..\..\..\src\idle.c                      0x00000000   Number         0  idle.o ABSOLUTE
    ..\..\..\src\ipc.c                       0x00000000   Number         0  ipc.o ABSOLUTE
    ..\..\..\src\irq.c                       0x00000000   Number         0  irq.o ABSOLUTE
    ..\..\..\src\kservice.c                  0x00000000   Number         0  kservice.o ABSOLUTE
    ..\..\..\src\mem.c                       0x00000000   Number         0  mem.o ABSOLUTE
    ..\..\..\src\mempool.c                   0x00000000   Number         0  mempool.o ABSOLUTE
    ..\..\..\src\object.c                    0x00000000   Number         0  object.o ABSOLUTE
    ..\..\..\src\scheduler.c                 0x00000000   Number         0  scheduler.o ABSOLUTE
    ..\..\..\src\signal.c                    0x00000000   Number         0  signal.o ABSOLUTE
    ..\..\..\src\thread.c                    0x00000000   Number         0  thread.o ABSOLUTE
    ..\..\..\src\timer.c                     0x00000000   Number         0  timer.o ABSOLUTE
    ..\\..\\..\\libcpu\\arm\\cortex-m4\\cpuport.c 0x00000000   Number         0  cpuport.o ABSOLUTE
    ..\\libraries\\HAL_Drivers\\drv_can.c    0x00000000   Number         0  drv_can.o ABSOLUTE
    ..\\libraries\\HAL_Drivers\\drv_common.c 0x00000000   Number         0  drv_common.o ABSOLUTE
    ..\\libraries\\HAL_Drivers\\drv_gpio.c   0x00000000   Number         0  drv_gpio.o ABSOLUTE
    ..\\libraries\\HAL_Drivers\\drv_pulse_encoder.c 0x00000000   Number         0  drv_pulse_encoder.o ABSOLUTE
    ..\\libraries\\HAL_Drivers\\drv_pwm.c    0x00000000   Number         0  drv_pwm.o ABSOLUTE
    ..\\libraries\\HAL_Drivers\\drv_spi.c    0x00000000   Number         0  drv_spi.o ABSOLUTE
    ..\\libraries\\HAL_Drivers\\drv_usart.c  0x00000000   Number         0  drv_usart.o ABSOLUTE
    ..\\libraries\\STM32F4xx_HAL\\CMSIS\\Device\\ST\\STM32F4xx\\Source\\Templates\\system_stm32f4xx.c 0x00000000   Number         0  system_stm32f4xx.o ABSOLUTE
    ..\\libraries\\STM32F4xx_HAL\\STM32F4xx_HAL_Driver\\Src\\stm32f4xx_hal.c 0x00000000   Number         0  stm32f4xx_hal.o ABSOLUTE
    ..\\libraries\\STM32F4xx_HAL\\STM32F4xx_HAL_Driver\\Src\\stm32f4xx_hal_can.c 0x00000000   Number         0  stm32f4xx_hal_can.o ABSOLUTE
    ..\\libraries\\STM32F4xx_HAL\\STM32F4xx_HAL_Driver\\Src\\stm32f4xx_hal_cec.c 0x00000000   Number         0  stm32f4xx_hal_cec.o ABSOLUTE
    ..\\libraries\\STM32F4xx_HAL\\STM32F4xx_HAL_Driver\\Src\\stm32f4xx_hal_cortex.c 0x00000000   Number         0  stm32f4xx_hal_cortex.o ABSOLUTE
    ..\\libraries\\STM32F4xx_HAL\\STM32F4xx_HAL_Driver\\Src\\stm32f4xx_hal_crc.c 0x00000000   Number         0  stm32f4xx_hal_crc.o ABSOLUTE
    ..\\libraries\\STM32F4xx_HAL\\STM32F4xx_HAL_Driver\\Src\\stm32f4xx_hal_cryp.c 0x00000000   Number         0  stm32f4xx_hal_cryp.o ABSOLUTE
    ..\\libraries\\STM32F4xx_HAL\\STM32F4xx_HAL_Driver\\Src\\stm32f4xx_hal_cryp_ex.c 0x00000000   Number         0  stm32f4xx_hal_cryp_ex.o ABSOLUTE
    ..\\libraries\\STM32F4xx_HAL\\STM32F4xx_HAL_Driver\\Src\\stm32f4xx_hal_dma.c 0x00000000   Number         0  stm32f4xx_hal_dma.o ABSOLUTE
    ..\\libraries\\STM32F4xx_HAL\\STM32F4xx_HAL_Driver\\Src\\stm32f4xx_hal_dma_ex.c 0x00000000   Number         0  stm32f4xx_hal_dma_ex.o ABSOLUTE
    ..\\libraries\\STM32F4xx_HAL\\STM32F4xx_HAL_Driver\\Src\\stm32f4xx_hal_gpio.c 0x00000000   Number         0  stm32f4xx_hal_gpio.o ABSOLUTE
    ..\\libraries\\STM32F4xx_HAL\\STM32F4xx_HAL_Driver\\Src\\stm32f4xx_hal_lptim.c 0x00000000   Number         0  stm32f4xx_hal_lptim.o ABSOLUTE
    ..\\libraries\\STM32F4xx_HAL\\STM32F4xx_HAL_Driver\\Src\\stm32f4xx_hal_pwr.c 0x00000000   Number         0  stm32f4xx_hal_pwr.o ABSOLUTE
    ..\\libraries\\STM32F4xx_HAL\\STM32F4xx_HAL_Driver\\Src\\stm32f4xx_hal_pwr_ex.c 0x00000000   Number         0  stm32f4xx_hal_pwr_ex.o ABSOLUTE
    ..\\libraries\\STM32F4xx_HAL\\STM32F4xx_HAL_Driver\\Src\\stm32f4xx_hal_qspi.c 0x00000000   Number         0  stm32f4xx_hal_qspi.o ABSOLUTE
    ..\\libraries\\STM32F4xx_HAL\\STM32F4xx_HAL_Driver\\Src\\stm32f4xx_hal_rcc.c 0x00000000   Number         0  stm32f4xx_hal_rcc.o ABSOLUTE
    ..\\libraries\\STM32F4xx_HAL\\STM32F4xx_HAL_Driver\\Src\\stm32f4xx_hal_rcc_ex.c 0x00000000   Number         0  stm32f4xx_hal_rcc_ex.o ABSOLUTE
    ..\\libraries\\STM32F4xx_HAL\\STM32F4xx_HAL_Driver\\Src\\stm32f4xx_hal_rng.c 0x00000000   Number         0  stm32f4xx_hal_rng.o ABSOLUTE
    ..\\libraries\\STM32F4xx_HAL\\STM32F4xx_HAL_Driver\\Src\\stm32f4xx_hal_spi.c 0x00000000   Number         0  stm32f4xx_hal_spi.o ABSOLUTE
    ..\\libraries\\STM32F4xx_HAL\\STM32F4xx_HAL_Driver\\Src\\stm32f4xx_hal_tim.c 0x00000000   Number         0  stm32f4xx_hal_tim.o ABSOLUTE
    ..\\libraries\\STM32F4xx_HAL\\STM32F4xx_HAL_Driver\\Src\\stm32f4xx_hal_tim_ex.c 0x00000000   Number         0  stm32f4xx_hal_tim_ex.o ABSOLUTE
    ..\\libraries\\STM32F4xx_HAL\\STM32F4xx_HAL_Driver\\Src\\stm32f4xx_hal_uart.c 0x00000000   Number         0  stm32f4xx_hal_uart.o ABSOLUTE
    ..\\libraries\\STM32F4xx_HAL\\STM32F4xx_HAL_Driver\\Src\\stm32f4xx_hal_usart.c 0x00000000   Number         0  stm32f4xx_hal_usart.o ABSOLUTE
    ..\libraries\HAL_Drivers\drv_can.c       0x00000000   Number         0  drv_can.o ABSOLUTE
    ..\libraries\HAL_Drivers\drv_common.c    0x00000000   Number         0  drv_common.o ABSOLUTE
    ..\libraries\HAL_Drivers\drv_gpio.c      0x00000000   Number         0  drv_gpio.o ABSOLUTE
    ..\libraries\HAL_Drivers\drv_pulse_encoder.c 0x00000000   Number         0  drv_pulse_encoder.o ABSOLUTE
    ..\libraries\HAL_Drivers\drv_pwm.c       0x00000000   Number         0  drv_pwm.o ABSOLUTE
    ..\libraries\HAL_Drivers\drv_spi.c       0x00000000   Number         0  drv_spi.o ABSOLUTE
    ..\libraries\HAL_Drivers\drv_usart.c     0x00000000   Number         0  drv_usart.o ABSOLUTE
    ..\libraries\STM32F4xx_HAL\CMSIS\Device\ST\STM32F4xx\Source\Templates\arm\startup_stm32f407xx.s 0x00000000   Number         0  startup_stm32f407xx.o ABSOLUTE
    ..\libraries\STM32F4xx_HAL\CMSIS\Device\ST\STM32F4xx\Source\Templates\system_stm32f4xx.c 0x00000000   Number         0  system_stm32f4xx.o ABSOLUTE
    ..\libraries\STM32F4xx_HAL\STM32F4xx_HAL_Driver\Src\stm32f4xx_hal.c 0x00000000   Number         0  stm32f4xx_hal.o ABSOLUTE
    ..\libraries\STM32F4xx_HAL\STM32F4xx_HAL_Driver\Src\stm32f4xx_hal_can.c 0x00000000   Number         0  stm32f4xx_hal_can.o ABSOLUTE
    ..\libraries\STM32F4xx_HAL\STM32F4xx_HAL_Driver\Src\stm32f4xx_hal_cec.c 0x00000000   Number         0  stm32f4xx_hal_cec.o ABSOLUTE
    ..\libraries\STM32F4xx_HAL\STM32F4xx_HAL_Driver\Src\stm32f4xx_hal_cortex.c 0x00000000   Number         0  stm32f4xx_hal_cortex.o ABSOLUTE
    ..\libraries\STM32F4xx_HAL\STM32F4xx_HAL_Driver\Src\stm32f4xx_hal_crc.c 0x00000000   Number         0  stm32f4xx_hal_crc.o ABSOLUTE
    ..\libraries\STM32F4xx_HAL\STM32F4xx_HAL_Driver\Src\stm32f4xx_hal_cryp.c 0x00000000   Number         0  stm32f4xx_hal_cryp.o ABSOLUTE
    ..\libraries\STM32F4xx_HAL\STM32F4xx_HAL_Driver\Src\stm32f4xx_hal_cryp_ex.c 0x00000000   Number         0  stm32f4xx_hal_cryp_ex.o ABSOLUTE
    ..\libraries\STM32F4xx_HAL\STM32F4xx_HAL_Driver\Src\stm32f4xx_hal_dma.c 0x00000000   Number         0  stm32f4xx_hal_dma.o ABSOLUTE
    ..\libraries\STM32F4xx_HAL\STM32F4xx_HAL_Driver\Src\stm32f4xx_hal_dma_ex.c 0x00000000   Number         0  stm32f4xx_hal_dma_ex.o ABSOLUTE
    ..\libraries\STM32F4xx_HAL\STM32F4xx_HAL_Driver\Src\stm32f4xx_hal_gpio.c 0x00000000   Number         0  stm32f4xx_hal_gpio.o ABSOLUTE
    ..\libraries\STM32F4xx_HAL\STM32F4xx_HAL_Driver\Src\stm32f4xx_hal_lptim.c 0x00000000   Number         0  stm32f4xx_hal_lptim.o ABSOLUTE
    ..\libraries\STM32F4xx_HAL\STM32F4xx_HAL_Driver\Src\stm32f4xx_hal_pwr.c 0x00000000   Number         0  stm32f4xx_hal_pwr.o ABSOLUTE
    ..\libraries\STM32F4xx_HAL\STM32F4xx_HAL_Driver\Src\stm32f4xx_hal_pwr_ex.c 0x00000000   Number         0  stm32f4xx_hal_pwr_ex.o ABSOLUTE
    ..\libraries\STM32F4xx_HAL\STM32F4xx_HAL_Driver\Src\stm32f4xx_hal_qspi.c 0x00000000   Number         0  stm32f4xx_hal_qspi.o ABSOLUTE
    ..\libraries\STM32F4xx_HAL\STM32F4xx_HAL_Driver\Src\stm32f4xx_hal_rcc.c 0x00000000   Number         0  stm32f4xx_hal_rcc.o ABSOLUTE
    ..\libraries\STM32F4xx_HAL\STM32F4xx_HAL_Driver\Src\stm32f4xx_hal_rcc_ex.c 0x00000000   Number         0  stm32f4xx_hal_rcc_ex.o ABSOLUTE
    ..\libraries\STM32F4xx_HAL\STM32F4xx_HAL_Driver\Src\stm32f4xx_hal_rng.c 0x00000000   Number         0  stm32f4xx_hal_rng.o ABSOLUTE
    ..\libraries\STM32F4xx_HAL\STM32F4xx_HAL_Driver\Src\stm32f4xx_hal_spi.c 0x00000000   Number         0  stm32f4xx_hal_spi.o ABSOLUTE
    ..\libraries\STM32F4xx_HAL\STM32F4xx_HAL_Driver\Src\stm32f4xx_hal_tim.c 0x00000000   Number         0  stm32f4xx_hal_tim.o ABSOLUTE
    ..\libraries\STM32F4xx_HAL\STM32F4xx_HAL_Driver\Src\stm32f4xx_hal_tim_ex.c 0x00000000   Number         0  stm32f4xx_hal_tim_ex.o ABSOLUTE
    ..\libraries\STM32F4xx_HAL\STM32F4xx_HAL_Driver\Src\stm32f4xx_hal_uart.c 0x00000000   Number         0  stm32f4xx_hal_uart.o ABSOLUTE
    ..\libraries\STM32F4xx_HAL\STM32F4xx_HAL_Driver\Src\stm32f4xx_hal_usart.c 0x00000000   Number         0  stm32f4xx_hal_usart.o ABSOLUTE
    F:\HEROProject_WX\Gitee\RttOs_ModuleLib\Math\Math_PID.c 0x00000000   Number         0  math_pid.o ABSOLUTE
    F:\HEROProject_WX\Gitee\RttOs_ModuleLib\Module\Module_DjiC610620Group.c 0x00000000   Number         0  module_djic610620group.o ABSOLUTE
    F:\HEROProject_WX\Gitee\RttOs_ModuleLib\Module\Module_LED.c 0x00000000   Number         0  module_led.o ABSOLUTE
    F:\HEROProject_WX\Gitee\RttOs_ModuleLib\Module\Module_OLED.c 0x00000000   Number         0  module_oled.o ABSOLUTE
    F:\HEROProject_WX\Gitee\RttOs_ModuleLib\Module\Module_UartCom.c 0x00000000   Number         0  module_uartcom.o ABSOLUTE
    F:\HEROProject_WX\Gitee\RttOs_ModuleLib\Module\Module_UartHMI.c 0x00000000   Number         0  module_uarthmi.o ABSOLUTE
    F:\\HEROProject_WX\\Gitee\\RttOs_ModuleLib\\Math\\Math_PID.c 0x00000000   Number         0  math_pid.o ABSOLUTE
    F:\\HEROProject_WX\\Gitee\\RttOs_ModuleLib\\Module\\Module_DjiC610620Group.c 0x00000000   Number         0  module_djic610620group.o ABSOLUTE
    F:\\HEROProject_WX\\Gitee\\RttOs_ModuleLib\\Module\\Module_LED.c 0x00000000   Number         0  module_led.o ABSOLUTE
    F:\\HEROProject_WX\\Gitee\\RttOs_ModuleLib\\Module\\Module_OLED.c 0x00000000   Number         0  module_oled.o ABSOLUTE
    F:\\HEROProject_WX\\Gitee\\RttOs_ModuleLib\\Module\\Module_UartCom.c 0x00000000   Number         0  module_uartcom.o ABSOLUTE
    F:\\HEROProject_WX\\Gitee\\RttOs_ModuleLib\\Module\\Module_UartHMI.c 0x00000000   Number         0  module_uarthmi.o ABSOLUTE
    applications\App_Console.c               0x00000000   Number         0  app_console.o ABSOLUTE
    applications\\App_Console.c              0x00000000   Number         0  app_console.o ABSOLUTE
    applications\\main.c                     0x00000000   Number         0  main.o ABSOLUTE
    applications\main.c                      0x00000000   Number         0  main.o ABSOLUTE
    board\CubeMX_Config\Src\stm32f4xx_hal_msp.c 0x00000000   Number         0  stm32f4xx_hal_msp.o ABSOLUTE
    board\\CubeMX_Config\\Src\\stm32f4xx_hal_msp.c 0x00000000   Number         0  stm32f4xx_hal_msp.o ABSOLUTE
    board\\board.c                           0x00000000   Number         0  board.o ABSOLUTE
    board\board.c                            0x00000000   Number         0  board.o ABSOLUTE
    dc.s                                     0x00000000   Number         0  dc.o ABSOLUTE
    RESET                                    0x08000000   Section      392  startup_stm32f407xx.o(RESET)
    !!!main                                  0x08000188   Section        8  __main.o(!!!main)
    !!!scatter                               0x08000190   Section       52  __scatter.o(!!!scatter)
    !!dczerorl2                              0x080001c4   Section       90  __dczerorl2.o(!!dczerorl2)
    !!handler_zi                             0x08000220   Section       28  __scatter_zi.o(!!handler_zi)
    .ARM.Collect$$_printf_percent$$00000000  0x0800023c   Section        0  _printf_percent.o(.ARM.Collect$$_printf_percent$$00000000)
    .ARM.Collect$$_printf_percent$$00000009  0x0800023c   Section        6  _printf_d.o(.ARM.Collect$$_printf_percent$$00000009)
    .ARM.Collect$$_printf_percent$$00000017  0x08000242   Section        4  _printf_percent_end.o(.ARM.Collect$$_printf_percent$$00000017)
    .ARM.Collect$$libinit$$00000000          0x08000246   Section        2  libinit.o(.ARM.Collect$$libinit$$00000000)
    .ARM.Collect$$libinit$$00000001          0x08000248   Section        4  libinit2.o(.ARM.Collect$$libinit$$00000001)
    .ARM.Collect$$libinit$$00000004          0x0800024c   Section        0  libinit2.o(.ARM.Collect$$libinit$$00000004)
    .ARM.Collect$$libinit$$0000000A          0x0800024c   Section        0  libinit2.o(.ARM.Collect$$libinit$$0000000A)
    .ARM.Collect$$libinit$$0000000C          0x0800024c   Section        0  libinit2.o(.ARM.Collect$$libinit$$0000000C)
    .ARM.Collect$$libinit$$0000000E          0x0800024c   Section        0  libinit2.o(.ARM.Collect$$libinit$$0000000E)
    .ARM.Collect$$libinit$$0000000F          0x0800024c   Section        6  libinit2.o(.ARM.Collect$$libinit$$0000000F)
    .ARM.Collect$$libinit$$00000011          0x08000252   Section        0  libinit2.o(.ARM.Collect$$libinit$$00000011)
    .ARM.Collect$$libinit$$00000012          0x08000252   Section       12  libinit2.o(.ARM.Collect$$libinit$$00000012)
    .ARM.Collect$$libinit$$00000013          0x0800025e   Section        0  libinit2.o(.ARM.Collect$$libinit$$00000013)
    .ARM.Collect$$libinit$$00000015          0x0800025e   Section        0  libinit2.o(.ARM.Collect$$libinit$$00000015)
    .ARM.Collect$$libinit$$00000017          0x0800025e   Section        0  libinit2.o(.ARM.Collect$$libinit$$00000017)
    .ARM.Collect$$libinit$$00000019          0x0800025e   Section        0  libinit2.o(.ARM.Collect$$libinit$$00000019)
    .ARM.Collect$$libinit$$0000001B          0x0800025e   Section        0  libinit2.o(.ARM.Collect$$libinit$$0000001B)
    .ARM.Collect$$libinit$$0000001D          0x0800025e   Section        0  libinit2.o(.ARM.Collect$$libinit$$0000001D)
    .ARM.Collect$$libinit$$0000001F          0x0800025e   Section        0  libinit2.o(.ARM.Collect$$libinit$$0000001F)
    .ARM.Collect$$libinit$$00000021          0x0800025e   Section        0  libinit2.o(.ARM.Collect$$libinit$$00000021)
    .ARM.Collect$$libinit$$00000023          0x0800025e   Section        0  libinit2.o(.ARM.Collect$$libinit$$00000023)
    .ARM.Collect$$libinit$$00000025          0x0800025e   Section        0  libinit2.o(.ARM.Collect$$libinit$$00000025)
    .ARM.Collect$$libinit$$0000002C          0x0800025e   Section        0  libinit2.o(.ARM.Collect$$libinit$$0000002C)
    .ARM.Collect$$libinit$$0000002E          0x0800025e   Section        0  libinit2.o(.ARM.Collect$$libinit$$0000002E)
    .ARM.Collect$$libinit$$00000030          0x0800025e   Section        0  libinit2.o(.ARM.Collect$$libinit$$00000030)
    .ARM.Collect$$libinit$$00000032          0x0800025e   Section        0  libinit2.o(.ARM.Collect$$libinit$$00000032)
    .ARM.Collect$$libinit$$00000033          0x0800025e   Section        2  libinit2.o(.ARM.Collect$$libinit$$00000033)
    .ARM.Collect$$libshutdown$$00000000      0x08000260   Section        2  libshutdown.o(.ARM.Collect$$libshutdown$$00000000)
    .ARM.Collect$$libshutdown$$00000002      0x08000262   Section        0  libshutdown2.o(.ARM.Collect$$libshutdown$$00000002)
    .ARM.Collect$$libshutdown$$00000004      0x08000262   Section        0  libshutdown2.o(.ARM.Collect$$libshutdown$$00000004)
    .ARM.Collect$$libshutdown$$00000007      0x08000262   Section        0  libshutdown2.o(.ARM.Collect$$libshutdown$$00000007)
    .ARM.Collect$$libshutdown$$0000000A      0x08000262   Section        0  libshutdown2.o(.ARM.Collect$$libshutdown$$0000000A)
    .ARM.Collect$$libshutdown$$0000000C      0x08000262   Section        0  libshutdown2.o(.ARM.Collect$$libshutdown$$0000000C)
    .ARM.Collect$$libshutdown$$0000000F      0x08000262   Section        0  libshutdown2.o(.ARM.Collect$$libshutdown$$0000000F)
    .ARM.Collect$$libshutdown$$00000010      0x08000262   Section        2  libshutdown2.o(.ARM.Collect$$libshutdown$$00000010)
    .ARM.Collect$$rtentry$$00000000          0x08000264   Section        0  __rtentry.o(.ARM.Collect$$rtentry$$00000000)
    .ARM.Collect$$rtentry$$00000002          0x08000264   Section        0  __rtentry2.o(.ARM.Collect$$rtentry$$00000002)
    .ARM.Collect$$rtentry$$00000004          0x08000264   Section        6  __rtentry4.o(.ARM.Collect$$rtentry$$00000004)
    .ARM.Collect$$rtentry$$00000009          0x0800026a   Section        0  __rtentry2.o(.ARM.Collect$$rtentry$$00000009)
    .ARM.Collect$$rtentry$$0000000A          0x0800026a   Section        4  __rtentry2.o(.ARM.Collect$$rtentry$$0000000A)
    .ARM.Collect$$rtentry$$0000000C          0x0800026e   Section        0  __rtentry2.o(.ARM.Collect$$rtentry$$0000000C)
    .ARM.Collect$$rtentry$$0000000D          0x0800026e   Section        8  __rtentry2.o(.ARM.Collect$$rtentry$$0000000D)
    .ARM.Collect$$rtexit$$00000000           0x08000276   Section        2  rtexit.o(.ARM.Collect$$rtexit$$00000000)
    .ARM.Collect$$rtexit$$00000002           0x08000278   Section        0  rtexit2.o(.ARM.Collect$$rtexit$$00000002)
    .ARM.Collect$$rtexit$$00000003           0x08000278   Section        4  rtexit2.o(.ARM.Collect$$rtexit$$00000003)
    .ARM.Collect$$rtexit$$00000004           0x0800027c   Section        6  rtexit2.o(.ARM.Collect$$rtexit$$00000004)
    .emb_text                                0x08000284   Section       16  cpuport.o(.emb_text)
    $v0                                      0x08000284   Number         0  cpuport.o(.emb_text)
    .text                                    0x08000294   Section      308  context_rvds.o(.text)
    $v0                                      0x08000294   Number         0  context_rvds.o(.text)
    .text                                    0x080003c8   Section       64  startup_stm32f407xx.o(.text)
    $v0                                      0x080003c8   Number         0  startup_stm32f407xx.o(.text)
    .text                                    0x08000408   Section      238  lludivv7m.o(.text)
    .text                                    0x080004f8   Section        0  noretval__2sprintf.o(.text)
    .text                                    0x08000520   Section        0  __printf.o(.text)
    .text                                    0x08000588   Section        0  _printf_dec.o(.text)
    .text                                    0x08000600   Section        0  atoi.o(.text)
    .text                                    0x0800061a   Section        0  memcmp.o(.text)
    .text                                    0x08000672   Section        0  strcpy.o(.text)
    .text                                    0x080006ba   Section        0  strlen.o(.text)
    .text                                    0x080006f8   Section        0  strncmp.o(.text)
    .text                                    0x0800078e   Section        0  strcat.o(.text)
    .text                                    0x080007a6   Section      138  rt_memcpy_v6.o(.text)
    .text                                    0x08000830   Section      100  rt_memcpy_w.o(.text)
    .text                                    0x08000894   Section       16  aeabi_memset.o(.text)
    .text                                    0x080008a4   Section       68  rt_memclr.o(.text)
    .text                                    0x080008e8   Section       78  rt_memclr_w.o(.text)
    .text                                    0x08000936   Section       86  strncpy.o(.text)
    .text                                    0x0800098c   Section        0  heapauxi.o(.text)
    .text                                    0x08000994   Section        8  rt_errno_addr_intlibspace.o(.text)
    .text                                    0x0800099c   Section        0  _printf_intcommon.o(.text)
    .text                                    0x08000a50   Section        0  _printf_char_common.o(.text)
    _printf_input_char                       0x08000a51   Thumb Code    10  _printf_char_common.o(.text)
    .text                                    0x08000a80   Section        0  _sputc.o(.text)
    .text                                    0x08000a8a   Section        0  strtol.o(.text)
    .text                                    0x08000afc   Section        8  libspace.o(.text)
    .text                                    0x08000b04   Section       16  rt_ctype_table.o(.text)
    .text                                    0x08000b14   Section        0  _strtoul.o(.text)
    .text                                    0x08000bb2   Section       74  sys_stackheap_outer.o(.text)
    .text                                    0x08000bfc   Section        8  rt_locale_intlibspace.o(.text)
    .text                                    0x08000c04   Section        0  _chval.o(.text)
    .text                                    0x08000c20   Section        0  exit.o(.text)
    .text                                    0x08000c34   Section      128  strcmpv7m.o(.text)
    .text                                    0x08000cb4   Section        0  sys_exit.o(.text)
    .text                                    0x08000cc0   Section        2  use_no_semi.o(.text)
    .text                                    0x08000cc2   Section        0  indicate_semi.o(.text)
    i.$Sub$$main                             0x08000cc2   Section        0  components.o(i.$Sub$$main)
    i.APP_ConsoleInit                        0x08000ccc   Section        0  app_console.o(i.APP_ConsoleInit)
    APP_ConsoleInit                          0x08000ccd   Thumb Code   146  app_console.o(i.APP_ConsoleInit)
    i.APP_ConsoleRun                         0x08000d8c   Section        0  app_console.o(i.APP_ConsoleRun)
    APP_ConsoleRun                           0x08000d8d   Thumb Code   316  app_console.o(i.APP_ConsoleRun)
    i.APP_Console_Config                     0x08000f84   Section        0  app_console.o(i.APP_Console_Config)
    i.CAN1_RX0_IRQHandler                    0x08001004   Section        0  drv_can.o(i.CAN1_RX0_IRQHandler)
    i.CAN1_RX1_IRQHandler                    0x0800101c   Section        0  drv_can.o(i.CAN1_RX1_IRQHandler)
    i.CAN1_SCE_IRQHandler                    0x08001034   Section        0  drv_can.o(i.CAN1_SCE_IRQHandler)
    i.CAN1_TX_IRQHandler                     0x08001138   Section        0  drv_can.o(i.CAN1_TX_IRQHandler)
    i.CAN2_RX0_IRQHandler                    0x080011f8   Section        0  drv_can.o(i.CAN2_RX0_IRQHandler)
    i.CAN2_RX1_IRQHandler                    0x08001210   Section        0  drv_can.o(i.CAN2_RX1_IRQHandler)
    i.CAN2_SCE_IRQHandler                    0x08001228   Section        0  drv_can.o(i.CAN2_SCE_IRQHandler)
    i.CAN2_TX_IRQHandler                     0x08001334   Section        0  drv_can.o(i.CAN2_TX_IRQHandler)
    i.ConsoleControl_entry                   0x080013f4   Section        0  app_console.o(i.ConsoleControl_entry)
    ConsoleControl_entry                     0x080013f5   Thumb Code    34  app_console.o(i.ConsoleControl_entry)
    i.ConsoleDeal_entry                      0x08001416   Section        0  app_console.o(i.ConsoleDeal_entry)
    ConsoleDeal_entry                        0x08001417   Thumb Code    62  app_console.o(i.ConsoleDeal_entry)
    i.ConsoleLed_entry                       0x08001454   Section        0  app_console.o(i.ConsoleLed_entry)
    ConsoleLed_entry                         0x08001455   Thumb Code    20  app_console.o(i.ConsoleLed_entry)
    i.ConsoleShow_entry                      0x08001468   Section        0  app_console.o(i.ConsoleShow_entry)
    ConsoleShow_entry                        0x08001469   Thumb Code   638  app_console.o(i.ConsoleShow_entry)
    i.ConsoleUpdateCom_entry                 0x08001994   Section        0  app_console.o(i.ConsoleUpdateCom_entry)
    ConsoleUpdateCom_entry                   0x08001995   Thumb Code    22  app_console.o(i.ConsoleUpdateCom_entry)
    i.ConsoleUpdateHMI_entry                 0x080019aa   Section        0  app_console.o(i.ConsoleUpdateHMI_entry)
    ConsoleUpdateHMI_entry                   0x080019ab   Thumb Code    24  app_console.o(i.ConsoleUpdateHMI_entry)
    i.DMA1_Stream1_IRQHandler                0x080019c4   Section        0  drv_usart.o(i.DMA1_Stream1_IRQHandler)
    i.DMA1_Stream2_IRQHandler                0x080019dc   Section        0  drv_usart.o(i.DMA1_Stream2_IRQHandler)
    i.DMA1_Stream5_IRQHandler                0x080019f4   Section        0  drv_usart.o(i.DMA1_Stream5_IRQHandler)
    i.DMA2_Stream1_IRQHandler                0x08001a0c   Section        0  drv_usart.o(i.DMA2_Stream1_IRQHandler)
    i.DMA_CalcBaseAndBitshift                0x08001a24   Section        0  stm32f4xx_hal_dma.o(i.DMA_CalcBaseAndBitshift)
    DMA_CalcBaseAndBitshift                  0x08001a25   Thumb Code    46  stm32f4xx_hal_dma.o(i.DMA_CalcBaseAndBitshift)
    i.DMA_CheckFifoParam                     0x08001a58   Section        0  stm32f4xx_hal_dma.o(i.DMA_CheckFifoParam)
    DMA_CheckFifoParam                       0x08001a59   Thumb Code   170  stm32f4xx_hal_dma.o(i.DMA_CheckFifoParam)
    i.DMA_SetConfig                          0x08001b02   Section        0  stm32f4xx_hal_dma.o(i.DMA_SetConfig)
    DMA_SetConfig                            0x08001b03   Thumb Code    44  stm32f4xx_hal_dma.o(i.DMA_SetConfig)
    i.EXTI0_IRQHandler                       0x08001b2e   Section        0  drv_gpio.o(i.EXTI0_IRQHandler)
    i.EXTI15_10_IRQHandler                   0x08001b40   Section        0  drv_gpio.o(i.EXTI15_10_IRQHandler)
    i.EXTI1_IRQHandler                       0x08001b7c   Section        0  drv_gpio.o(i.EXTI1_IRQHandler)
    i.EXTI2_IRQHandler                       0x08001b8e   Section        0  drv_gpio.o(i.EXTI2_IRQHandler)
    i.EXTI3_IRQHandler                       0x08001ba0   Section        0  drv_gpio.o(i.EXTI3_IRQHandler)
    i.EXTI4_IRQHandler                       0x08001bb2   Section        0  drv_gpio.o(i.EXTI4_IRQHandler)
    i.EXTI9_5_IRQHandler                     0x08001bc4   Section        0  drv_gpio.o(i.EXTI9_5_IRQHandler)
    i.HAL_CAN_ConfigFilter                   0x08001bf4   Section        0  stm32f4xx_hal_can.o(i.HAL_CAN_ConfigFilter)
    i.HAL_CAN_ErrorCallback                  0x08001d18   Section        0  drv_can.o(i.HAL_CAN_ErrorCallback)
    i.HAL_CAN_GetRxFifoFillLevel             0x08001d28   Section        0  stm32f4xx_hal_can.o(i.HAL_CAN_GetRxFifoFillLevel)
    i.HAL_CAN_GetRxMessage                   0x08001d50   Section        0  stm32f4xx_hal_can.o(i.HAL_CAN_GetRxMessage)
    i.HAL_CAN_IRQHandler                     0x08001ecc   Section        0  stm32f4xx_hal_can.o(i.HAL_CAN_IRQHandler)
    i.HAL_CAN_Init                           0x0800211a   Section        0  stm32f4xx_hal_can.o(i.HAL_CAN_Init)
    i.HAL_CAN_MspInit                        0x08002290   Section        0  stm32f4xx_hal_msp.o(i.HAL_CAN_MspInit)
    i.HAL_CAN_RxFifo0FullCallback            0x080023d4   Section        0  stm32f4xx_hal_can.o(i.HAL_CAN_RxFifo0FullCallback)
    i.HAL_CAN_RxFifo0MsgPendingCallback      0x080023d6   Section        0  stm32f4xx_hal_can.o(i.HAL_CAN_RxFifo0MsgPendingCallback)
    i.HAL_CAN_RxFifo1FullCallback            0x080023d8   Section        0  stm32f4xx_hal_can.o(i.HAL_CAN_RxFifo1FullCallback)
    i.HAL_CAN_RxFifo1MsgPendingCallback      0x080023da   Section        0  stm32f4xx_hal_can.o(i.HAL_CAN_RxFifo1MsgPendingCallback)
    i.HAL_CAN_SleepCallback                  0x080023dc   Section        0  stm32f4xx_hal_can.o(i.HAL_CAN_SleepCallback)
    i.HAL_CAN_Start                          0x080023de   Section        0  stm32f4xx_hal_can.o(i.HAL_CAN_Start)
    i.HAL_CAN_TxMailbox0AbortCallback        0x0800243c   Section        0  stm32f4xx_hal_can.o(i.HAL_CAN_TxMailbox0AbortCallback)
    i.HAL_CAN_TxMailbox0CompleteCallback     0x0800243e   Section        0  stm32f4xx_hal_can.o(i.HAL_CAN_TxMailbox0CompleteCallback)
    i.HAL_CAN_TxMailbox1AbortCallback        0x08002440   Section        0  stm32f4xx_hal_can.o(i.HAL_CAN_TxMailbox1AbortCallback)
    i.HAL_CAN_TxMailbox1CompleteCallback     0x08002442   Section        0  stm32f4xx_hal_can.o(i.HAL_CAN_TxMailbox1CompleteCallback)
    i.HAL_CAN_TxMailbox2AbortCallback        0x08002444   Section        0  stm32f4xx_hal_can.o(i.HAL_CAN_TxMailbox2AbortCallback)
    i.HAL_CAN_TxMailbox2CompleteCallback     0x08002446   Section        0  stm32f4xx_hal_can.o(i.HAL_CAN_TxMailbox2CompleteCallback)
    i.HAL_CAN_WakeUpFromRxMsgCallback        0x08002448   Section        0  stm32f4xx_hal_can.o(i.HAL_CAN_WakeUpFromRxMsgCallback)
    i.HAL_DMA_Abort_IT                       0x0800244a   Section        0  stm32f4xx_hal_dma.o(i.HAL_DMA_Abort_IT)
    i.HAL_DMA_DeInit                         0x08002472   Section        0  stm32f4xx_hal_dma.o(i.HAL_DMA_DeInit)
    i.HAL_DMA_IRQHandler                     0x080024e4   Section        0  stm32f4xx_hal_dma.o(i.HAL_DMA_IRQHandler)
    i.HAL_DMA_Init                           0x08002724   Section        0  stm32f4xx_hal_dma.o(i.HAL_DMA_Init)
    i.HAL_DMA_Start_IT                       0x08002810   Section        0  stm32f4xx_hal_dma.o(i.HAL_DMA_Start_IT)
    i.HAL_GPIO_DeInit                        0x080028b0   Section        0  stm32f4xx_hal_gpio.o(i.HAL_GPIO_DeInit)
    i.HAL_GPIO_EXTI_Callback                 0x08002a14   Section        0  drv_gpio.o(i.HAL_GPIO_EXTI_Callback)
    i.HAL_GPIO_EXTI_IRQHandler               0x08002a50   Section        0  stm32f4xx_hal_gpio.o(i.HAL_GPIO_EXTI_IRQHandler)
    i.HAL_GPIO_Init                          0x08002a6c   Section        0  stm32f4xx_hal_gpio.o(i.HAL_GPIO_Init)
    i.HAL_GPIO_ReadPin                       0x08002c6c   Section        0  stm32f4xx_hal_gpio.o(i.HAL_GPIO_ReadPin)
    i.HAL_GPIO_WritePin                      0x08002c7c   Section        0  stm32f4xx_hal_gpio.o(i.HAL_GPIO_WritePin)
    i.HAL_GetTick                            0x08002c88   Section        0  drv_common.o(i.HAL_GetTick)
    i.HAL_IncTick                            0x08002c9c   Section        0  stm32f4xx_hal.o(i.HAL_IncTick)
    i.HAL_Init                               0x08002cb4   Section        0  stm32f4xx_hal.o(i.HAL_Init)
    i.HAL_InitTick                           0x08002cf0   Section        0  drv_common.o(i.HAL_InitTick)
    i.HAL_MspInit                            0x08002cf8   Section        0  stm32f4xx_hal_msp.o(i.HAL_MspInit)
    i.HAL_NVIC_DisableIRQ                    0x08002d40   Section        0  stm32f4xx_hal_cortex.o(i.HAL_NVIC_DisableIRQ)
    i.HAL_NVIC_EnableIRQ                     0x08002d84   Section        0  stm32f4xx_hal_cortex.o(i.HAL_NVIC_EnableIRQ)
    i.HAL_NVIC_SetPriority                   0x08002da4   Section        0  stm32f4xx_hal_cortex.o(i.HAL_NVIC_SetPriority)
    i.HAL_NVIC_SetPriorityGrouping           0x08002e20   Section        0  stm32f4xx_hal_cortex.o(i.HAL_NVIC_SetPriorityGrouping)
    i.HAL_RCC_ClockConfig                    0x08002e48   Section        0  stm32f4xx_hal_rcc.o(i.HAL_RCC_ClockConfig)
    i.HAL_RCC_GetHCLKFreq                    0x08002fc8   Section        0  stm32f4xx_hal_rcc.o(i.HAL_RCC_GetHCLKFreq)
    i.HAL_RCC_GetPCLK1Freq                   0x08002fd4   Section        0  stm32f4xx_hal_rcc.o(i.HAL_RCC_GetPCLK1Freq)
    i.HAL_RCC_GetPCLK2Freq                   0x08002ff4   Section        0  stm32f4xx_hal_rcc.o(i.HAL_RCC_GetPCLK2Freq)
    i.HAL_RCC_GetSysClockFreq                0x08003014   Section        0  stm32f4xx_hal_rcc.o(i.HAL_RCC_GetSysClockFreq)
    i.HAL_RCC_OscConfig                      0x080030c4   Section        0  stm32f4xx_hal_rcc.o(i.HAL_RCC_OscConfig)
    i.HAL_SPI_ErrorCallback                  0x0800350c   Section        0  stm32f4xx_hal_spi.o(i.HAL_SPI_ErrorCallback)
    i.HAL_SPI_GetState                       0x0800350e   Section        0  stm32f4xx_hal_spi.o(i.HAL_SPI_GetState)
    i.HAL_SPI_Init                           0x08003516   Section        0  stm32f4xx_hal_spi.o(i.HAL_SPI_Init)
    i.HAL_SPI_MspInit                        0x080035a4   Section        0  stm32f4xx_hal_msp.o(i.HAL_SPI_MspInit)
    i.HAL_SPI_Receive                        0x0800362c   Section        0  stm32f4xx_hal_spi.o(i.HAL_SPI_Receive)
    i.HAL_SPI_Receive_DMA                    0x08003790   Section        0  stm32f4xx_hal_spi.o(i.HAL_SPI_Receive_DMA)
    i.HAL_SPI_RxCpltCallback                 0x080038a0   Section        0  stm32f4xx_hal_spi.o(i.HAL_SPI_RxCpltCallback)
    i.HAL_SPI_RxHalfCpltCallback             0x080038a2   Section        0  stm32f4xx_hal_spi.o(i.HAL_SPI_RxHalfCpltCallback)
    i.HAL_SPI_Transmit                       0x080038a4   Section        0  stm32f4xx_hal_spi.o(i.HAL_SPI_Transmit)
    i.HAL_SPI_TransmitReceive                0x08003a46   Section        0  stm32f4xx_hal_spi.o(i.HAL_SPI_TransmitReceive)
    i.HAL_SPI_TransmitReceive_DMA            0x08003c70   Section        0  stm32f4xx_hal_spi.o(i.HAL_SPI_TransmitReceive_DMA)
    i.HAL_SPI_Transmit_DMA                   0x08003ddc   Section        0  stm32f4xx_hal_spi.o(i.HAL_SPI_Transmit_DMA)
    i.HAL_SPI_TxCpltCallback                 0x08003ecc   Section        0  stm32f4xx_hal_spi.o(i.HAL_SPI_TxCpltCallback)
    i.HAL_SPI_TxHalfCpltCallback             0x08003ece   Section        0  stm32f4xx_hal_spi.o(i.HAL_SPI_TxHalfCpltCallback)
    i.HAL_SPI_TxRxCpltCallback               0x08003ed0   Section        0  stm32f4xx_hal_spi.o(i.HAL_SPI_TxRxCpltCallback)
    i.HAL_SPI_TxRxHalfCpltCallback           0x08003ed2   Section        0  stm32f4xx_hal_spi.o(i.HAL_SPI_TxRxHalfCpltCallback)
    i.HAL_SYSTICK_CLKSourceConfig            0x08003ed4   Section        0  stm32f4xx_hal_cortex.o(i.HAL_SYSTICK_CLKSourceConfig)
    i.HAL_SYSTICK_Config                     0x08003efc   Section        0  stm32f4xx_hal_cortex.o(i.HAL_SYSTICK_Config)
    i.HAL_TIMEx_MasterConfigSynchronization  0x08003f30   Section        0  stm32f4xx_hal_tim_ex.o(i.HAL_TIMEx_MasterConfigSynchronization)
    i.HAL_TIM_Base_Init                      0x08003f84   Section        0  stm32f4xx_hal_tim.o(i.HAL_TIM_Base_Init)
    i.HAL_TIM_Base_MspInit                   0x08003fb8   Section        0  stm32f4xx_hal_tim.o(i.HAL_TIM_Base_MspInit)
    i.HAL_TIM_ConfigClockSource              0x08003fba   Section        0  stm32f4xx_hal_tim.o(i.HAL_TIM_ConfigClockSource)
    i.HAL_TIM_Encoder_Init                   0x080040c2   Section        0  stm32f4xx_hal_tim.o(i.HAL_TIM_Encoder_Init)
    i.HAL_TIM_Encoder_MspInit                0x08004170   Section        0  stm32f4xx_hal_msp.o(i.HAL_TIM_Encoder_MspInit)
    i.HAL_TIM_Encoder_Start                  0x08004264   Section        0  stm32f4xx_hal_tim.o(i.HAL_TIM_Encoder_Start)
    i.HAL_TIM_Encoder_Start_IT               0x080042b2   Section        0  stm32f4xx_hal_tim.o(i.HAL_TIM_Encoder_Start_IT)
    i.HAL_TIM_Encoder_Stop                   0x08004330   Section        0  stm32f4xx_hal_tim.o(i.HAL_TIM_Encoder_Stop)
    i.HAL_TIM_Encoder_Stop_IT                0x08004398   Section        0  stm32f4xx_hal_tim.o(i.HAL_TIM_Encoder_Stop_IT)
    i.HAL_TIM_GenerateEvent                  0x08004430   Section        0  stm32f4xx_hal_tim.o(i.HAL_TIM_GenerateEvent)
    i.HAL_TIM_MspPostInit                    0x08004468   Section        0  stm32f4xx_hal_msp.o(i.HAL_TIM_MspPostInit)
    i.HAL_TIM_PWM_ConfigChannel              0x080044c8   Section        0  stm32f4xx_hal_tim.o(i.HAL_TIM_PWM_ConfigChannel)
    i.HAL_TIM_PWM_Init                       0x080045d0   Section        0  stm32f4xx_hal_tim.o(i.HAL_TIM_PWM_Init)
    i.HAL_TIM_PWM_MspInit                    0x08004604   Section        0  stm32f4xx_hal_msp.o(i.HAL_TIM_PWM_MspInit)
    i.HAL_TIM_PWM_Start                      0x08004638   Section        0  stm32f4xx_hal_tim.o(i.HAL_TIM_PWM_Start)
    i.HAL_TIM_PWM_Stop                       0x08004690   Section        0  stm32f4xx_hal_tim.o(i.HAL_TIM_PWM_Stop)
    i.HAL_UART_ErrorCallback                 0x08004718   Section        0  drv_usart.o(i.HAL_UART_ErrorCallback)
    i.HAL_UART_IRQHandler                    0x08004744   Section        0  stm32f4xx_hal_uart.o(i.HAL_UART_IRQHandler)
    i.HAL_UART_Init                          0x08004890   Section        0  stm32f4xx_hal_uart.o(i.HAL_UART_Init)
    i.HAL_UART_MspInit                       0x08004904   Section        0  stm32f4xx_hal_msp.o(i.HAL_UART_MspInit)
    i.HAL_UART_Receive_DMA                   0x08004b94   Section        0  stm32f4xx_hal_uart.o(i.HAL_UART_Receive_DMA)
    i.HAL_UART_RxCpltCallback                0x08004c58   Section        0  drv_usart.o(i.HAL_UART_RxCpltCallback)
    i.HAL_UART_RxHalfCpltCallback            0x08004c8c   Section        0  drv_usart.o(i.HAL_UART_RxHalfCpltCallback)
    i.HAL_UART_Transmit_DMA                  0x08004cc0   Section        0  stm32f4xx_hal_uart.o(i.HAL_UART_Transmit_DMA)
    i.HAL_UART_TxCpltCallback                0x08004d5c   Section        0  drv_usart.o(i.HAL_UART_TxCpltCallback)
    i.HAL_UART_TxHalfCpltCallback            0x08004d90   Section        0  stm32f4xx_hal_uart.o(i.HAL_UART_TxHalfCpltCallback)
    i.Module_DjiC610620GroupFeed             0x08004d94   Section        0  module_djic610620group.o(i.Module_DjiC610620GroupFeed)
    Module_DjiC610620GroupFeed               0x08004d95   Thumb Code   982  module_djic610620group.o(i.Module_DjiC610620GroupFeed)
    i.Module_DjiC610620GroupHandle           0x08005170   Section        0  module_djic610620group.o(i.Module_DjiC610620GroupHandle)
    Module_DjiC610620GroupHandle             0x08005171   Thumb Code    16  module_djic610620group.o(i.Module_DjiC610620GroupHandle)
    i.Module_DjiC610620GroupInit             0x08005184   Section        0  module_djic610620group.o(i.Module_DjiC610620GroupInit)
    Module_DjiC610620GroupInit               0x08005185   Thumb Code   220  module_djic610620group.o(i.Module_DjiC610620GroupInit)
    i.Module_DjiC610620GroupSend             0x080052a4   Section        0  module_djic610620group.o(i.Module_DjiC610620GroupSend)
    Module_DjiC610620GroupSend               0x080052a5   Thumb Code   316  module_djic610620group.o(i.Module_DjiC610620GroupSend)
    i.Module_DjiC610620Group_Config          0x080053fc   Section        0  module_djic610620group.o(i.Module_DjiC610620Group_Config)
    i.Module_DjiC610620Init                  0x080054c4   Section        0  module_djic610620group.o(i.Module_DjiC610620Init)
    Module_DjiC610620Init                    0x080054c5   Thumb Code    98  module_djic610620group.o(i.Module_DjiC610620Init)
    i.Module_DjiC610620_Config               0x08005578   Section        0  module_djic610620group.o(i.Module_DjiC610620_Config)
    Module_DjiC610620_Config                 0x08005579   Thumb Code    72  module_djic610620group.o(i.Module_DjiC610620_Config)
    i.Module_LedHandle                       0x080055f4   Section        0  module_led.o(i.Module_LedHandle)
    Module_LedHandle                         0x080055f5   Thumb Code   116  module_led.o(i.Module_LedHandle)
    i.Module_LedInit                         0x08005668   Section        0  module_led.o(i.Module_LedInit)
    Module_LedInit                           0x08005669   Thumb Code    36  module_led.o(i.Module_LedInit)
    i.Module_LedSet                          0x0800568c   Section        0  module_led.o(i.Module_LedSet)
    Module_LedSet                            0x0800568d   Thumb Code    30  module_led.o(i.Module_LedSet)
    i.Module_Led_Config                      0x080056ac   Section        0  module_led.o(i.Module_Led_Config)
    i.Module_PIDInit                         0x08005714   Section        0  math_pid.o(i.Module_PIDInit)
    Module_PIDInit                           0x08005715   Thumb Code    50  math_pid.o(i.Module_PIDInit)
    i.Module_PIDUpdate                       0x0800574c   Section        0  math_pid.o(i.Module_PIDUpdate)
    Module_PIDUpdate                         0x0800574d   Thumb Code   386  math_pid.o(i.Module_PIDUpdate)
    i.Module_PID_Config                      0x080058d0   Section        0  math_pid.o(i.Module_PID_Config)
    i.Module_UartComFeed                     0x08005934   Section        0  module_uartcom.o(i.Module_UartComFeed)
    Module_UartComFeed                       0x08005935   Thumb Code   104  module_uartcom.o(i.Module_UartComFeed)
    i.Module_UartComHandle                   0x080059a0   Section        0  module_uartcom.o(i.Module_UartComHandle)
    Module_UartComHandle                     0x080059a1   Thumb Code    16  module_uartcom.o(i.Module_UartComHandle)
    i.Module_UartComInit                     0x080059b4   Section        0  module_uartcom.o(i.Module_UartComInit)
    Module_UartComInit                       0x080059b5   Thumb Code   166  module_uartcom.o(i.Module_UartComInit)
    i.Module_UartComJC24BConfig              0x08005a88   Section        0  module_uartcom.o(i.Module_UartComJC24BConfig)
    Module_UartComJC24BConfig                0x08005a89   Thumb Code   186  module_uartcom.o(i.Module_UartComJC24BConfig)
    i.Module_UartComSend                     0x08005b42   Section        0  module_uartcom.o(i.Module_UartComSend)
    Module_UartComSend                       0x08005b43   Thumb Code    34  module_uartcom.o(i.Module_UartComSend)
    i.Module_UartCom_Config                  0x08005b64   Section        0  module_uartcom.o(i.Module_UartCom_Config)
    i.Module_UartHMIFeed                     0x08005be8   Section        0  module_uarthmi.o(i.Module_UartHMIFeed)
    Module_UartHMIFeed                       0x08005be9   Thumb Code   104  module_uarthmi.o(i.Module_UartHMIFeed)
    i.Module_UartHMIHandle                   0x08005c54   Section        0  module_uarthmi.o(i.Module_UartHMIHandle)
    Module_UartHMIHandle                     0x08005c55   Thumb Code    16  module_uarthmi.o(i.Module_UartHMIHandle)
    i.Module_UartHMIInit                     0x08005c68   Section        0  module_uarthmi.o(i.Module_UartHMIInit)
    Module_UartHMIInit                       0x08005c69   Thumb Code   150  module_uarthmi.o(i.Module_UartHMIInit)
    i.Module_UartHMISend                     0x08005d2c   Section        0  module_uarthmi.o(i.Module_UartHMISend)
    Module_UartHMISend                       0x08005d2d   Thumb Code    52  module_uarthmi.o(i.Module_UartHMISend)
    i.Module_UartHMI_Config                  0x08005d64   Section        0  module_uarthmi.o(i.Module_UartHMI_Config)
    i.SPI_DMAError                           0x08005dd8   Section        0  stm32f4xx_hal_spi.o(i.SPI_DMAError)
    SPI_DMAError                             0x08005dd9   Thumb Code    40  stm32f4xx_hal_spi.o(i.SPI_DMAError)
    i.SPI_DMAHalfReceiveCplt                 0x08005e00   Section        0  stm32f4xx_hal_spi.o(i.SPI_DMAHalfReceiveCplt)
    SPI_DMAHalfReceiveCplt                   0x08005e01   Thumb Code    14  stm32f4xx_hal_spi.o(i.SPI_DMAHalfReceiveCplt)
    i.SPI_DMAHalfTransmitCplt                0x08005e0e   Section        0  stm32f4xx_hal_spi.o(i.SPI_DMAHalfTransmitCplt)
    SPI_DMAHalfTransmitCplt                  0x08005e0f   Thumb Code    14  stm32f4xx_hal_spi.o(i.SPI_DMAHalfTransmitCplt)
    i.SPI_DMAHalfTransmitReceiveCplt         0x08005e1c   Section        0  stm32f4xx_hal_spi.o(i.SPI_DMAHalfTransmitReceiveCplt)
    SPI_DMAHalfTransmitReceiveCplt           0x08005e1d   Thumb Code    14  stm32f4xx_hal_spi.o(i.SPI_DMAHalfTransmitReceiveCplt)
    i.SPI_DMAReceiveCplt                     0x08005e2a   Section        0  stm32f4xx_hal_spi.o(i.SPI_DMAReceiveCplt)
    SPI_DMAReceiveCplt                       0x08005e2b   Thumb Code    98  stm32f4xx_hal_spi.o(i.SPI_DMAReceiveCplt)
    i.SPI_DMATransmitCplt                    0x08005e8c   Section        0  stm32f4xx_hal_spi.o(i.SPI_DMATransmitCplt)
    SPI_DMATransmitCplt                      0x08005e8d   Thumb Code   128  stm32f4xx_hal_spi.o(i.SPI_DMATransmitCplt)
    i.SPI_DMATransmitReceiveCplt             0x08005f0c   Section        0  stm32f4xx_hal_spi.o(i.SPI_DMATransmitReceiveCplt)
    SPI_DMATransmitReceiveCplt               0x08005f0d   Thumb Code   104  stm32f4xx_hal_spi.o(i.SPI_DMATransmitReceiveCplt)
    i.SPI_EndRxTransaction                   0x08005f74   Section        0  stm32f4xx_hal_spi.o(i.SPI_EndRxTransaction)
    SPI_EndRxTransaction                     0x08005f75   Thumb Code   148  stm32f4xx_hal_spi.o(i.SPI_EndRxTransaction)
    i.SPI_EndRxTxTransaction                 0x08006008   Section        0  stm32f4xx_hal_spi.o(i.SPI_EndRxTxTransaction)
    SPI_EndRxTxTransaction                   0x08006009   Thumb Code   100  stm32f4xx_hal_spi.o(i.SPI_EndRxTxTransaction)
    i.SPI_WaitFlagStateUntilTimeout          0x08006074   Section        0  stm32f4xx_hal_spi.o(i.SPI_WaitFlagStateUntilTimeout)
    SPI_WaitFlagStateUntilTimeout            0x08006075   Thumb Code   168  stm32f4xx_hal_spi.o(i.SPI_WaitFlagStateUntilTimeout)
    i.SysTick_Handler                        0x0800611c   Section        0  drv_common.o(i.SysTick_Handler)
    i.SystemClock_Config                     0x08006130   Section        0  board.o(i.SystemClock_Config)
    i.SystemInit                             0x080061fc   Section        0  system_stm32f4xx.o(i.SystemInit)
    i.TIM2_IRQHandler                        0x08006260   Section        0  drv_pulse_encoder.o(i.TIM2_IRQHandler)
    i.TIM3_IRQHandler                        0x08006278   Section        0  drv_pulse_encoder.o(i.TIM3_IRQHandler)
    i.TIM_Base_SetConfig                     0x08006290   Section        0  stm32f4xx_hal_tim.o(i.TIM_Base_SetConfig)
    i.TIM_CCxChannelCmd                      0x08006368   Section        0  stm32f4xx_hal_tim.o(i.TIM_CCxChannelCmd)
    i.TIM_ETR_SetConfig                      0x0800638a   Section        0  stm32f4xx_hal_tim.o(i.TIM_ETR_SetConfig)
    i.TIM_ITRx_SetConfig                     0x080063a0   Section        0  stm32f4xx_hal_tim.o(i.TIM_ITRx_SetConfig)
    TIM_ITRx_SetConfig                       0x080063a1   Thumb Code    18  stm32f4xx_hal_tim.o(i.TIM_ITRx_SetConfig)
    i.TIM_OC1_SetConfig                      0x080063b4   Section        0  stm32f4xx_hal_tim.o(i.TIM_OC1_SetConfig)
    TIM_OC1_SetConfig                        0x080063b5   Thumb Code   104  stm32f4xx_hal_tim.o(i.TIM_OC1_SetConfig)
    i.TIM_OC2_SetConfig                      0x08006424   Section        0  stm32f4xx_hal_tim.o(i.TIM_OC2_SetConfig)
    i.TIM_OC3_SetConfig                      0x080064a0   Section        0  stm32f4xx_hal_tim.o(i.TIM_OC3_SetConfig)
    TIM_OC3_SetConfig                        0x080064a1   Thumb Code   112  stm32f4xx_hal_tim.o(i.TIM_OC3_SetConfig)
    i.TIM_OC4_SetConfig                      0x08006518   Section        0  stm32f4xx_hal_tim.o(i.TIM_OC4_SetConfig)
    TIM_OC4_SetConfig                        0x08006519   Thumb Code    74  stm32f4xx_hal_tim.o(i.TIM_OC4_SetConfig)
    i.TIM_TI1_ConfigInputStage               0x0800656c   Section        0  stm32f4xx_hal_tim.o(i.TIM_TI1_ConfigInputStage)
    TIM_TI1_ConfigInputStage                 0x0800656d   Thumb Code    38  stm32f4xx_hal_tim.o(i.TIM_TI1_ConfigInputStage)
    i.TIM_TI2_ConfigInputStage               0x08006592   Section        0  stm32f4xx_hal_tim.o(i.TIM_TI2_ConfigInputStage)
    TIM_TI2_ConfigInputStage                 0x08006593   Thumb Code    40  stm32f4xx_hal_tim.o(i.TIM_TI2_ConfigInputStage)
    i.UART4_IRQHandler                       0x080065bc   Section        0  drv_usart.o(i.UART4_IRQHandler)
    i.UART_DMAAbortOnError                   0x080065d4   Section        0  stm32f4xx_hal_uart.o(i.UART_DMAAbortOnError)
    UART_DMAAbortOnError                     0x080065d5   Thumb Code    20  stm32f4xx_hal_uart.o(i.UART_DMAAbortOnError)
    i.UART_DMAError                          0x080065e8   Section        0  stm32f4xx_hal_uart.o(i.UART_DMAError)
    UART_DMAError                            0x080065e9   Thumb Code    80  stm32f4xx_hal_uart.o(i.UART_DMAError)
    i.UART_DMAReceiveCplt                    0x08006638   Section        0  stm32f4xx_hal_uart.o(i.UART_DMAReceiveCplt)
    UART_DMAReceiveCplt                      0x08006639   Thumb Code    70  stm32f4xx_hal_uart.o(i.UART_DMAReceiveCplt)
    i.UART_DMARxHalfCplt                     0x0800667e   Section        0  stm32f4xx_hal_uart.o(i.UART_DMARxHalfCplt)
    UART_DMARxHalfCplt                       0x0800667f   Thumb Code    14  stm32f4xx_hal_uart.o(i.UART_DMARxHalfCplt)
    i.UART_DMATransmitCplt                   0x0800668c   Section        0  stm32f4xx_hal_uart.o(i.UART_DMATransmitCplt)
    UART_DMATransmitCplt                     0x0800668d   Thumb Code    54  stm32f4xx_hal_uart.o(i.UART_DMATransmitCplt)
    i.UART_DMATxHalfCplt                     0x080066c2   Section        0  stm32f4xx_hal_uart.o(i.UART_DMATxHalfCplt)
    UART_DMATxHalfCplt                       0x080066c3   Thumb Code    14  stm32f4xx_hal_uart.o(i.UART_DMATxHalfCplt)
    i.UART_EndRxTransfer                     0x080066d0   Section        0  stm32f4xx_hal_uart.o(i.UART_EndRxTransfer)
    UART_EndRxTransfer                       0x080066d1   Thumb Code    32  stm32f4xx_hal_uart.o(i.UART_EndRxTransfer)
    i.UART_EndTransmit_IT                    0x080066f0   Section        0  stm32f4xx_hal_uart.o(i.UART_EndTransmit_IT)
    UART_EndTransmit_IT                      0x080066f1   Thumb Code    32  stm32f4xx_hal_uart.o(i.UART_EndTransmit_IT)
    i.UART_EndTxTransfer                     0x08006710   Section        0  stm32f4xx_hal_uart.o(i.UART_EndTxTransfer)
    UART_EndTxTransfer                       0x08006711   Thumb Code    20  stm32f4xx_hal_uart.o(i.UART_EndTxTransfer)
    i.UART_Receive_IT                        0x08006724   Section        0  stm32f4xx_hal_uart.o(i.UART_Receive_IT)
    UART_Receive_IT                          0x08006725   Thumb Code   166  stm32f4xx_hal_uart.o(i.UART_Receive_IT)
    i.UART_SetConfig                         0x080067cc   Section        0  stm32f4xx_hal_uart.o(i.UART_SetConfig)
    UART_SetConfig                           0x080067cd   Thumb Code   864  stm32f4xx_hal_uart.o(i.UART_SetConfig)
    i.UART_Transmit_IT                       0x08006b34   Section        0  stm32f4xx_hal_uart.o(i.UART_Transmit_IT)
    UART_Transmit_IT                         0x08006b35   Thumb Code   104  stm32f4xx_hal_uart.o(i.UART_Transmit_IT)
    i.USART1_IRQHandler                      0x08006b9c   Section        0  drv_usart.o(i.USART1_IRQHandler)
    i.USART2_IRQHandler                      0x08006bb4   Section        0  drv_usart.o(i.USART2_IRQHandler)
    i.USART3_IRQHandler                      0x08006bcc   Section        0  drv_usart.o(i.USART3_IRQHandler)
    i.USART6_IRQHandler                      0x08006be4   Section        0  drv_usart.o(i.USART6_IRQHandler)
    i.UartComDecode                          0x08006bfc   Section        0  module_uartcom.o(i.UartComDecode)
    UartComDecode                            0x08006bfd   Thumb Code   132  module_uartcom.o(i.UartComDecode)
    i.UartComEncode                          0x08006c80   Section        0  module_uartcom.o(i.UartComEncode)
    UartComEncode                            0x08006c81   Thumb Code    70  module_uartcom.o(i.UartComEncode)
    i.UartHMIDecode                          0x08006cc6   Section        0  module_uarthmi.o(i.UartHMIDecode)
    UartHMIDecode                            0x08006cc7   Thumb Code    98  module_uarthmi.o(i.UartHMIDecode)
    i._Error_Handler                         0x08006d28   Section        0  drv_common.o(i._Error_Handler)
    i.__NVIC_DisableIRQ                      0x08006d2c   Section        0  drv_can.o(i.__NVIC_DisableIRQ)
    __NVIC_DisableIRQ                        0x08006d2d   Thumb Code    54  drv_can.o(i.__NVIC_DisableIRQ)
    i.__NVIC_GetPriorityGrouping             0x08006d68   Section        0  stm32f4xx_hal_cortex.o(i.__NVIC_GetPriorityGrouping)
    __NVIC_GetPriorityGrouping               0x08006d69   Thumb Code    10  stm32f4xx_hal_cortex.o(i.__NVIC_GetPriorityGrouping)
    i.__NVIC_SetPriority                     0x08006d78   Section        0  stm32f4xx_hal_cortex.o(i.__NVIC_SetPriority)
    __NVIC_SetPriority                       0x08006d79   Thumb Code    32  stm32f4xx_hal_cortex.o(i.__NVIC_SetPriority)
    i.__hardfp_fabs                          0x08006da0   Section        0  fabs.o(i.__hardfp_fabs)
    i._can_config                            0x08006db4   Section        0  drv_can.o(i._can_config)
    _can_config                              0x08006db5   Thumb Code   220  drv_can.o(i._can_config)
    i._can_control                           0x08006ea8   Section        0  drv_can.o(i._can_control)
    _can_control                             0x08006ea9   Thumb Code  1198  drv_can.o(i._can_control)
    i._can_int_rx                            0x08007358   Section        0  can.o(i._can_int_rx)
    _can_int_rx                              0x08007359   Thumb Code   174  can.o(i._can_int_rx)
    i._can_int_tx                            0x08007460   Section        0  can.o(i._can_int_tx)
    _can_int_tx                              0x08007461   Thumb Code   284  can.o(i._can_int_tx)
    i._can_int_tx_priv                       0x080075b8   Section        0  can.o(i._can_int_tx_priv)
    _can_int_tx_priv                         0x080075b9   Thumb Code   256  can.o(i._can_int_tx_priv)
    i._can_recvmsg                           0x080076e0   Section        0  drv_can.o(i._can_recvmsg)
    _can_recvmsg                             0x080076e1   Thumb Code   206  drv_can.o(i._can_recvmsg)
    i._can_rx_isr                            0x080077c0   Section        0  drv_can.o(i._can_rx_isr)
    _can_rx_isr                              0x080077c1   Thumb Code   232  drv_can.o(i._can_rx_isr)
    i._can_sendmsg                           0x080078b0   Section        0  drv_can.o(i._can_sendmsg)
    _can_sendmsg                             0x080078b1   Thumb Code   508  drv_can.o(i._can_sendmsg)
    i._get_highest_priority_thread           0x08007afc   Section        0  scheduler.o(i._get_highest_priority_thread)
    _get_highest_priority_thread             0x08007afd   Thumb Code    30  scheduler.o(i._get_highest_priority_thread)
    i._has_defunct_thread                    0x08007b24   Section        0  idle.o(i._has_defunct_thread)
    _has_defunct_thread                      0x08007b25   Thumb Code    16  idle.o(i._has_defunct_thread)
    i._msh_exec_cmd                          0x08007b38   Section        0  msh.o(i._msh_exec_cmd)
    _msh_exec_cmd                            0x08007b39   Thumb Code   136  msh.o(i._msh_exec_cmd)
    i._pin_control                           0x08007bd0   Section        0  pin.o(i._pin_control)
    _pin_control                             0x08007bd1   Thumb Code    52  pin.o(i._pin_control)
    i._pin_read                              0x08007c18   Section        0  pin.o(i._pin_read)
    _pin_read                                0x08007c19   Thumb Code    62  pin.o(i._pin_read)
    i._pin_write                             0x08007c6c   Section        0  pin.o(i._pin_write)
    _pin_write                               0x08007c6d   Thumb Code    62  pin.o(i._pin_write)
    i._pwm_control                           0x08007cc0   Section        0  rt_drv_pwm.o(i._pwm_control)
    _pwm_control                             0x08007cc1   Thumb Code    42  rt_drv_pwm.o(i._pwm_control)
    i._pwm_read                              0x08007cea   Section        0  rt_drv_pwm.o(i._pwm_read)
    _pwm_read                                0x08007ceb   Thumb Code    72  rt_drv_pwm.o(i._pwm_read)
    i._pwm_write                             0x08007d32   Section        0  rt_drv_pwm.o(i._pwm_write)
    _pwm_write                               0x08007d33   Thumb Code    96  rt_drv_pwm.o(i._pwm_write)
    i._rt_scheduler_stack_check              0x08007d94   Section        0  scheduler.o(i._rt_scheduler_stack_check)
    _rt_scheduler_stack_check                0x08007d95   Thumb Code    90  scheduler.o(i._rt_scheduler_stack_check)
    i._rt_thread_init                        0x08007e5c   Section        0  thread.o(i._rt_thread_init)
    _rt_thread_init                          0x08007e5d   Thumb Code   156  thread.o(i._rt_thread_init)
    i._rt_timer_init                         0x08007f2c   Section        0  timer.o(i._rt_timer_init)
    _rt_timer_init                           0x08007f2d   Thumb Code    66  timer.o(i._rt_timer_init)
    i._rt_timer_remove                       0x08007f6e   Section        0  timer.o(i._rt_timer_remove)
    _rt_timer_remove                         0x08007f6f   Thumb Code    46  timer.o(i._rt_timer_remove)
    i._serial_check_buffer_size              0x08007f9c   Section        0  serial.o(i._serial_check_buffer_size)
    _serial_check_buffer_size                0x08007f9d   Thumb Code    38  serial.o(i._serial_check_buffer_size)
    i._serial_dma_rx                         0x08007fe4   Section        0  serial.o(i._serial_dma_rx)
    _serial_dma_rx                           0x08007fe5   Thumb Code   276  serial.o(i._serial_dma_rx)
    i._serial_dma_tx                         0x08008178   Section        0  serial.o(i._serial_dma_tx)
    _serial_dma_tx                           0x08008179   Thumb Code    92  serial.o(i._serial_dma_tx)
    i._serial_fifo_calc_recved_len           0x080081d4   Section        0  serial.o(i._serial_fifo_calc_recved_len)
    _serial_fifo_calc_recved_len             0x080081d5   Thumb Code    76  serial.o(i._serial_fifo_calc_recved_len)
    i._serial_int_rx                         0x08008238   Section        0  serial.o(i._serial_int_rx)
    _serial_int_rx                           0x08008239   Thumb Code   140  serial.o(i._serial_int_rx)
    i._serial_int_tx                         0x080082f0   Section        0  serial.o(i._serial_int_tx)
    _serial_int_tx                           0x080082f1   Thumb Code    88  serial.o(i._serial_int_tx)
    i._serial_poll_rx                        0x08008360   Section        0  serial.o(i._serial_poll_rx)
    _serial_poll_rx                          0x08008361   Thumb Code    68  serial.o(i._serial_poll_rx)
    i._serial_poll_tx                        0x080083bc   Section        0  serial.o(i._serial_poll_tx)
    _serial_poll_tx                          0x080083bd   Thumb Code    74  serial.o(i._serial_poll_tx)
    i._spi_bus_device_control                0x08008410   Section        0  spi_dev.o(i._spi_bus_device_control)
    _spi_bus_device_control                  0x08008411   Thumb Code    20  spi_dev.o(i._spi_bus_device_control)
    i._spi_bus_device_read                   0x08008424   Section        0  spi_dev.o(i._spi_bus_device_read)
    _spi_bus_device_read                     0x08008425   Thumb Code    56  spi_dev.o(i._spi_bus_device_read)
    i._spi_bus_device_write                  0x08008488   Section        0  spi_dev.o(i._spi_bus_device_write)
    _spi_bus_device_write                    0x08008489   Thumb Code    56  spi_dev.o(i._spi_bus_device_write)
    i.bit2bitno                              0x080084ec   Section        0  drv_gpio.o(i.bit2bitno)
    bit2bitno                                0x080084ed   Thumb Code    30  drv_gpio.o(i.bit2bitno)
    i.bus_fault_track                        0x0800850c   Section        0  cpuport.o(i.bus_fault_track)
    bus_fault_track                          0x0800850d   Thumb Code   130  cpuport.o(i.bus_fault_track)
    i.cantimeout                             0x08008608   Section        0  can.o(i.cantimeout)
    cantimeout                               0x08008609   Thumb Code    66  can.o(i.cantimeout)
    i.clear                                  0x08008654   Section        0  cmd.o(i.clear)
    clear                                    0x08008655   Thumb Code    12  cmd.o(i.clear)
    i.cmd_canstat                            0x08008668   Section        0  can.o(i.cmd_canstat)
    i.cmd_free                               0x080087e8   Section        0  msh.o(i.cmd_free)
    i.cmd_ps                                 0x080087f6   Section        0  msh.o(i.cmd_ps)
    i.dma_isr                                0x08008804   Section        0  drv_usart.o(i.dma_isr)
    dma_isr                                  0x08008805   Thumb Code   112  drv_usart.o(i.dma_isr)
    i.drv_pwm_control                        0x0800888c   Section        0  drv_pwm.o(i.drv_pwm_control)
    drv_pwm_control                          0x0800888d   Thumb Code    84  drv_pwm.o(i.drv_pwm_control)
    i.drv_pwm_enable                         0x080088e0   Section        0  drv_pwm.o(i.drv_pwm_enable)
    drv_pwm_enable                           0x080088e1   Thumb Code    42  drv_pwm.o(i.drv_pwm_enable)
    i.drv_pwm_get                            0x0800890c   Section        0  drv_pwm.o(i.drv_pwm_get)
    drv_pwm_get                              0x0800890d   Thumb Code   246  drv_pwm.o(i.drv_pwm_get)
    i.drv_pwm_set                            0x08008a14   Section        0  drv_pwm.o(i.drv_pwm_set)
    drv_pwm_set                              0x08008a15   Thumb Code   318  drv_pwm.o(i.drv_pwm_set)
    i.finsh_get_prompt                       0x08008b64   Section        0  shell.o(i.finsh_get_prompt)
    i.finsh_getchar                          0x08008bd8   Section        0  shell.o(i.finsh_getchar)
    finsh_getchar                            0x08008bd9   Thumb Code    64  shell.o(i.finsh_getchar)
    i.finsh_rx_ind                           0x08008c34   Section        0  shell.o(i.finsh_rx_ind)
    finsh_rx_ind                             0x08008c35   Thumb Code    34  shell.o(i.finsh_rx_ind)
    i.finsh_set_device                       0x08008c74   Section        0  shell.o(i.finsh_set_device)
    i.finsh_set_prompt_mode                  0x08008d50   Section        0  shell.o(i.finsh_set_prompt_mode)
    i.finsh_system_function_init             0x08008d98   Section        0  shell.o(i.finsh_system_function_init)
    i.finsh_system_init                      0x08008dac   Section        0  shell.o(i.finsh_system_init)
    i.finsh_thread_entry                     0x08008e48   Section        0  shell.o(i.finsh_thread_entry)
    i.get_can_baud_index                     0x0800934c   Section        0  drv_can.o(i.get_can_baud_index)
    get_can_baud_index                       0x0800934d   Thumb Code    32  drv_can.o(i.get_can_baud_index)
    i.get_pin                                0x08009370   Section        0  drv_gpio.o(i.get_pin)
    get_pin                                  0x08009371   Thumb Code    30  drv_gpio.o(i.get_pin)
    i.hard_fault_track                       0x08009394   Section        0  cpuport.o(i.hard_fault_track)
    hard_fault_track                         0x08009395   Thumb Code    82  cpuport.o(i.hard_fault_track)
    i.hello                                  0x08009414   Section        0  cmd.o(i.hello)
    i.hw_pulse_encoder_init                  0x08009434   Section        0  drv_pulse_encoder.o(i.hw_pulse_encoder_init)
    i.list                                   0x080094fc   Section        0  cmd.o(i.list)
    i.list_device                            0x08009564   Section        0  cmd.o(i.list_device)
    i.list_event                             0x0800967c   Section        0  cmd.o(i.list_event)
    i.list_find_init                         0x080097c0   Section        0  cmd.o(i.list_find_init)
    list_find_init                           0x080097c1   Thumb Code    42  cmd.o(i.list_find_init)
    i.list_get_next                          0x080097ea   Section        0  cmd.o(i.list_get_next)
    list_get_next                            0x080097eb   Thumb Code   136  cmd.o(i.list_get_next)
    i.list_mailbox                           0x08009874   Section        0  cmd.o(i.list_mailbox)
    i.list_mem                               0x080099d0   Section        0  mem.o(i.list_mem)
    i.list_mempool                           0x08009a48   Section        0  cmd.o(i.list_mempool)
    i.list_msgqueue                          0x08009bbc   Section        0  cmd.o(i.list_msgqueue)
    i.list_mutex                             0x08009d00   Section        0  cmd.o(i.list_mutex)
    i.list_sem                               0x08009e0c   Section        0  cmd.o(i.list_sem)
    i.list_thread                            0x08009f44   Section        0  cmd.o(i.list_thread)
    i.list_timer                             0x0800a128   Section        0  cmd.o(i.list_timer)
    i.main                                   0x0800a288   Section        0  main.o(i.main)
    i.main_thread_entry                      0x0800a2a0   Section        0  components.o(i.main_thread_entry)
    i.mem_manage_fault_track                 0x0800a2b0   Section        0  cpuport.o(i.mem_manage_fault_track)
    mem_manage_fault_track                   0x0800a2b1   Thumb Code   114  cpuport.o(i.mem_manage_fault_track)
    i.msh_auto_complete                      0x0800a398   Section        0  msh.o(i.msh_auto_complete)
    i.msh_exec                               0x0800a438   Section        0  msh.o(i.msh_exec)
    i.msh_get_cmd                            0x0800a4a4   Section        0  msh.o(i.msh_get_cmd)
    msh_get_cmd                              0x0800a4a5   Thumb Code    76  msh.o(i.msh_get_cmd)
    i.msh_help                               0x0800a500   Section        0  msh.o(i.msh_help)
    i.msh_is_used                            0x0800a580   Section        0  msh.o(i.msh_is_used)
    i.msh_split                              0x0800a584   Section        0  msh.o(i.msh_split)
    msh_split                                0x0800a585   Thumb Code   202  msh.o(i.msh_split)
    i.object_split                           0x0800a674   Section        0  cmd.o(i.object_split)
    object_split                             0x0800a675   Thumb Code    22  cmd.o(i.object_split)
    i.plug_holes                             0x0800a690   Section        0  mem.o(i.plug_holes)
    plug_holes                               0x0800a691   Thumb Code   160  mem.o(i.plug_holes)
    i.print_number                           0x0800a79c   Section        0  kservice.o(i.print_number)
    print_number                             0x0800a79d   Thumb Code   400  kservice.o(i.print_number)
    i.pulse_encoder_clear_count              0x0800a934   Section        0  drv_pulse_encoder.o(i.pulse_encoder_clear_count)
    i.pulse_encoder_control                  0x0800a944   Section        0  drv_pulse_encoder.o(i.pulse_encoder_control)
    i.pulse_encoder_get_count                0x0800a996   Section        0  drv_pulse_encoder.o(i.pulse_encoder_get_count)
    i.pulse_encoder_init                     0x0800a9ac   Section        0  drv_pulse_encoder.o(i.pulse_encoder_init)
    i.pulse_encoder_update_isr               0x0800aacc   Section        0  drv_pulse_encoder.o(i.pulse_encoder_update_isr)
    i.pwm_disable                            0x0800ab80   Section        0  rt_drv_pwm.o(i.pwm_disable)
    pwm_disable                              0x0800ab81   Thumb Code    68  rt_drv_pwm.o(i.pwm_disable)
    i.pwm_enable                             0x0800abe0   Section        0  rt_drv_pwm.o(i.pwm_enable)
    pwm_enable                               0x0800abe1   Thumb Code    68  rt_drv_pwm.o(i.pwm_enable)
    i.pwm_get_channel                        0x0800ac40   Section        0  drv_pwm.o(i.pwm_get_channel)
    pwm_get_channel                          0x0800ac41   Thumb Code    18  drv_pwm.o(i.pwm_get_channel)
    i.pwm_set                                0x0800ac58   Section        0  rt_drv_pwm.o(i.pwm_set)
    pwm_set                                  0x0800ac59   Thumb Code    88  rt_drv_pwm.o(i.pwm_set)
    i.reboot                                 0x0800acd0   Section        0  drv_common.o(i.reboot)
    reboot                                   0x0800acd1   Thumb Code    12  drv_common.o(i.reboot)
    i.rt_application_init                    0x0800acdc   Section        0  components.o(i.rt_application_init)
    i.rt_assert_handler                      0x0800ad2c   Section        0  kservice.o(i.rt_assert_handler)
    i.rt_calloc                              0x0800ada0   Section        0  mem.o(i.rt_calloc)
    i.rt_can_close                           0x0800adc4   Section        0  can.o(i.rt_can_close)
    rt_can_close                             0x0800adc5   Thumb Code   238  can.o(i.rt_can_close)
    i.rt_can_control                         0x0800aef0   Section        0  can.o(i.rt_can_control)
    rt_can_control                           0x0800aef1   Thumb Code   330  can.o(i.rt_can_control)
    i.rt_can_init                            0x0800b050   Section        0  can.o(i.rt_can_init)
    rt_can_init                              0x0800b051   Thumb Code    60  can.o(i.rt_can_init)
    i.rt_can_open                            0x0800b0a0   Section        0  can.o(i.rt_can_open)
    rt_can_open                              0x0800b0a1   Thumb Code   434  can.o(i.rt_can_open)
    i.rt_can_read                            0x0800b298   Section        0  can.o(i.rt_can_read)
    rt_can_read                              0x0800b299   Thumb Code    66  can.o(i.rt_can_read)
    i.rt_can_write                           0x0800b2f0   Section        0  can.o(i.rt_can_write)
    rt_can_write                             0x0800b2f1   Thumb Code    88  can.o(i.rt_can_write)
    i.rt_completion_done                     0x0800b35c   Section        0  completion.o(i.rt_completion_done)
    i.rt_completion_init                     0x0800b3c4   Section        0  completion.o(i.rt_completion_init)
    i.rt_completion_wait                     0x0800b40c   Section        0  completion.o(i.rt_completion_wait)
    i.rt_components_board_init               0x0800b54c   Section        0  components.o(i.rt_components_board_init)
    i.rt_components_init                     0x0800b568   Section        0  components.o(i.rt_components_init)
    i.rt_console_get_device                  0x0800b584   Section        0  kservice.o(i.rt_console_get_device)
    i.rt_console_set_device                  0x0800b590   Section        0  kservice.o(i.rt_console_set_device)
    i.rt_data_queue_deinit                   0x0800b5c4   Section        0  dataqueue.o(i.rt_data_queue_deinit)
    i.rt_data_queue_init                     0x0800b648   Section        0  dataqueue.o(i.rt_data_queue_init)
    i.rt_data_queue_peak                     0x0800b6b4   Section        0  dataqueue.o(i.rt_data_queue_peak)
    i.rt_data_queue_pop                      0x0800b768   Section        0  dataqueue.o(i.rt_data_queue_pop)
    i.rt_data_queue_push                     0x0800b95c   Section        0  dataqueue.o(i.rt_data_queue_push)
    i.rt_data_queue_reset                    0x0800baf0   Section        0  dataqueue.o(i.rt_data_queue_reset)
    i.rt_device_close                        0x0800bb98   Section        0  device.o(i.rt_device_close)
    i.rt_device_control                      0x0800bc44   Section        0  device.o(i.rt_device_control)
    i.rt_device_find                         0x0800bcd8   Section        0  device.o(i.rt_device_find)
    i.rt_device_open                         0x0800bd54   Section        0  device.o(i.rt_device_open)
    i.rt_device_pin_register                 0x0800be9c   Section        0  pin.o(i.rt_device_pin_register)
    i.rt_device_pulse_encoder_register       0x0800bee4   Section        0  pulse_encoder.o(i.rt_device_pulse_encoder_register)
    i.rt_device_pwm_register                 0x0800bf90   Section        0  rt_drv_pwm.o(i.rt_device_pwm_register)
    i.rt_device_read                         0x0800bfe4   Section        0  device.o(i.rt_device_read)
    i.rt_device_register                     0x0800c098   Section        0  device.o(i.rt_device_register)
    i.rt_device_set_rx_indicate              0x0800c0cc   Section        0  device.o(i.rt_device_set_rx_indicate)
    i.rt_device_write                        0x0800c14c   Section        0  device.o(i.rt_device_write)
    i.rt_dma_calc_recved_len                 0x0800c200   Section        0  serial.o(i.rt_dma_calc_recved_len)
    rt_dma_calc_recved_len                   0x0800c201   Thumb Code    12  serial.o(i.rt_dma_calc_recved_len)
    i.rt_dma_recv_update_get_index           0x0800c20c   Section        0  serial.o(i.rt_dma_recv_update_get_index)
    rt_dma_recv_update_get_index             0x0800c20d   Thumb Code    92  serial.o(i.rt_dma_recv_update_get_index)
    i.rt_dma_recv_update_put_index           0x0800c2a8   Section        0  serial.o(i.rt_dma_recv_update_put_index)
    rt_dma_recv_update_put_index             0x0800c2a9   Thumb Code   144  serial.o(i.rt_dma_recv_update_put_index)
    i.rt_enter_critical                      0x0800c350   Section        0  scheduler.o(i.rt_enter_critical)
    i.rt_exit_critical                       0x0800c370   Section        0  scheduler.o(i.rt_exit_critical)
    i.rt_free                                0x0800c3b4   Section        0  mem.o(i.rt_free)
    i.rt_hw_board_init                       0x0800c5bc   Section        0  drv_common.o(i.rt_hw_board_init)
    i.rt_hw_can_init                         0x0800c608   Section        0  drv_can.o(i.rt_hw_can_init)
    i.rt_hw_can_isr                          0x0800c6b0   Section        0  can.o(i.rt_hw_can_isr)
    i.rt_hw_can_register                     0x0800c8b0   Section        0  can.o(i.rt_hw_can_register)
    i.rt_hw_console_output                   0x0800c97c   Section        0  kservice.o(i.rt_hw_console_output)
    i.rt_hw_cpu_reset                        0x0800c980   Section        0  cpuport.o(i.rt_hw_cpu_reset)
    i.rt_hw_hard_fault_exception             0x0800c990   Section        0  cpuport.o(i.rt_hw_hard_fault_exception)
    i.rt_hw_pin_init                         0x0800cbbc   Section        0  drv_gpio.o(i.rt_hw_pin_init)
    i.rt_hw_serial_isr                       0x0800cce8   Section        0  serial.o(i.rt_hw_serial_isr)
    i.rt_hw_serial_register                  0x0800cec8   Section        0  serial.o(i.rt_hw_serial_register)
    i.rt_hw_spi_bus_init                     0x0800cf48   Section        0  drv_spi.o(i.rt_hw_spi_bus_init)
    rt_hw_spi_bus_init                       0x0800cf49   Thumb Code   592  drv_spi.o(i.rt_hw_spi_bus_init)
    i.rt_hw_spi_init                         0x0800d1c0   Section        0  drv_spi.o(i.rt_hw_spi_init)
    i.rt_hw_stack_init                       0x0800d1cc   Section        0  cpuport.o(i.rt_hw_stack_init)
    i.rt_hw_systick_init                     0x0800d21c   Section        0  drv_common.o(i.rt_hw_systick_init)
    i.rt_hw_usart_init                       0x0800d244   Section        0  drv_usart.o(i.rt_hw_usart_init)
    i.rt_interrupt_enter                     0x0800d328   Section        0  irq.o(i.rt_interrupt_enter)
    i.rt_interrupt_get_nest                  0x0800d360   Section        0  irq.o(i.rt_interrupt_get_nest)
    i.rt_interrupt_leave                     0x0800d37c   Section        0  irq.o(i.rt_interrupt_leave)
    i.rt_ipc_list_resume                     0x0800d3b4   Section        0  ipc.o(i.rt_ipc_list_resume)
    rt_ipc_list_resume                       0x0800d3b5   Thumb Code    24  ipc.o(i.rt_ipc_list_resume)
    i.rt_ipc_list_resume_all                 0x0800d3cc   Section        0  ipc.o(i.rt_ipc_list_resume_all)
    rt_ipc_list_resume_all                   0x0800d3cd   Thumb Code    50  ipc.o(i.rt_ipc_list_resume_all)
    i.rt_ipc_list_suspend                    0x0800d3fe   Section        0  ipc.o(i.rt_ipc_list_suspend)
    rt_ipc_list_suspend                      0x0800d3ff   Thumb Code   110  ipc.o(i.rt_ipc_list_suspend)
    i.rt_ipc_object_init                     0x0800d46c   Section        0  ipc.o(i.rt_ipc_object_init)
    rt_ipc_object_init                       0x0800d46d   Thumb Code    16  ipc.o(i.rt_ipc_object_init)
    i.rt_kprintf                             0x0800d47c   Section        0  kservice.o(i.rt_kprintf)
    i.rt_list_init                           0x0800d4e4   Section        0  can.o(i.rt_list_init)
    rt_list_init                             0x0800d4e5   Thumb Code     6  can.o(i.rt_list_init)
    i.rt_list_init                           0x0800d4ea   Section        0  dataqueue.o(i.rt_list_init)
    rt_list_init                             0x0800d4eb   Thumb Code     6  dataqueue.o(i.rt_list_init)
    i.rt_list_init                           0x0800d4f0   Section        0  ipc.o(i.rt_list_init)
    rt_list_init                             0x0800d4f1   Thumb Code     6  ipc.o(i.rt_list_init)
    i.rt_list_init                           0x0800d4f6   Section        0  scheduler.o(i.rt_list_init)
    rt_list_init                             0x0800d4f7   Thumb Code     6  scheduler.o(i.rt_list_init)
    i.rt_list_init                           0x0800d4fc   Section        0  timer.o(i.rt_list_init)
    rt_list_init                             0x0800d4fd   Thumb Code     6  timer.o(i.rt_list_init)
    i.rt_list_insert_after                   0x0800d502   Section        0  object.o(i.rt_list_insert_after)
    rt_list_insert_after                     0x0800d503   Thumb Code    14  object.o(i.rt_list_insert_after)
    i.rt_list_insert_after                   0x0800d510   Section        0  thread.o(i.rt_list_insert_after)
    rt_list_insert_after                     0x0800d511   Thumb Code    14  thread.o(i.rt_list_insert_after)
    i.rt_list_insert_after                   0x0800d51e   Section        0  timer.o(i.rt_list_insert_after)
    rt_list_insert_after                     0x0800d51f   Thumb Code    14  timer.o(i.rt_list_insert_after)
    i.rt_list_insert_before                  0x0800d52c   Section        0  can.o(i.rt_list_insert_before)
    rt_list_insert_before                    0x0800d52d   Thumb Code    14  can.o(i.rt_list_insert_before)
    i.rt_list_insert_before                  0x0800d53a   Section        0  dataqueue.o(i.rt_list_insert_before)
    rt_list_insert_before                    0x0800d53b   Thumb Code    14  dataqueue.o(i.rt_list_insert_before)
    i.rt_list_insert_before                  0x0800d548   Section        0  ipc.o(i.rt_list_insert_before)
    rt_list_insert_before                    0x0800d549   Thumb Code    14  ipc.o(i.rt_list_insert_before)
    i.rt_list_isempty                        0x0800d556   Section        0  can.o(i.rt_list_isempty)
    rt_list_isempty                          0x0800d557   Thumb Code    16  can.o(i.rt_list_isempty)
    i.rt_list_isempty                        0x0800d566   Section        0  completion.o(i.rt_list_isempty)
    rt_list_isempty                          0x0800d567   Thumb Code    16  completion.o(i.rt_list_isempty)
    i.rt_list_isempty                        0x0800d576   Section        0  dataqueue.o(i.rt_list_isempty)
    rt_list_isempty                          0x0800d577   Thumb Code    16  dataqueue.o(i.rt_list_isempty)
    i.rt_list_isempty                        0x0800d586   Section        0  cmd.o(i.rt_list_isempty)
    rt_list_isempty                          0x0800d587   Thumb Code    16  cmd.o(i.rt_list_isempty)
    i.rt_list_isempty                        0x0800d596   Section        0  ipc.o(i.rt_list_isempty)
    rt_list_isempty                          0x0800d597   Thumb Code    16  ipc.o(i.rt_list_isempty)
    i.rt_list_isempty                        0x0800d5a6   Section        0  timer.o(i.rt_list_isempty)
    rt_list_isempty                          0x0800d5a7   Thumb Code    16  timer.o(i.rt_list_isempty)
    i.rt_list_len                            0x0800d5b6   Section        0  cmd.o(i.rt_list_len)
    rt_list_len                              0x0800d5b7   Thumb Code    20  cmd.o(i.rt_list_len)
    i.rt_list_remove                         0x0800d5ca   Section        0  can.o(i.rt_list_remove)
    rt_list_remove                           0x0800d5cb   Thumb Code    18  can.o(i.rt_list_remove)
    i.rt_list_remove                         0x0800d5dc   Section        0  object.o(i.rt_list_remove)
    rt_list_remove                           0x0800d5dd   Thumb Code    18  object.o(i.rt_list_remove)
    i.rt_list_remove                         0x0800d5ee   Section        0  thread.o(i.rt_list_remove)
    rt_list_remove                           0x0800d5ef   Thumb Code    18  thread.o(i.rt_list_remove)
    i.rt_malloc                              0x0800d600   Section        0  mem.o(i.rt_malloc)
    i.rt_memcpy                              0x0800d8bc   Section        0  kservice.o(i.rt_memcpy)
    i.rt_memmove                             0x0800d938   Section        0  kservice.o(i.rt_memmove)
    i.rt_memset                              0x0800d97a   Section        0  kservice.o(i.rt_memset)
    i.rt_mutex_init                          0x0800d9c4   Section        0  ipc.o(i.rt_mutex_init)
    i.rt_mutex_release                       0x0800da18   Section        0  ipc.o(i.rt_mutex_release)
    i.rt_mutex_take                          0x0800dbc8   Section        0  ipc.o(i.rt_mutex_take)
    i.rt_object_allocate                     0x0800ddb4   Section        0  object.o(i.rt_object_allocate)
    i.rt_object_delete                       0x0800dea0   Section        0  object.o(i.rt_object_delete)
    i.rt_object_detach                       0x0800df40   Section        0  object.o(i.rt_object_detach)
    i.rt_object_get_information              0x0800df9c   Section        0  object.o(i.rt_object_get_information)
    i.rt_object_get_type                     0x0800dfc4   Section        0  object.o(i.rt_object_get_type)
    i.rt_object_init                         0x0800dff8   Section        0  object.o(i.rt_object_init)
    i.rt_object_is_systemobject              0x0800e0b4   Section        0  object.o(i.rt_object_is_systemobject)
    i.rt_pin_mode                            0x0800e0f0   Section        0  pin.o(i.rt_pin_mode)
    i.rt_pin_read                            0x0800e138   Section        0  pin.o(i.rt_pin_read)
    i.rt_pin_write                           0x0800e17c   Section        0  pin.o(i.rt_pin_write)
    i.rt_pulse_encoder_close                 0x0800e1c4   Section        0  pulse_encoder.o(i.rt_pulse_encoder_close)
    rt_pulse_encoder_close                   0x0800e1c5   Thumb Code    32  pulse_encoder.o(i.rt_pulse_encoder_close)
    i.rt_pulse_encoder_control               0x0800e1e4   Section        0  pulse_encoder.o(i.rt_pulse_encoder_control)
    rt_pulse_encoder_control                 0x0800e1e5   Thumb Code    84  pulse_encoder.o(i.rt_pulse_encoder_control)
    i.rt_pulse_encoder_init                  0x0800e238   Section        0  pulse_encoder.o(i.rt_pulse_encoder_init)
    rt_pulse_encoder_init                    0x0800e239   Thumb Code    28  pulse_encoder.o(i.rt_pulse_encoder_init)
    i.rt_pulse_encoder_open                  0x0800e254   Section        0  pulse_encoder.o(i.rt_pulse_encoder_open)
    rt_pulse_encoder_open                    0x0800e255   Thumb Code    34  pulse_encoder.o(i.rt_pulse_encoder_open)
    i.rt_pulse_encoder_read                  0x0800e276   Section        0  pulse_encoder.o(i.rt_pulse_encoder_read)
    rt_pulse_encoder_read                    0x0800e277   Thumb Code    36  pulse_encoder.o(i.rt_pulse_encoder_read)
    i.rt_pwm_disable                         0x0800e29a   Section        0  rt_drv_pwm.o(i.rt_pwm_disable)
    i.rt_pwm_enable                          0x0800e2c4   Section        0  rt_drv_pwm.o(i.rt_pwm_enable)
    i.rt_pwm_set                             0x0800e2ee   Section        0  rt_drv_pwm.o(i.rt_pwm_set)
    i.rt_schedule                            0x0800e328   Section        0  scheduler.o(i.rt_schedule)
    i.rt_schedule_insert_thread              0x0800e46c   Section        0  scheduler.o(i.rt_schedule_insert_thread)
    i.rt_schedule_remove_thread              0x0800e508   Section        0  scheduler.o(i.rt_schedule_remove_thread)
    i.rt_sem_control                         0x0800e588   Section        0  ipc.o(i.rt_sem_control)
    i.rt_sem_detach                          0x0800e5fc   Section        0  ipc.o(i.rt_sem_detach)
    i.rt_sem_init                            0x0800e68c   Section        0  ipc.o(i.rt_sem_init)
    i.rt_sem_release                         0x0800e6f8   Section        0  ipc.o(i.rt_sem_release)
    i.rt_sem_take                            0x0800e788   Section        0  ipc.o(i.rt_sem_take)
    i.rt_serial_close                        0x0800e92c   Section        0  serial.o(i.rt_serial_close)
    rt_serial_close                          0x0800e92d   Thumb Code   326  serial.o(i.rt_serial_close)
    i.rt_serial_control                      0x0800ead8   Section        0  serial.o(i.rt_serial_control)
    rt_serial_control                        0x0800ead9   Thumb Code   144  serial.o(i.rt_serial_control)
    i.rt_serial_init                         0x0800eb7c   Section        0  serial.o(i.rt_serial_init)
    rt_serial_init                           0x0800eb7d   Thumb Code    52  serial.o(i.rt_serial_init)
    i.rt_serial_open                         0x0800ebc4   Section        0  serial.o(i.rt_serial_open)
    rt_serial_open                           0x0800ebc5   Thumb Code   582  serial.o(i.rt_serial_open)
    i.rt_serial_read                         0x0800ee70   Section        0  serial.o(i.rt_serial_read)
    rt_serial_read                           0x0800ee71   Thumb Code    88  serial.o(i.rt_serial_read)
    i.rt_serial_write                        0x0800eedc   Section        0  serial.o(i.rt_serial_write)
    rt_serial_write                          0x0800eedd   Thumb Code    88  serial.o(i.rt_serial_write)
    i.rt_set_errno                           0x0800ef48   Section        0  kservice.o(i.rt_set_errno)
    i.rt_show_version                        0x0800ef70   Section        0  kservice.o(i.rt_show_version)
    i.rt_spi_bus_device_init                 0x0800f020   Section        0  spi_dev.o(i.rt_spi_bus_device_init)
    i.rt_spi_bus_register                    0x0800f078   Section        0  spi_core.o(i.rt_spi_bus_register)
    i.rt_spi_transfer                        0x0800f0b0   Section        0  spi_core.o(i.rt_spi_transfer)
    i.rt_sprintf                             0x0800f1a8   Section        0  kservice.o(i.rt_sprintf)
    i.rt_strlen                              0x0800f1ca   Section        0  kservice.o(i.rt_strlen)
    i.rt_strncmp                             0x0800f1dc   Section        0  kservice.o(i.rt_strncmp)
    i.rt_strncpy                             0x0800f204   Section        0  kservice.o(i.rt_strncpy)
    i.rt_system_heap_init                    0x0800f238   Section        0  mem.o(i.rt_system_heap_init)
    i.rt_system_scheduler_init               0x0800f38c   Section        0  scheduler.o(i.rt_system_scheduler_init)
    i.rt_system_scheduler_start              0x0800f3cc   Section        0  scheduler.o(i.rt_system_scheduler_start)
    i.rt_system_timer_init                   0x0800f3f4   Section        0  timer.o(i.rt_system_timer_init)
    i.rt_system_timer_thread_init            0x0800f410   Section        0  timer.o(i.rt_system_timer_thread_init)
    i.rt_thread_control                      0x0800f414   Section        0  thread.o(i.rt_thread_control)
    i.rt_thread_create                       0x0800f4cc   Section        0  thread.o(i.rt_thread_create)
    i.rt_thread_delete                       0x0800f51c   Section        0  thread.o(i.rt_thread_delete)
    i.rt_thread_exit                         0x0800f5fc   Section        0  thread.o(i.rt_thread_exit)
    i.rt_thread_idle_entry                   0x0800f650   Section        0  idle.o(i.rt_thread_idle_entry)
    rt_thread_idle_entry                     0x0800f651   Thumb Code    36  idle.o(i.rt_thread_idle_entry)
    i.rt_thread_idle_excute                  0x0800f678   Section        0  idle.o(i.rt_thread_idle_excute)
    i.rt_thread_idle_init                    0x0800f75c   Section        0  idle.o(i.rt_thread_idle_init)
    i.rt_thread_init                         0x0800f7bc   Section        0  thread.o(i.rt_thread_init)
    i.rt_thread_mdelay                       0x0800f838   Section        0  thread.o(i.rt_thread_mdelay)
    i.rt_thread_resume                       0x0800f84c   Section        0  thread.o(i.rt_thread_resume)
    i.rt_thread_self                         0x0800f8e8   Section        0  thread.o(i.rt_thread_self)
    i.rt_thread_sleep                        0x0800f8f4   Section        0  thread.o(i.rt_thread_sleep)
    i.rt_thread_startup                      0x0800f974   Section        0  thread.o(i.rt_thread_startup)
    i.rt_thread_suspend                      0x0800fa38   Section        0  thread.o(i.rt_thread_suspend)
    i.rt_thread_timeout                      0x0800fb14   Section        0  thread.o(i.rt_thread_timeout)
    i.rt_thread_yield                        0x0800fbc8   Section        0  thread.o(i.rt_thread_yield)
    i.rt_tick_from_millisecond               0x0800fbd2   Section        0  clock.o(i.rt_tick_from_millisecond)
    i.rt_tick_get                            0x0800fc0c   Section        0  clock.o(i.rt_tick_get)
    i.rt_tick_increase                       0x0800fc18   Section        0  clock.o(i.rt_tick_increase)
    i.rt_timer_check                         0x0800fc54   Section        0  timer.o(i.rt_timer_check)
    i.rt_timer_control                       0x0800fd08   Section        0  timer.o(i.rt_timer_control)
    i.rt_timer_detach                        0x0800fdd4   Section        0  timer.o(i.rt_timer_detach)
    i.rt_timer_init                          0x0800fea8   Section        0  timer.o(i.rt_timer_init)
    i.rt_timer_start                         0x0800fefc   Section        0  timer.o(i.rt_timer_start)
    i.rt_timer_stop                          0x080100bc   Section        0  timer.o(i.rt_timer_stop)
    i.rt_vsnprintf                           0x0801017c   Section        0  kservice.o(i.rt_vsnprintf)
    i.rt_vsprintf                            0x080104ac   Section        0  kservice.o(i.rt_vsprintf)
    i.rti_board_end                          0x080104c2   Section        0  components.o(i.rti_board_end)
    rti_board_end                            0x080104c3   Thumb Code     4  components.o(i.rti_board_end)
    i.rti_board_start                        0x080104c6   Section        0  components.o(i.rti_board_start)
    rti_board_start                          0x080104c7   Thumb Code     4  components.o(i.rti_board_start)
    i.rti_end                                0x080104ca   Section        0  components.o(i.rti_end)
    rti_end                                  0x080104cb   Thumb Code     4  components.o(i.rti_end)
    i.rti_start                              0x080104ce   Section        0  components.o(i.rti_start)
    rti_start                                0x080104cf   Thumb Code     4  components.o(i.rti_start)
    i.rtthread_startup                       0x080104d2   Section        0  components.o(i.rtthread_startup)
    i.shell_auto_complete                    0x080104fc   Section        0  shell.o(i.shell_auto_complete)
    shell_auto_complete                      0x080104fd   Thumb Code    42  shell.o(i.shell_auto_complete)
    i.shell_handle_history                   0x08010534   Section        0  shell.o(i.shell_handle_history)
    shell_handle_history                     0x08010535   Thumb Code    32  shell.o(i.shell_handle_history)
    i.shell_push_history                     0x08010564   Section        0  shell.o(i.shell_push_history)
    shell_push_history                       0x08010565   Thumb Code   216  shell.o(i.shell_push_history)
    i.show_wait_queue                        0x0801063c   Section        0  cmd.o(i.show_wait_queue)
    show_wait_queue                          0x0801063d   Thumb Code    40  cmd.o(i.show_wait_queue)
    i.skip_atoi                              0x0801066c   Section        0  kservice.o(i.skip_atoi)
    skip_atoi                                0x0801066d   Thumb Code    38  kservice.o(i.skip_atoi)
    i.spi_configure                          0x08010694   Section        0  drv_spi.o(i.spi_configure)
    spi_configure                            0x08010695   Thumb Code    52  drv_spi.o(i.spi_configure)
    i.spixfer                                0x080106fc   Section        0  drv_spi.o(i.spixfer)
    spixfer                                  0x080106fd   Thumb Code   412  drv_spi.o(i.spixfer)
    i.stm32_configure                        0x0801093c   Section        0  drv_usart.o(i.stm32_configure)
    stm32_configure                          0x0801093d   Thumb Code   196  drv_usart.o(i.stm32_configure)
    i.stm32_control                          0x08010a28   Section        0  drv_usart.o(i.stm32_control)
    stm32_control                            0x08010a29   Thumb Code   178  drv_usart.o(i.stm32_control)
    i.stm32_dma_config                       0x08010af8   Section        0  drv_usart.o(i.stm32_dma_config)
    stm32_dma_config                         0x08010af9   Thumb Code   340  drv_usart.o(i.stm32_dma_config)
    i.stm32_dma_transmit                     0x08010c6c   Section        0  drv_usart.o(i.stm32_dma_transmit)
    stm32_dma_transmit                       0x08010c6d   Thumb Code    64  drv_usart.o(i.stm32_dma_transmit)
    i.stm32_get_dma_info                     0x08010cc4   Section        0  drv_spi.o(i.stm32_get_dma_info)
    stm32_get_dma_info                       0x08010cc5   Thumb Code     2  drv_spi.o(i.stm32_get_dma_info)
    i.stm32_getc                             0x08010cc8   Section        0  drv_usart.o(i.stm32_getc)
    stm32_getc                               0x08010cc9   Thumb Code    44  drv_usart.o(i.stm32_getc)
    i.stm32_hw_pwm_init                      0x08010d0c   Section        0  drv_pwm.o(i.stm32_hw_pwm_init)
    stm32_hw_pwm_init                        0x08010d0d   Thumb Code   492  drv_pwm.o(i.stm32_hw_pwm_init)
    i.stm32_pin_attach_irq                   0x08010ffc   Section        0  drv_gpio.o(i.stm32_pin_attach_irq)
    stm32_pin_attach_irq                     0x08010ffd   Thumb Code   216  drv_gpio.o(i.stm32_pin_attach_irq)
    i.stm32_pin_dettach_irq                  0x080110d8   Section        0  drv_gpio.o(i.stm32_pin_dettach_irq)
    stm32_pin_dettach_irq                    0x080110d9   Thumb Code   134  drv_gpio.o(i.stm32_pin_dettach_irq)
    i.stm32_pin_irq_enable                   0x08011164   Section        0  drv_gpio.o(i.stm32_pin_irq_enable)
    stm32_pin_irq_enable                     0x08011165   Thumb Code   374  drv_gpio.o(i.stm32_pin_irq_enable)
    i.stm32_pin_mode                         0x080112f4   Section        0  drv_gpio.o(i.stm32_pin_mode)
    stm32_pin_mode                           0x080112f5   Thumb Code   116  drv_gpio.o(i.stm32_pin_mode)
    i.stm32_pin_read                         0x08011368   Section        0  drv_gpio.o(i.stm32_pin_read)
    stm32_pin_read                           0x08011369   Thumb Code    42  drv_gpio.o(i.stm32_pin_read)
    i.stm32_pin_write                        0x08011392   Section        0  drv_gpio.o(i.stm32_pin_write)
    stm32_pin_write                          0x08011393   Thumb Code    40  drv_gpio.o(i.stm32_pin_write)
    i.stm32_putc                             0x080113bc   Section        0  drv_usart.o(i.stm32_putc)
    stm32_putc                               0x080113bd   Thumb Code    52  drv_usart.o(i.stm32_putc)
    i.stm32_pwm_init                         0x08011408   Section        0  drv_pwm.o(i.stm32_pwm_init)
    stm32_pwm_init                           0x08011409   Thumb Code   190  drv_pwm.o(i.stm32_pwm_init)
    i.stm32_spi_init                         0x08011510   Section        0  drv_spi.o(i.stm32_spi_init)
    stm32_spi_init                           0x08011511   Thumb Code   452  drv_spi.o(i.stm32_spi_init)
    i.stm32_uart_get_dma_config              0x080116fc   Section        0  drv_usart.o(i.stm32_uart_get_dma_config)
    stm32_uart_get_dma_config                0x080116fd   Thumb Code   122  drv_usart.o(i.stm32_uart_get_dma_config)
    i.str_common                             0x08011790   Section        0  msh.o(i.str_common)
    str_common                               0x08011791   Thumb Code    32  msh.o(i.str_common)
    i.uart_isr                               0x080117b0   Section        0  drv_usart.o(i.uart_isr)
    uart_isr                                 0x080117b1   Thumb Code   408  drv_usart.o(i.uart_isr)
    i.usage_fault_track                      0x08011960   Section        0  cpuport.o(i.usage_fault_track)
    usage_fault_track                        0x08011961   Thumb Code   122  cpuport.o(i.usage_fault_track)
    i.version                                0x08011a48   Section        0  cmd.o(i.version)
    locale$$code                             0x08011a54   Section       44  lc_ctype_c.o(locale$$code)
    x$fpl$dcmpinf                            0x08011a80   Section       24  dcmpi.o(x$fpl$dcmpinf)
    $v0                                      0x08011a80   Number         0  dcmpi.o(x$fpl$dcmpinf)
    x$fpl$dleqf                              0x08011a98   Section      120  dleqf.o(x$fpl$dleqf)
    $v0                                      0x08011a98   Number         0  dleqf.o(x$fpl$dleqf)
    x$fpl$dnaninf                            0x08011b10   Section      156  dnaninf.o(x$fpl$dnaninf)
    $v0                                      0x08011b10   Number         0  dnaninf.o(x$fpl$dnaninf)
    x$fpl$dretinf                            0x08011bac   Section       12  dretinf.o(x$fpl$dretinf)
    $v0                                      0x08011bac   Number         0  dretinf.o(x$fpl$dretinf)
    x$fpl$f2d                                0x08011bb8   Section       86  f2d.o(x$fpl$f2d)
    $v0                                      0x08011bb8   Number         0  f2d.o(x$fpl$f2d)
    x$fpl$fnaninf                            0x08011c0e   Section      140  fnaninf.o(x$fpl$fnaninf)
    $v0                                      0x08011c0e   Number         0  fnaninf.o(x$fpl$fnaninf)
    x$fpl$fpinit                             0x08011c9a   Section       10  fpinit.o(x$fpl$fpinit)
    $v0                                      0x08011c9a   Number         0  fpinit.o(x$fpl$fpinit)
    .constdata                               0x08011ca4   Section       27  module_djic610620group.o(.constdata)
    x$fpl$usenofp                            0x08011ca4   Section        0  usenofp.o(x$fpl$usenofp)
    __FUNCTION__                             0x08011ca4   Data          27  module_djic610620group.o(.constdata)
    .constdata                               0x08011cc0   Section        8  module_uartcom.o(.constdata)
    .constdata                               0x08011cc8   Section        8  module_uarthmi.o(.constdata)
    .constdata                               0x08011cd0   Section      162  can.o(.constdata)
    __FUNCTION__                             0x08011cd0   Data          12  can.o(.constdata)
    __FUNCTION__                             0x08011cdc   Data          12  can.o(.constdata)
    __FUNCTION__                             0x08011ce8   Data          12  can.o(.constdata)
    __FUNCTION__                             0x08011cf4   Data          17  can.o(.constdata)
    __FUNCTION__                             0x08011d05   Data          12  can.o(.constdata)
    __FUNCTION__                             0x08011d11   Data          13  can.o(.constdata)
    __FUNCTION__                             0x08011d1e   Data          12  can.o(.constdata)
    __FUNCTION__                             0x08011d2a   Data          13  can.o(.constdata)
    __FUNCTION__                             0x08011d37   Data          15  can.o(.constdata)
    __FUNCTION__                             0x08011d46   Data          11  can.o(.constdata)
    __FUNCTION__                             0x08011d51   Data          19  can.o(.constdata)
    __FUNCTION__                             0x08011d64   Data          14  can.o(.constdata)
    .constdata                               0x08011d72   Section      125  pin.o(.constdata)
    __FUNCTION__                             0x08011d72   Data          10  pin.o(.constdata)
    __FUNCTION__                             0x08011d7c   Data          11  pin.o(.constdata)
    __FUNCTION__                             0x08011d87   Data          13  pin.o(.constdata)
    __FUNCTION__                             0x08011d94   Data          18  pin.o(.constdata)
    __FUNCTION__                             0x08011da6   Data          18  pin.o(.constdata)
    __FUNCTION__                             0x08011db8   Data          18  pin.o(.constdata)
    __FUNCTION__                             0x08011dca   Data          12  pin.o(.constdata)
    __FUNCTION__                             0x08011dd6   Data          13  pin.o(.constdata)
    __FUNCTION__                             0x08011de3   Data          12  pin.o(.constdata)
    .constdata                               0x08011def   Section       33  pulse_encoder.o(.constdata)
    __FUNCTION__                             0x08011def   Data          33  pulse_encoder.o(.constdata)
    .constdata                               0x08011e10   Section      298  serial.o(.constdata)
    __FUNCTION__                             0x08011e10   Data          16  serial.o(.constdata)
    __FUNCTION__                             0x08011e20   Data          16  serial.o(.constdata)
    __FUNCTION__                             0x08011e30   Data          15  serial.o(.constdata)
    __FUNCTION__                             0x08011e3f   Data          15  serial.o(.constdata)
    __FUNCTION__                             0x08011e4e   Data          29  serial.o(.constdata)
    __FUNCTION__                             0x08011e6b   Data          29  serial.o(.constdata)
    __FUNCTION__                             0x08011e88   Data          29  serial.o(.constdata)
    __FUNCTION__                             0x08011ea5   Data          15  serial.o(.constdata)
    __FUNCTION__                             0x08011eb4   Data          15  serial.o(.constdata)
    __FUNCTION__                             0x08011ec3   Data          15  serial.o(.constdata)
    __FUNCTION__                             0x08011ed2   Data          16  serial.o(.constdata)
    __FUNCTION__                             0x08011ee2   Data          15  serial.o(.constdata)
    __FUNCTION__                             0x08011ef1   Data          16  serial.o(.constdata)
    __FUNCTION__                             0x08011f01   Data          18  serial.o(.constdata)
    __FUNCTION__                             0x08011f13   Data          22  serial.o(.constdata)
    __FUNCTION__                             0x08011f29   Data          17  serial.o(.constdata)
    .constdata                               0x08011f3a   Section      163  spi_core.o(.constdata)
    __FUNCTION__                             0x08011f3a   Data          17  spi_core.o(.constdata)
    __FUNCTION__                             0x08011f4b   Data          22  spi_core.o(.constdata)
    __FUNCTION__                             0x08011f61   Data          22  spi_core.o(.constdata)
    __FUNCTION__                             0x08011f77   Data          16  spi_core.o(.constdata)
    __FUNCTION__                             0x08011f87   Data          24  spi_core.o(.constdata)
    __FUNCTION__                             0x08011f9f   Data          16  spi_core.o(.constdata)
    __FUNCTION__                             0x08011faf   Data          19  spi_core.o(.constdata)
    __FUNCTION__                             0x08011fc2   Data          12  spi_core.o(.constdata)
    __FUNCTION__                             0x08011fce   Data          15  spi_core.o(.constdata)
    .constdata                               0x08011fdd   Section      129  spi_dev.o(.constdata)
    __FUNCTION__                             0x08011fdd   Data          21  spi_dev.o(.constdata)
    __FUNCTION__                             0x08011ff2   Data          22  spi_dev.o(.constdata)
    __FUNCTION__                             0x08012008   Data          23  spi_dev.o(.constdata)
    __FUNCTION__                             0x0801201f   Data          20  spi_dev.o(.constdata)
    __FUNCTION__                             0x08012033   Data          21  spi_dev.o(.constdata)
    __FUNCTION__                             0x08012048   Data          22  spi_dev.o(.constdata)
    .constdata                               0x0801205e   Section       57  completion.o(.constdata)
    __FUNCTION__                             0x0801205e   Data          19  completion.o(.constdata)
    __FUNCTION__                             0x08012071   Data          19  completion.o(.constdata)
    __FUNCTION__                             0x08012084   Data          19  completion.o(.constdata)
    .constdata                               0x08012097   Section      116  dataqueue.o(.constdata)
    __FUNCTION__                             0x08012097   Data          19  dataqueue.o(.constdata)
    __FUNCTION__                             0x080120aa   Data          19  dataqueue.o(.constdata)
    __FUNCTION__                             0x080120bd   Data          18  dataqueue.o(.constdata)
    __FUNCTION__                             0x080120cf   Data          19  dataqueue.o(.constdata)
    __FUNCTION__                             0x080120e2   Data          20  dataqueue.o(.constdata)
    __FUNCTION__                             0x080120f6   Data          21  dataqueue.o(.constdata)
    .constdata                               0x0801210c   Section     1816  drv_gpio.o(.constdata)
    pins                                     0x0801210c   Data        1728  drv_gpio.o(.constdata)
    pin_irq_map                              0x080127cc   Data          64  drv_gpio.o(.constdata)
    _stm32_pin_ops                           0x0801280c   Data          24  drv_gpio.o(.constdata)
    .constdata                               0x08012824   Section      252  drv_usart.o(.constdata)
    stm32_uart_ops                           0x08012824   Data          20  drv_usart.o(.constdata)
    __FUNCTION__                             0x08012838   Data          16  drv_usart.o(.constdata)
    __FUNCTION__                             0x08012848   Data          14  drv_usart.o(.constdata)
    __FUNCTION__                             0x08012856   Data          11  drv_usart.o(.constdata)
    __FUNCTION__                             0x08012861   Data          11  drv_usart.o(.constdata)
    __FUNCTION__                             0x0801286c   Data          19  drv_usart.o(.constdata)
    __FUNCTION__                             0x0801287f   Data           9  drv_usart.o(.constdata)
    __FUNCTION__                             0x08012888   Data           8  drv_usart.o(.constdata)
    __FUNCTION__                             0x08012890   Data          17  drv_usart.o(.constdata)
    __FUNCTION__                             0x080128a1   Data          23  drv_usart.o(.constdata)
    __FUNCTION__                             0x080128b8   Data          24  drv_usart.o(.constdata)
    __FUNCTION__                             0x080128d0   Data          28  drv_usart.o(.constdata)
    __FUNCTION__                             0x080128ec   Data          24  drv_usart.o(.constdata)
    __FUNCTION__                             0x08012904   Data          17  drv_usart.o(.constdata)
    .constdata                               0x08012920   Section       18  drv_pwm.o(.constdata)
    __FUNCTION__                             0x08012920   Data          18  drv_pwm.o(.constdata)
    .constdata                               0x08012934   Section       88  drv_spi.o(.constdata)
    stm_spi_ops                              0x08012934   Data           8  drv_spi.o(.constdata)
    __FUNCTION__                             0x0801293c   Data          15  drv_spi.o(.constdata)
    __FUNCTION__                             0x0801294b   Data           8  drv_spi.o(.constdata)
    __FUNCTION__                             0x08012953   Data          14  drv_spi.o(.constdata)
    __FUNCTION__                             0x08012961   Data          19  drv_spi.o(.constdata)
    __FUNCTION__                             0x08012974   Data          24  drv_spi.o(.constdata)
    .constdata                               0x0801298c   Section      172  drv_can.o(.constdata)
    can_baud_rate_tab                        0x0801298c   Data          72  drv_can.o(.constdata)
    _can_ops                                 0x080129d4   Data          16  drv_can.o(.constdata)
    __FUNCTION__                             0x080129e4   Data          12  drv_can.o(.constdata)
    __FUNCTION__                             0x080129f0   Data          13  drv_can.o(.constdata)
    __FUNCTION__                             0x080129fd   Data          13  drv_can.o(.constdata)
    __FUNCTION__                             0x08012a0a   Data          13  drv_can.o(.constdata)
    __FUNCTION__                             0x08012a17   Data          12  drv_can.o(.constdata)
    .constdata                               0x08012a38   Section       16  drv_pulse_encoder.o(.constdata)
    _ops                                     0x08012a38   Data          16  drv_pulse_encoder.o(.constdata)
    .constdata                               0x08012a48   Section      135  shell.o(.constdata)
    __FUNCTION__                             0x08012a48   Data          22  shell.o(.constdata)
    __FUNCTION__                             0x08012a5e   Data          22  shell.o(.constdata)
    __FUNCTION__                             0x08012a74   Data          14  shell.o(.constdata)
    __FUNCTION__                             0x08012a82   Data          13  shell.o(.constdata)
    __FUNCTION__                             0x08012a8f   Data          17  shell.o(.constdata)
    __FUNCTION__                             0x08012aa0   Data          17  shell.o(.constdata)
    __FUNCTION__                             0x08012ab1   Data          15  shell.o(.constdata)
    __FUNCTION__                             0x08012ac0   Data          15  shell.o(.constdata)
    .constdata                               0x08012ad0   Section       88  cmd.o(.constdata)
    device_type_str                          0x08012ad0   Data          88  cmd.o(.constdata)
    .constdata                               0x08012b28   Section       14  msh.o(.constdata)
    __FUNCTION__                             0x08012b28   Data          14  msh.o(.constdata)
    .constdata                               0x08012b36   Section       20  components.o(.constdata)
    __FUNCTION__                             0x08012b36   Data          20  components.o(.constdata)
    .constdata                               0x08012b4a   Section      201  device.o(.constdata)
    __FUNCTION__                             0x08012b4a   Data          21  device.o(.constdata)
    __FUNCTION__                             0x08012b5f   Data          15  device.o(.constdata)
    __FUNCTION__                             0x08012b6e   Data          18  device.o(.constdata)
    __FUNCTION__                             0x08012b80   Data          15  device.o(.constdata)
    __FUNCTION__                             0x08012b8f   Data          15  device.o(.constdata)
    __FUNCTION__                             0x08012b9e   Data          16  device.o(.constdata)
    __FUNCTION__                             0x08012bae   Data          15  device.o(.constdata)
    __FUNCTION__                             0x08012bbd   Data          16  device.o(.constdata)
    __FUNCTION__                             0x08012bcd   Data          18  device.o(.constdata)
    __FUNCTION__                             0x08012bdf   Data          26  device.o(.constdata)
    __FUNCTION__                             0x08012bf9   Data          26  device.o(.constdata)
    .constdata                               0x08012c13   Section       22  idle.o(.constdata)
    __FUNCTION__                             0x08012c13   Data          22  idle.o(.constdata)
    .constdata                               0x08012c29   Section      508  ipc.o(.constdata)
    __FUNCTION__                             0x08012c29   Data          12  ipc.o(.constdata)
    __FUNCTION__                             0x08012c35   Data          14  ipc.o(.constdata)
    __FUNCTION__                             0x08012c43   Data          14  ipc.o(.constdata)
    __FUNCTION__                             0x08012c51   Data          14  ipc.o(.constdata)
    __FUNCTION__                             0x08012c5f   Data          12  ipc.o(.constdata)
    __FUNCTION__                             0x08012c6b   Data          15  ipc.o(.constdata)
    __FUNCTION__                             0x08012c7a   Data          15  ipc.o(.constdata)
    __FUNCTION__                             0x08012c89   Data          14  ipc.o(.constdata)
    __FUNCTION__                             0x08012c97   Data          16  ipc.o(.constdata)
    __FUNCTION__                             0x08012ca7   Data          16  ipc.o(.constdata)
    __FUNCTION__                             0x08012cb7   Data          16  ipc.o(.constdata)
    __FUNCTION__                             0x08012cc7   Data          14  ipc.o(.constdata)
    __FUNCTION__                             0x08012cd5   Data          17  ipc.o(.constdata)
    __FUNCTION__                             0x08012ce6   Data          17  ipc.o(.constdata)
    __FUNCTION__                             0x08012cf7   Data          14  ipc.o(.constdata)
    __FUNCTION__                             0x08012d05   Data          16  ipc.o(.constdata)
    __FUNCTION__                             0x08012d15   Data          16  ipc.o(.constdata)
    __FUNCTION__                             0x08012d25   Data          16  ipc.o(.constdata)
    __FUNCTION__                             0x08012d35   Data          14  ipc.o(.constdata)
    __FUNCTION__                             0x08012d43   Data          14  ipc.o(.constdata)
    __FUNCTION__                             0x08012d51   Data          17  ipc.o(.constdata)
    __FUNCTION__                             0x08012d62   Data          11  ipc.o(.constdata)
    __FUNCTION__                             0x08012d6d   Data          13  ipc.o(.constdata)
    __FUNCTION__                             0x08012d7a   Data          13  ipc.o(.constdata)
    __FUNCTION__                             0x08012d87   Data          13  ipc.o(.constdata)
    __FUNCTION__                             0x08012d94   Data          16  ipc.o(.constdata)
    __FUNCTION__                             0x08012da4   Data          11  ipc.o(.constdata)
    __FUNCTION__                             0x08012daf   Data          14  ipc.o(.constdata)
    __FUNCTION__                             0x08012dbd   Data          11  ipc.o(.constdata)
    __FUNCTION__                             0x08012dc8   Data          13  ipc.o(.constdata)
    __FUNCTION__                             0x08012dd5   Data          13  ipc.o(.constdata)
    __FUNCTION__                             0x08012de2   Data          13  ipc.o(.constdata)
    __FUNCTION__                             0x08012def   Data          16  ipc.o(.constdata)
    __FUNCTION__                             0x08012dff   Data          13  ipc.o(.constdata)
    __FUNCTION__                             0x08012e0c   Data          11  ipc.o(.constdata)
    __FUNCTION__                             0x08012e17   Data          14  ipc.o(.constdata)
    .constdata                               0x08012e25   Section       34  kservice.o(.constdata)
    small_digits                             0x08012e25   Data          17  kservice.o(.constdata)
    large_digits                             0x08012e36   Data          17  kservice.o(.constdata)
    .constdata                               0x08012e47   Section       60  mem.o(.constdata)
    __FUNCTION__                             0x08012e47   Data          11  mem.o(.constdata)
    __FUNCTION__                             0x08012e52   Data          20  mem.o(.constdata)
    __FUNCTION__                             0x08012e66   Data          10  mem.o(.constdata)
    __FUNCTION__                             0x08012e70   Data          11  mem.o(.constdata)
    __FUNCTION__                             0x08012e7b   Data           8  mem.o(.constdata)
    .constdata                               0x08012e83   Section      128  object.o(.constdata)
    __FUNCTION__                             0x08012e83   Data          15  object.o(.constdata)
    __FUNCTION__                             0x08012e92   Data          17  object.o(.constdata)
    __FUNCTION__                             0x08012ea3   Data          19  object.o(.constdata)
    __FUNCTION__                             0x08012eb6   Data          17  object.o(.constdata)
    __FUNCTION__                             0x08012ec7   Data          26  object.o(.constdata)
    __FUNCTION__                             0x08012ee1   Data          19  object.o(.constdata)
    __FUNCTION__                             0x08012ef4   Data          15  object.o(.constdata)
    .constdata                               0x08012f03   Section       78  scheduler.o(.constdata)
    __FUNCTION__                             0x08012f03   Data          26  scheduler.o(.constdata)
    __FUNCTION__                             0x08012f1d   Data          26  scheduler.o(.constdata)
    __FUNCTION__                             0x08012f37   Data          26  scheduler.o(.constdata)
    .constdata                               0x08012f51   Section      207  thread.o(.constdata)
    __FUNCTION__                             0x08012f51   Data          16  thread.o(.constdata)
    __FUNCTION__                             0x08012f61   Data          15  thread.o(.constdata)
    __FUNCTION__                             0x08012f70   Data          18  thread.o(.constdata)
    __FUNCTION__                             0x08012f82   Data          17  thread.o(.constdata)
    __FUNCTION__                             0x08012f93   Data          17  thread.o(.constdata)
    __FUNCTION__                             0x08012fa4   Data          16  thread.o(.constdata)
    __FUNCTION__                             0x08012fb4   Data          22  thread.o(.constdata)
    __FUNCTION__                             0x08012fca   Data          18  thread.o(.constdata)
    __FUNCTION__                             0x08012fdc   Data          18  thread.o(.constdata)
    __FUNCTION__                             0x08012fee   Data          17  thread.o(.constdata)
    __FUNCTION__                             0x08012fff   Data          18  thread.o(.constdata)
    __FUNCTION__                             0x08013011   Data          15  thread.o(.constdata)
    .constdata                               0x08013020   Section       92  timer.o(.constdata)
    __FUNCTION__                             0x08013020   Data          14  timer.o(.constdata)
    __FUNCTION__                             0x0801302e   Data          16  timer.o(.constdata)
    __FUNCTION__                             0x0801303e   Data          16  timer.o(.constdata)
    __FUNCTION__                             0x0801304e   Data          15  timer.o(.constdata)
    __FUNCTION__                             0x0801305d   Data          14  timer.o(.constdata)
    __FUNCTION__                             0x0801306b   Data          17  timer.o(.constdata)
    .constdata                               0x0801307c   Section       24  system_stm32f4xx.o(.constdata)
    .constdata                               0x08013094   Section        8  stm32f4xx_hal_dma.o(.constdata)
    flagBitshiftOffset                       0x08013094   Data           8  stm32f4xx_hal_dma.o(.constdata)
    .conststring                             0x0801309c   Section       74  module_uartcom.o(.conststring)
    .conststring                             0x080130e8   Section      470  can.o(.conststring)
    .conststring                             0x080132c0   Section       99  serial.o(.conststring)
    .conststring                             0x08013324   Section       38  drv_usart.o(.conststring)
    .conststring                             0x0801334c   Section        5  drv_pwm.o(.conststring)
    .conststring                             0x08013354   Section        5  drv_spi.o(.conststring)
    .conststring                             0x0801335c   Section       13  drv_can.o(.conststring)
    .conststring                             0x0801336c   Section       15  drv_pulse_encoder.o(.conststring)
    .conststring                             0x0801337c   Section      381  cmd.o(.conststring)
    .conststring                             0x080134fc   Section      139  ipc.o(.conststring)
    .conststring                             0x08013588   Section      235  mem.o(.conststring)
    .conststring                             0x08013674   Section       66  thread.o(.conststring)
    .rodata.name                             0x080136b6   Section       38  can.o(.rodata.name)
    .rodata.name                             0x080136dc   Section      105  pin.o(.rodata.name)
    .rodata.name                             0x08013745   Section      159  rt_drv_pwm.o(.rodata.name)
    .rodata.name                             0x080137e4   Section       27  drv_common.o(.rodata.name)
    .rodata.name                             0x080137ff   Section      885  cmd.o(.rodata.name)
    .rodata.name                             0x08013b74   Section      118  msh.o(.rodata.name)
    .rodata.name                             0x08013bea   Section       39  mem.o(.rodata.name)
    .rti_fn.0                                0x08013c14   Section        4  components.o(.rti_fn.0)
    __tagsym$$used                           0x08013c14   Number         0  components.o(.rti_fn.0)
    .rti_fn.0.end                            0x08013c18   Section        4  components.o(.rti_fn.0.end)
    __tagsym$$used                           0x08013c18   Number         0  components.o(.rti_fn.0.end)
    .rti_fn.1                                0x08013c1c   Section        4  drv_spi.o(.rti_fn.1)
    __tagsym$$used                           0x08013c1c   Number         0  drv_spi.o(.rti_fn.1)
    .rti_fn.1                                0x08013c20   Section        4  drv_can.o(.rti_fn.1)
    __tagsym$$used                           0x08013c20   Number         0  drv_can.o(.rti_fn.1)
    .rti_fn.1                                0x08013c24   Section        4  drv_pulse_encoder.o(.rti_fn.1)
    __tagsym$$used                           0x08013c24   Number         0  drv_pulse_encoder.o(.rti_fn.1)
    .rti_fn.1.end                            0x08013c28   Section        4  components.o(.rti_fn.1.end)
    __tagsym$$used                           0x08013c28   Number         0  components.o(.rti_fn.1.end)
    .rti_fn.3                                0x08013c2c   Section        4  drv_pwm.o(.rti_fn.3)
    __tagsym$$used                           0x08013c2c   Number         0  drv_pwm.o(.rti_fn.3)
    .rti_fn.6                                0x08013c30   Section        4  shell.o(.rti_fn.6)
    __tagsym$$used                           0x08013c30   Number         0  shell.o(.rti_fn.6)
    .rti_fn.6.end                            0x08013c34   Section        4  components.o(.rti_fn.6.end)
    __tagsym$$used                           0x08013c34   Number         0  components.o(.rti_fn.6.end)
    FSymTab                                  0x08013c38   Section       12  can.o(FSymTab)
    __tagsym$$used                           0x08013c38   Number         0  can.o(FSymTab)
    FSymTab                                  0x08013c44   Section       36  pin.o(FSymTab)
    __tagsym$$used                           0x08013c44   Number         0  pin.o(FSymTab)
    __tagsym$$used                           0x08013c50   Number         0  pin.o(FSymTab)
    __tagsym$$used                           0x08013c5c   Number         0  pin.o(FSymTab)
    FSymTab                                  0x08013c68   Section       60  rt_drv_pwm.o(FSymTab)
    __tagsym$$used                           0x08013c68   Number         0  rt_drv_pwm.o(FSymTab)
    __tagsym$$used                           0x08013c74   Number         0  rt_drv_pwm.o(FSymTab)
    __tagsym$$used                           0x08013c80   Number         0  rt_drv_pwm.o(FSymTab)
    __tagsym$$used                           0x08013c8c   Number         0  rt_drv_pwm.o(FSymTab)
    __tagsym$$used                           0x08013c98   Number         0  rt_drv_pwm.o(FSymTab)
    FSymTab                                  0x08013ca4   Section       12  drv_common.o(FSymTab)
    __tagsym$$used                           0x08013ca4   Number         0  drv_common.o(FSymTab)
    FSymTab                                  0x08013cb0   Section      288  cmd.o(FSymTab)
    __tagsym$$used                           0x08013cb0   Number         0  cmd.o(FSymTab)
    __tagsym$$used                           0x08013cbc   Number         0  cmd.o(FSymTab)
    __tagsym$$used                           0x08013cc8   Number         0  cmd.o(FSymTab)
    __tagsym$$used                           0x08013cd4   Number         0  cmd.o(FSymTab)
    __tagsym$$used                           0x08013ce0   Number         0  cmd.o(FSymTab)
    __tagsym$$used                           0x08013cec   Number         0  cmd.o(FSymTab)
    __tagsym$$used                           0x08013cf8   Number         0  cmd.o(FSymTab)
    __tagsym$$used                           0x08013d04   Number         0  cmd.o(FSymTab)
    __tagsym$$used                           0x08013d10   Number         0  cmd.o(FSymTab)
    __tagsym$$used                           0x08013d1c   Number         0  cmd.o(FSymTab)
    __tagsym$$used                           0x08013d28   Number         0  cmd.o(FSymTab)
    __tagsym$$used                           0x08013d34   Number         0  cmd.o(FSymTab)
    __tagsym$$used                           0x08013d40   Number         0  cmd.o(FSymTab)
    __tagsym$$used                           0x08013d4c   Number         0  cmd.o(FSymTab)
    __tagsym$$used                           0x08013d58   Number         0  cmd.o(FSymTab)
    __tagsym$$used                           0x08013d64   Number         0  cmd.o(FSymTab)
    __tagsym$$used                           0x08013d70   Number         0  cmd.o(FSymTab)
    __tagsym$$used                           0x08013d7c   Number         0  cmd.o(FSymTab)
    __tagsym$$used                           0x08013d88   Number         0  cmd.o(FSymTab)
    __tagsym$$used                           0x08013d94   Number         0  cmd.o(FSymTab)
    __tagsym$$used                           0x08013da0   Number         0  cmd.o(FSymTab)
    __tagsym$$used                           0x08013dac   Number         0  cmd.o(FSymTab)
    __tagsym$$used                           0x08013db8   Number         0  cmd.o(FSymTab)
    __tagsym$$used                           0x08013dc4   Number         0  cmd.o(FSymTab)
    FSymTab                                  0x08013dd0   Section       36  msh.o(FSymTab)
    __tagsym$$used                           0x08013dd0   Number         0  msh.o(FSymTab)
    __tagsym$$used                           0x08013ddc   Number         0  msh.o(FSymTab)
    __tagsym$$used                           0x08013de8   Number         0  msh.o(FSymTab)
    FSymTab                                  0x08013df4   Section       12  mem.o(FSymTab)
    __tagsym$$used                           0x08013df4   Number         0  mem.o(FSymTab)
    locale$$data                             0x08013e20   Section      272  lc_ctype_c.o(locale$$data)
    __lcctype_c_name                         0x08013e24   Data           2  lc_ctype_c.o(locale$$data)
    __lcctype_c_start                        0x08013e2c   Data           0  lc_ctype_c.o(locale$$data)
    __lcctype_c_end                          0x08013f30   Data           0  lc_ctype_c.o(locale$$data)
    .data                                    0x20000000   Section       16  cpuport.o(.data)
    rt_exception_hook                        0x2000000c   Data           4  cpuport.o(.data)
    .data                                    0x20000010   Section       16  can.o(.data)
    ErrCode                                  0x20000010   Data          16  can.o(.data)
    .data                                    0x20000020   Section        4  serial.o(.data)
    already_output                           0x20000020   Data           4  serial.o(.data)
    .data                                    0x20000024   Section        4  stm32f4xx_hal_msp.o(.data)
    HAL_RCC_CAN1_CLK_ENABLED                 0x20000024   Data           4  stm32f4xx_hal_msp.o(.data)
    .data                                    0x20000028   Section      196  drv_gpio.o(.data)
    pin_irq_hdr_tab                          0x20000028   Data         192  drv_gpio.o(.data)
    pin_irq_enable_mask                      0x200000e8   Data           4  drv_gpio.o(.data)
    .data                                    0x200000ec   Section      164  drv_usart.o(.data)
    uart_config                              0x200000ec   Data         100  drv_usart.o(.data)
    uart2_dma_rx                             0x20000150   Data          16  drv_usart.o(.data)
    uart3_dma_rx                             0x20000160   Data          16  drv_usart.o(.data)
    uart4_dma_rx                             0x20000170   Data          16  drv_usart.o(.data)
    uart6_dma_rx                             0x20000180   Data          16  drv_usart.o(.data)
    .data                                    0x20000190   Section      144  drv_pwm.o(.data)
    stm32_pwm_obj                            0x20000190   Data         140  drv_pwm.o(.data)
    drv_ops                                  0x2000021c   Data           4  drv_pwm.o(.data)
    .data                                    0x20000220   Section       16  drv_spi.o(.data)
    spi_config                               0x20000220   Data          16  drv_spi.o(.data)
    .data                                    0x20000230   Section      664  drv_can.o(.data)
    drv_can1                                 0x20000230   Data         332  drv_can.o(.data)
    drv_can2                                 0x2000037c   Data         332  drv_can.o(.data)
    .data                                    0x200004c8   Section      296  drv_pulse_encoder.o(.data)
    stm32_pulse_encoder_obj                  0x200004c8   Data         296  drv_pulse_encoder.o(.data)
    .data                                    0x200005f0   Section       24  shell.o(.data)
    finsh_prompt_custom                      0x20000604   Data           4  shell.o(.data)
    .data                                    0x20000608   Section        4  clock.o(.data)
    rt_tick                                  0x20000608   Data           4  clock.o(.data)
    .data                                    0x2000060c   Section        9  irq.o(.data)
    rt_interrupt_enter_hook                  0x2000060c   Data           4  irq.o(.data)
    rt_interrupt_leave_hook                  0x20000610   Data           4  irq.o(.data)
    .data                                    0x20000618   Section       12  kservice.o(.data)
    __rt_errno                               0x20000618   Data           4  kservice.o(.data)
    _console_device                          0x2000061c   Data           4  kservice.o(.data)
    .data                                    0x20000624   Section       32  mem.o(.data)
    rt_malloc_hook                           0x20000624   Data           4  mem.o(.data)
    rt_free_hook                             0x20000628   Data           4  mem.o(.data)
    heap_ptr                                 0x2000062c   Data           4  mem.o(.data)
    heap_end                                 0x20000630   Data           4  mem.o(.data)
    lfree                                    0x20000634   Data           4  mem.o(.data)
    mem_size_aligned                         0x20000638   Data           4  mem.o(.data)
    used_mem                                 0x2000063c   Data           4  mem.o(.data)
    max_mem                                  0x20000640   Data           4  mem.o(.data)
    .data                                    0x20000644   Section      164  object.o(.data)
    rt_object_container                      0x20000644   Data         144  object.o(.data)
    rt_object_attach_hook                    0x200006d4   Data           4  object.o(.data)
    rt_object_detach_hook                    0x200006d8   Data           4  object.o(.data)
    .data                                    0x200006e8   Section       28  scheduler.o(.data)
    rt_scheduler_lock_nest                   0x200006ec   Data           2  scheduler.o(.data)
    rt_scheduler_hook                        0x20000700   Data           4  scheduler.o(.data)
    .data                                    0x20000704   Section       12  thread.o(.data)
    rt_thread_suspend_hook                   0x20000704   Data           4  thread.o(.data)
    rt_thread_resume_hook                    0x20000708   Data           4  thread.o(.data)
    rt_thread_inited_hook                    0x2000070c   Data           4  thread.o(.data)
    .data                                    0x20000710   Section       20  timer.o(.data)
    rt_timer_list                            0x20000710   Data           8  timer.o(.data)
    rt_timer_enter_hook                      0x20000718   Data           4  timer.o(.data)
    rt_timer_exit_hook                       0x2000071c   Data           4  timer.o(.data)
    random_nr                                0x20000720   Data           4  timer.o(.data)
    .data                                    0x20000724   Section        4  system_stm32f4xx.o(.data)
    .data                                    0x20000728   Section        9  stm32f4xx_hal.o(.data)
    .bss                                     0x20000734   Section     2476  main.o(.bss)
    .bss                                     0x200010e0   Section       32  module_djic610620group.o(.bss)
    can3508Motor_sem                         0x200010e0   Data          32  module_djic610620group.o(.bss)
    .bss                                     0x20001100   Section       32  module_uartcom.o(.bss)
    uartCom_sem                              0x20001100   Data          32  module_uartcom.o(.bss)
    .bss                                     0x20001120   Section       32  module_uarthmi.o(.bss)
    uartHMI_sem                              0x20001120   Data          32  module_uarthmi.o(.bss)
    .bss                                     0x20001140   Section       68  pin.o(.bss)
    _hw_pin                                  0x20001140   Data          68  pin.o(.bss)
    .bss                                     0x20001184   Section     1760  drv_usart.o(.bss)
    uart_obj                                 0x20001184   Data        1760  drv_usart.o(.bss)
    .bss                                     0x20001864   Section      404  drv_spi.o(.bss)
    spi_bus_obj                              0x20001864   Data         404  drv_spi.o(.bss)
    .bss                                     0x200019f8   Section      129  shell.o(.bss)
    finsh_prompt                             0x200019f8   Data         129  shell.o(.bss)
    .bss                                     0x20001a7c   Section      400  idle.o(.bss)
    idle                                     0x20001a7c   Data         128  idle.o(.bss)
    rt_thread_stack                          0x20001afc   Data         256  idle.o(.bss)
    idle_hook_list                           0x20001bfc   Data          16  idle.o(.bss)
    .bss                                     0x20001c0c   Section      128  kservice.o(.bss)
    rt_log_buf                               0x20001c0c   Data         128  kservice.o(.bss)
    .bss                                     0x20001c8c   Section       32  mem.o(.bss)
    heap_sem                                 0x20001c8c   Data          32  mem.o(.bss)
    .bss                                     0x20001cac   Section      256  scheduler.o(.bss)
    .bss                                     0x20001dac   Section       96  libspace.o(.bss)
    HEAP                                     0x20001e10   Section      512  startup_stm32f407xx.o(HEAP)
    Heap_Mem                                 0x20001e10   Data         512  startup_stm32f407xx.o(HEAP)
    STACK                                    0x20002010   Section     1024  startup_stm32f407xx.o(STACK)
    Stack_Mem                                0x20002010   Data        1024  startup_stm32f407xx.o(STACK)
    __initial_sp                             0x20002410   Data           0  startup_stm32f407xx.o(STACK)

    Global Symbols

    Symbol Name                              Value     Ov Type        Size  Object(Section)

    BuildAttributes$$THM_ISAv4$E$P$D$K$B$S$7EM$VFPi3$EXTD16$VFPS$VFMA$PE$A:L22UL41UL21$X:L11$S22US41US21$IEEE1$IW$USESV6$~STKCKD$USESV7$~SHL$OTIME$ROPI$IEEEJ$EBA8$UX$STANDARDLIB$REQ8$PRES8$EABIv2 0x00000000   Number         0  anon$$obj.o ABSOLUTE
    __ARM_use_no_argv                        0x00000000   Number         0  main.o ABSOLUTE
    __ARM_exceptions_init                     - Undefined Weak Reference
    __alloca_initialize                       - Undefined Weak Reference
    __arm_preinit_                            - Undefined Weak Reference
    __cpp_initialize__aeabi_                  - Undefined Weak Reference
    __cxa_finalize                            - Undefined Weak Reference
    __sigvec_lookup                           - Undefined Weak Reference
    _atexit_init                              - Undefined Weak Reference
    _call_atexit_fns                          - Undefined Weak Reference
    _clock_init                               - Undefined Weak Reference
    _fp_trap_init                             - Undefined Weak Reference
    _fp_trap_shutdown                         - Undefined Weak Reference
    _get_lc_collate                           - Undefined Weak Reference
    _get_lc_monetary                          - Undefined Weak Reference
    _get_lc_numeric                           - Undefined Weak Reference
    _get_lc_time                              - Undefined Weak Reference
    _getenv_init                              - Undefined Weak Reference
    _handle_redirection                       - Undefined Weak Reference
    _init_alloc                               - Undefined Weak Reference
    _init_user_alloc                          - Undefined Weak Reference
    _initio                                   - Undefined Weak Reference
    _printf_post_padding                      - Undefined Weak Reference
    _printf_pre_padding                       - Undefined Weak Reference
    _printf_truncate_signed                   - Undefined Weak Reference
    _printf_truncate_unsigned                 - Undefined Weak Reference
    _rand_init                                - Undefined Weak Reference
    _signal_finish                            - Undefined Weak Reference
    _signal_init                              - Undefined Weak Reference
    _terminate_alloc                          - Undefined Weak Reference
    _terminate_user_alloc                     - Undefined Weak Reference
    _terminateio                              - Undefined Weak Reference
    __Vectors_Size                           0x00000188   Number         0  startup_stm32f407xx.o ABSOLUTE
    __Vectors                                0x08000000   Data           4  startup_stm32f407xx.o(RESET)
    __Vectors_End                            0x08000188   Data           0  startup_stm32f407xx.o(RESET)
    __main                                   0x08000189   Thumb Code     8  __main.o(!!!main)
    __scatterload                            0x08000191   Thumb Code     0  __scatter.o(!!!scatter)
    __scatterload_rt2                        0x08000191   Thumb Code    44  __scatter.o(!!!scatter)
    __scatterload_rt2_thumb_only             0x08000191   Thumb Code     0  __scatter.o(!!!scatter)
    __scatterload_null                       0x0800019f   Thumb Code     0  __scatter.o(!!!scatter)
    __decompress                             0x080001c5   Thumb Code    90  __dczerorl2.o(!!dczerorl2)
    __decompress1                            0x080001c5   Thumb Code     0  __dczerorl2.o(!!dczerorl2)
    __scatterload_zeroinit                   0x08000221   Thumb Code    28  __scatter_zi.o(!!handler_zi)
    _printf_d                                0x0800023d   Thumb Code     0  _printf_d.o(.ARM.Collect$$_printf_percent$$00000009)
    _printf_percent                          0x0800023d   Thumb Code     0  _printf_percent.o(.ARM.Collect$$_printf_percent$$00000000)
    _printf_percent_end                      0x08000243   Thumb Code     0  _printf_percent_end.o(.ARM.Collect$$_printf_percent$$00000017)
    __rt_lib_init                            0x08000247   Thumb Code     0  libinit.o(.ARM.Collect$$libinit$$00000000)
    __rt_lib_init_fp_1                       0x08000249   Thumb Code     0  libinit2.o(.ARM.Collect$$libinit$$00000001)
    __rt_lib_init_heap_1                     0x0800024d   Thumb Code     0  libinit2.o(.ARM.Collect$$libinit$$0000000A)
    __rt_lib_init_lc_common                  0x0800024d   Thumb Code     0  libinit2.o(.ARM.Collect$$libinit$$0000000F)
    __rt_lib_init_preinit_1                  0x0800024d   Thumb Code     0  libinit2.o(.ARM.Collect$$libinit$$00000004)
    __rt_lib_init_rand_1                     0x0800024d   Thumb Code     0  libinit2.o(.ARM.Collect$$libinit$$0000000E)
    __rt_lib_init_user_alloc_1               0x0800024d   Thumb Code     0  libinit2.o(.ARM.Collect$$libinit$$0000000C)
    __rt_lib_init_lc_collate_1               0x08000253   Thumb Code     0  libinit2.o(.ARM.Collect$$libinit$$00000011)
    __rt_lib_init_lc_ctype_2                 0x08000253   Thumb Code     0  libinit2.o(.ARM.Collect$$libinit$$00000012)
    __rt_lib_init_alloca_1                   0x0800025f   Thumb Code     0  libinit2.o(.ARM.Collect$$libinit$$0000002E)
    __rt_lib_init_argv_1                     0x0800025f   Thumb Code     0  libinit2.o(.ARM.Collect$$libinit$$0000002C)
    __rt_lib_init_atexit_1                   0x0800025f   Thumb Code     0  libinit2.o(.ARM.Collect$$libinit$$0000001B)
    __rt_lib_init_clock_1                    0x0800025f   Thumb Code     0  libinit2.o(.ARM.Collect$$libinit$$00000021)
    __rt_lib_init_cpp_1                      0x0800025f   Thumb Code     0  libinit2.o(.ARM.Collect$$libinit$$00000032)
    __rt_lib_init_exceptions_1               0x0800025f   Thumb Code     0  libinit2.o(.ARM.Collect$$libinit$$00000030)
    __rt_lib_init_fp_trap_1                  0x0800025f   Thumb Code     0  libinit2.o(.ARM.Collect$$libinit$$0000001F)
    __rt_lib_init_getenv_1                   0x0800025f   Thumb Code     0  libinit2.o(.ARM.Collect$$libinit$$00000023)
    __rt_lib_init_lc_ctype_1                 0x0800025f   Thumb Code     0  libinit2.o(.ARM.Collect$$libinit$$00000013)
    __rt_lib_init_lc_monetary_1              0x0800025f   Thumb Code     0  libinit2.o(.ARM.Collect$$libinit$$00000015)
    __rt_lib_init_lc_numeric_1               0x0800025f   Thumb Code     0  libinit2.o(.ARM.Collect$$libinit$$00000017)
    __rt_lib_init_lc_time_1                  0x0800025f   Thumb Code     0  libinit2.o(.ARM.Collect$$libinit$$00000019)
    __rt_lib_init_return                     0x0800025f   Thumb Code     0  libinit2.o(.ARM.Collect$$libinit$$00000033)
    __rt_lib_init_signal_1                   0x0800025f   Thumb Code     0  libinit2.o(.ARM.Collect$$libinit$$0000001D)
    __rt_lib_init_stdio_1                    0x0800025f   Thumb Code     0  libinit2.o(.ARM.Collect$$libinit$$00000025)
    __rt_lib_shutdown                        0x08000261   Thumb Code     0  libshutdown.o(.ARM.Collect$$libshutdown$$00000000)
    __rt_lib_shutdown_cpp_1                  0x08000263   Thumb Code     0  libshutdown2.o(.ARM.Collect$$libshutdown$$00000002)
    __rt_lib_shutdown_fp_trap_1              0x08000263   Thumb Code     0  libshutdown2.o(.ARM.Collect$$libshutdown$$00000007)
    __rt_lib_shutdown_heap_1                 0x08000263   Thumb Code     0  libshutdown2.o(.ARM.Collect$$libshutdown$$0000000F)
    __rt_lib_shutdown_return                 0x08000263   Thumb Code     0  libshutdown2.o(.ARM.Collect$$libshutdown$$00000010)
    __rt_lib_shutdown_signal_1               0x08000263   Thumb Code     0  libshutdown2.o(.ARM.Collect$$libshutdown$$0000000A)
    __rt_lib_shutdown_stdio_1                0x08000263   Thumb Code     0  libshutdown2.o(.ARM.Collect$$libshutdown$$00000004)
    __rt_lib_shutdown_user_alloc_1           0x08000263   Thumb Code     0  libshutdown2.o(.ARM.Collect$$libshutdown$$0000000C)
    __rt_entry                               0x08000265   Thumb Code     0  __rtentry.o(.ARM.Collect$$rtentry$$00000000)
    __rt_entry_presh_1                       0x08000265   Thumb Code     0  __rtentry2.o(.ARM.Collect$$rtentry$$00000002)
    __rt_entry_sh                            0x08000265   Thumb Code     0  __rtentry4.o(.ARM.Collect$$rtentry$$00000004)
    __rt_entry_li                            0x0800026b   Thumb Code     0  __rtentry2.o(.ARM.Collect$$rtentry$$0000000A)
    __rt_entry_postsh_1                      0x0800026b   Thumb Code     0  __rtentry2.o(.ARM.Collect$$rtentry$$00000009)
    __rt_entry_main                          0x0800026f   Thumb Code     0  __rtentry2.o(.ARM.Collect$$rtentry$$0000000D)
    __rt_entry_postli_1                      0x0800026f   Thumb Code     0  __rtentry2.o(.ARM.Collect$$rtentry$$0000000C)
    __rt_exit                                0x08000277   Thumb Code     0  rtexit.o(.ARM.Collect$$rtexit$$00000000)
    __rt_exit_ls                             0x08000279   Thumb Code     0  rtexit2.o(.ARM.Collect$$rtexit$$00000003)
    __rt_exit_prels_1                        0x08000279   Thumb Code     0  rtexit2.o(.ARM.Collect$$rtexit$$00000002)
    __rt_exit_exit                           0x0800027d   Thumb Code     0  rtexit2.o(.ARM.Collect$$rtexit$$00000004)
    __rt_ffs                                 0x08000285   Thumb Code    16  cpuport.o(.emb_text)
    rt_hw_interrupt_disable                  0x08000295   Thumb Code     8  context_rvds.o(.text)
    rt_hw_interrupt_enable                   0x0800029d   Thumb Code     6  context_rvds.o(.text)
    rt_hw_context_switch                     0x080002a3   Thumb Code    32  context_rvds.o(.text)
    rt_hw_context_switch_interrupt           0x080002a3   Thumb Code     0  context_rvds.o(.text)
    PendSV_Handler                           0x080002c3   Thumb Code   108  context_rvds.o(.text)
    rt_hw_context_switch_to                  0x0800032f   Thumb Code    68  context_rvds.o(.text)
    rt_hw_interrupt_thread_switch            0x08000373   Thumb Code     2  context_rvds.o(.text)
    HardFault_Handler                        0x08000375   Thumb Code    56  context_rvds.o(.text)
    Reset_Handler                            0x080003c9   Thumb Code     8  startup_stm32f407xx.o(.text)
    NMI_Handler                              0x080003d1   Thumb Code     2  startup_stm32f407xx.o(.text)
    MemManage_Handler                        0x080003d5   Thumb Code     2  startup_stm32f407xx.o(.text)
    BusFault_Handler                         0x080003d7   Thumb Code     2  startup_stm32f407xx.o(.text)
    UsageFault_Handler                       0x080003d9   Thumb Code     2  startup_stm32f407xx.o(.text)
    SVC_Handler                              0x080003db   Thumb Code     2  startup_stm32f407xx.o(.text)
    DebugMon_Handler                         0x080003dd   Thumb Code     2  startup_stm32f407xx.o(.text)
    ADC_IRQHandler                           0x080003e3   Thumb Code     0  startup_stm32f407xx.o(.text)
    DCMI_IRQHandler                          0x080003e3   Thumb Code     0  startup_stm32f407xx.o(.text)
    DMA1_Stream0_IRQHandler                  0x080003e3   Thumb Code     0  startup_stm32f407xx.o(.text)
    DMA1_Stream3_IRQHandler                  0x080003e3   Thumb Code     0  startup_stm32f407xx.o(.text)
    DMA1_Stream4_IRQHandler                  0x080003e3   Thumb Code     0  startup_stm32f407xx.o(.text)
    DMA1_Stream6_IRQHandler                  0x080003e3   Thumb Code     0  startup_stm32f407xx.o(.text)
    DMA1_Stream7_IRQHandler                  0x080003e3   Thumb Code     0  startup_stm32f407xx.o(.text)
    DMA2_Stream0_IRQHandler                  0x080003e3   Thumb Code     0  startup_stm32f407xx.o(.text)
    DMA2_Stream2_IRQHandler                  0x080003e3   Thumb Code     0  startup_stm32f407xx.o(.text)
    DMA2_Stream3_IRQHandler                  0x080003e3   Thumb Code     0  startup_stm32f407xx.o(.text)
    DMA2_Stream4_IRQHandler                  0x080003e3   Thumb Code     0  startup_stm32f407xx.o(.text)
    DMA2_Stream5_IRQHandler                  0x080003e3   Thumb Code     0  startup_stm32f407xx.o(.text)
    DMA2_Stream6_IRQHandler                  0x080003e3   Thumb Code     0  startup_stm32f407xx.o(.text)
    DMA2_Stream7_IRQHandler                  0x080003e3   Thumb Code     0  startup_stm32f407xx.o(.text)
    ETH_IRQHandler                           0x080003e3   Thumb Code     0  startup_stm32f407xx.o(.text)
    ETH_WKUP_IRQHandler                      0x080003e3   Thumb Code     0  startup_stm32f407xx.o(.text)
    FLASH_IRQHandler                         0x080003e3   Thumb Code     0  startup_stm32f407xx.o(.text)
    FMC_IRQHandler                           0x080003e3   Thumb Code     0  startup_stm32f407xx.o(.text)
    FPU_IRQHandler                           0x080003e3   Thumb Code     0  startup_stm32f407xx.o(.text)
    HASH_RNG_IRQHandler                      0x080003e3   Thumb Code     0  startup_stm32f407xx.o(.text)
    I2C1_ER_IRQHandler                       0x080003e3   Thumb Code     0  startup_stm32f407xx.o(.text)
    I2C1_EV_IRQHandler                       0x080003e3   Thumb Code     0  startup_stm32f407xx.o(.text)
    I2C2_ER_IRQHandler                       0x080003e3   Thumb Code     0  startup_stm32f407xx.o(.text)
    I2C2_EV_IRQHandler                       0x080003e3   Thumb Code     0  startup_stm32f407xx.o(.text)
    I2C3_ER_IRQHandler                       0x080003e3   Thumb Code     0  startup_stm32f407xx.o(.text)
    I2C3_EV_IRQHandler                       0x080003e3   Thumb Code     0  startup_stm32f407xx.o(.text)
    OTG_FS_IRQHandler                        0x080003e3   Thumb Code     0  startup_stm32f407xx.o(.text)
    OTG_FS_WKUP_IRQHandler                   0x080003e3   Thumb Code     0  startup_stm32f407xx.o(.text)
    OTG_HS_EP1_IN_IRQHandler                 0x080003e3   Thumb Code     0  startup_stm32f407xx.o(.text)
    OTG_HS_EP1_OUT_IRQHandler                0x080003e3   Thumb Code     0  startup_stm32f407xx.o(.text)
    OTG_HS_IRQHandler                        0x080003e3   Thumb Code     0  startup_stm32f407xx.o(.text)
    OTG_HS_WKUP_IRQHandler                   0x080003e3   Thumb Code     0  startup_stm32f407xx.o(.text)
    PVD_IRQHandler                           0x080003e3   Thumb Code     0  startup_stm32f407xx.o(.text)
    RCC_IRQHandler                           0x080003e3   Thumb Code     0  startup_stm32f407xx.o(.text)
    RTC_Alarm_IRQHandler                     0x080003e3   Thumb Code     0  startup_stm32f407xx.o(.text)
    RTC_WKUP_IRQHandler                      0x080003e3   Thumb Code     0  startup_stm32f407xx.o(.text)
    SDIO_IRQHandler                          0x080003e3   Thumb Code     0  startup_stm32f407xx.o(.text)
    SPI1_IRQHandler                          0x080003e3   Thumb Code     0  startup_stm32f407xx.o(.text)
    SPI2_IRQHandler                          0x080003e3   Thumb Code     0  startup_stm32f407xx.o(.text)
    SPI3_IRQHandler                          0x080003e3   Thumb Code     0  startup_stm32f407xx.o(.text)
    TAMP_STAMP_IRQHandler                    0x080003e3   Thumb Code     0  startup_stm32f407xx.o(.text)
    TIM1_BRK_TIM9_IRQHandler                 0x080003e3   Thumb Code     0  startup_stm32f407xx.o(.text)
    TIM1_CC_IRQHandler                       0x080003e3   Thumb Code     0  startup_stm32f407xx.o(.text)
    TIM1_TRG_COM_TIM11_IRQHandler            0x080003e3   Thumb Code     0  startup_stm32f407xx.o(.text)
    TIM1_UP_TIM10_IRQHandler                 0x080003e3   Thumb Code     0  startup_stm32f407xx.o(.text)
    TIM4_IRQHandler                          0x080003e3   Thumb Code     0  startup_stm32f407xx.o(.text)
    TIM5_IRQHandler                          0x080003e3   Thumb Code     0  startup_stm32f407xx.o(.text)
    TIM6_DAC_IRQHandler                      0x080003e3   Thumb Code     0  startup_stm32f407xx.o(.text)
    TIM7_IRQHandler                          0x080003e3   Thumb Code     0  startup_stm32f407xx.o(.text)
    TIM8_BRK_TIM12_IRQHandler                0x080003e3   Thumb Code     0  startup_stm32f407xx.o(.text)
    TIM8_CC_IRQHandler                       0x080003e3   Thumb Code     0  startup_stm32f407xx.o(.text)
    TIM8_TRG_COM_TIM14_IRQHandler            0x080003e3   Thumb Code     0  startup_stm32f407xx.o(.text)
    TIM8_UP_TIM13_IRQHandler                 0x080003e3   Thumb Code     0  startup_stm32f407xx.o(.text)
    UART5_IRQHandler                         0x080003e3   Thumb Code     0  startup_stm32f407xx.o(.text)
    WWDG_IRQHandler                          0x080003e3   Thumb Code     0  startup_stm32f407xx.o(.text)
    __user_initial_stackheap                 0x080003e5   Thumb Code     0  startup_stm32f407xx.o(.text)
    __aeabi_uldivmod                         0x08000409   Thumb Code     0  lludivv7m.o(.text)
    _ll_udiv                                 0x08000409   Thumb Code   238  lludivv7m.o(.text)
    __2sprintf                               0x080004f9   Thumb Code    34  noretval__2sprintf.o(.text)
    __printf                                 0x08000521   Thumb Code   104  __printf.o(.text)
    _printf_int_dec                          0x08000589   Thumb Code   104  _printf_dec.o(.text)
    atoi                                     0x08000601   Thumb Code    26  atoi.o(.text)
    memcmp                                   0x0800061b   Thumb Code    88  memcmp.o(.text)
    strcpy                                   0x08000673   Thumb Code    72  strcpy.o(.text)
    strlen                                   0x080006bb   Thumb Code    62  strlen.o(.text)
    strncmp                                  0x080006f9   Thumb Code   150  strncmp.o(.text)
    strcat                                   0x0800078f   Thumb Code    24  strcat.o(.text)
    __aeabi_memcpy                           0x080007a7   Thumb Code     0  rt_memcpy_v6.o(.text)
    __rt_memcpy                              0x080007a7   Thumb Code   138  rt_memcpy_v6.o(.text)
    _memcpy_lastbytes                        0x0800080d   Thumb Code     0  rt_memcpy_v6.o(.text)
    __aeabi_memcpy4                          0x08000831   Thumb Code     0  rt_memcpy_w.o(.text)
    __aeabi_memcpy8                          0x08000831   Thumb Code     0  rt_memcpy_w.o(.text)
    __rt_memcpy_w                            0x08000831   Thumb Code   100  rt_memcpy_w.o(.text)
    _memcpy_lastbytes_aligned                0x08000879   Thumb Code     0  rt_memcpy_w.o(.text)
    __aeabi_memset                           0x08000895   Thumb Code    16  aeabi_memset.o(.text)
    __aeabi_memclr                           0x080008a5   Thumb Code     0  rt_memclr.o(.text)
    __rt_memclr                              0x080008a5   Thumb Code    68  rt_memclr.o(.text)
    _memset                                  0x080008a9   Thumb Code     0  rt_memclr.o(.text)
    __aeabi_memclr4                          0x080008e9   Thumb Code     0  rt_memclr_w.o(.text)
    __aeabi_memclr8                          0x080008e9   Thumb Code     0  rt_memclr_w.o(.text)
    __rt_memclr_w                            0x080008e9   Thumb Code    78  rt_memclr_w.o(.text)
    _memset_w                                0x080008ed   Thumb Code     0  rt_memclr_w.o(.text)
    strncpy                                  0x08000937   Thumb Code    86  strncpy.o(.text)
    __use_two_region_memory                  0x0800098d   Thumb Code     2  heapauxi.o(.text)
    __rt_heap_escrow$2region                 0x0800098f   Thumb Code     2  heapauxi.o(.text)
    __rt_heap_expand$2region                 0x08000991   Thumb Code     2  heapauxi.o(.text)
    __aeabi_errno_addr                       0x08000995   Thumb Code     8  rt_errno_addr_intlibspace.o(.text)
    __errno$intlibspace                      0x08000995   Thumb Code     0  rt_errno_addr_intlibspace.o(.text)
    __rt_errno_addr$intlibspace              0x08000995   Thumb Code     0  rt_errno_addr_intlibspace.o(.text)
    _printf_int_common                       0x0800099d   Thumb Code   178  _printf_intcommon.o(.text)
    _printf_char_common                      0x08000a5b   Thumb Code    32  _printf_char_common.o(.text)
    _sputc                                   0x08000a81   Thumb Code    10  _sputc.o(.text)
    strtol                                   0x08000a8b   Thumb Code   112  strtol.o(.text)
    __user_libspace                          0x08000afd   Thumb Code     8  libspace.o(.text)
    __user_perproc_libspace                  0x08000afd   Thumb Code     0  libspace.o(.text)
    __user_perthread_libspace                0x08000afd   Thumb Code     0  libspace.o(.text)
    __rt_ctype_table                         0x08000b05   Thumb Code    16  rt_ctype_table.o(.text)
    _strtoul                                 0x08000b15   Thumb Code   158  _strtoul.o(.text)
    __user_setup_stackheap                   0x08000bb3   Thumb Code    74  sys_stackheap_outer.o(.text)
    __rt_locale                              0x08000bfd   Thumb Code     8  rt_locale_intlibspace.o(.text)
    _chval                                   0x08000c05   Thumb Code    28  _chval.o(.text)
    exit                                     0x08000c21   Thumb Code    18  exit.o(.text)
    strcmp                                   0x08000c35   Thumb Code   128  strcmpv7m.o(.text)
    _sys_exit                                0x08000cb5   Thumb Code     8  sys_exit.o(.text)
    __I$use$semihosting                      0x08000cc1   Thumb Code     0  use_no_semi.o(.text)
    __use_no_semihosting_swi                 0x08000cc1   Thumb Code     2  use_no_semi.o(.text)
    __semihosting_library_function           0x08000cc3   Thumb Code     0  indicate_semi.o(.text)
    main                                     0x08000cc3   Thumb Code    10  components.o(i.$Sub$$main)
    APP_Console_Config                       0x08000f85   Thumb Code    80  app_console.o(i.APP_Console_Config)
    CAN1_RX0_IRQHandler                      0x08001005   Thumb Code    20  drv_can.o(i.CAN1_RX0_IRQHandler)
    CAN1_RX1_IRQHandler                      0x0800101d   Thumb Code    20  drv_can.o(i.CAN1_RX1_IRQHandler)
    CAN1_SCE_IRQHandler                      0x08001035   Thumb Code   256  drv_can.o(i.CAN1_SCE_IRQHandler)
    CAN1_TX_IRQHandler                       0x08001139   Thumb Code   188  drv_can.o(i.CAN1_TX_IRQHandler)
    CAN2_RX0_IRQHandler                      0x080011f9   Thumb Code    20  drv_can.o(i.CAN2_RX0_IRQHandler)
    CAN2_RX1_IRQHandler                      0x08001211   Thumb Code    20  drv_can.o(i.CAN2_RX1_IRQHandler)
    CAN2_SCE_IRQHandler                      0x08001229   Thumb Code   258  drv_can.o(i.CAN2_SCE_IRQHandler)
    CAN2_TX_IRQHandler                       0x08001335   Thumb Code   188  drv_can.o(i.CAN2_TX_IRQHandler)
    DMA1_Stream1_IRQHandler                  0x080019c5   Thumb Code    18  drv_usart.o(i.DMA1_Stream1_IRQHandler)
    DMA1_Stream2_IRQHandler                  0x080019dd   Thumb Code    18  drv_usart.o(i.DMA1_Stream2_IRQHandler)
    DMA1_Stream5_IRQHandler                  0x080019f5   Thumb Code    18  drv_usart.o(i.DMA1_Stream5_IRQHandler)
    DMA2_Stream1_IRQHandler                  0x08001a0d   Thumb Code    18  drv_usart.o(i.DMA2_Stream1_IRQHandler)
    EXTI0_IRQHandler                         0x08001b2f   Thumb Code    18  drv_gpio.o(i.EXTI0_IRQHandler)
    EXTI15_10_IRQHandler                     0x08001b41   Thumb Code    60  drv_gpio.o(i.EXTI15_10_IRQHandler)
    EXTI1_IRQHandler                         0x08001b7d   Thumb Code    18  drv_gpio.o(i.EXTI1_IRQHandler)
    EXTI2_IRQHandler                         0x08001b8f   Thumb Code    18  drv_gpio.o(i.EXTI2_IRQHandler)
    EXTI3_IRQHandler                         0x08001ba1   Thumb Code    18  drv_gpio.o(i.EXTI3_IRQHandler)
    EXTI4_IRQHandler                         0x08001bb3   Thumb Code    18  drv_gpio.o(i.EXTI4_IRQHandler)
    EXTI9_5_IRQHandler                       0x08001bc5   Thumb Code    46  drv_gpio.o(i.EXTI9_5_IRQHandler)
    HAL_CAN_ConfigFilter                     0x08001bf5   Thumb Code   286  stm32f4xx_hal_can.o(i.HAL_CAN_ConfigFilter)
    HAL_CAN_ErrorCallback                    0x08001d19   Thumb Code    16  drv_can.o(i.HAL_CAN_ErrorCallback)
    HAL_CAN_GetRxFifoFillLevel               0x08001d29   Thumb Code    40  stm32f4xx_hal_can.o(i.HAL_CAN_GetRxFifoFillLevel)
    HAL_CAN_GetRxMessage                     0x08001d51   Thumb Code   380  stm32f4xx_hal_can.o(i.HAL_CAN_GetRxMessage)
    HAL_CAN_IRQHandler                       0x08001ecd   Thumb Code   590  stm32f4xx_hal_can.o(i.HAL_CAN_IRQHandler)
    HAL_CAN_Init                             0x0800211b   Thumb Code   372  stm32f4xx_hal_can.o(i.HAL_CAN_Init)
    HAL_CAN_MspInit                          0x08002291   Thumb Code   300  stm32f4xx_hal_msp.o(i.HAL_CAN_MspInit)
    HAL_CAN_RxFifo0FullCallback              0x080023d5   Thumb Code     2  stm32f4xx_hal_can.o(i.HAL_CAN_RxFifo0FullCallback)
    HAL_CAN_RxFifo0MsgPendingCallback        0x080023d7   Thumb Code     2  stm32f4xx_hal_can.o(i.HAL_CAN_RxFifo0MsgPendingCallback)
    HAL_CAN_RxFifo1FullCallback              0x080023d9   Thumb Code     2  stm32f4xx_hal_can.o(i.HAL_CAN_RxFifo1FullCallback)
    HAL_CAN_RxFifo1MsgPendingCallback        0x080023db   Thumb Code     2  stm32f4xx_hal_can.o(i.HAL_CAN_RxFifo1MsgPendingCallback)
    HAL_CAN_SleepCallback                    0x080023dd   Thumb Code     2  stm32f4xx_hal_can.o(i.HAL_CAN_SleepCallback)
    HAL_CAN_Start                            0x080023df   Thumb Code    94  stm32f4xx_hal_can.o(i.HAL_CAN_Start)
    HAL_CAN_TxMailbox0AbortCallback          0x0800243d   Thumb Code     2  stm32f4xx_hal_can.o(i.HAL_CAN_TxMailbox0AbortCallback)
    HAL_CAN_TxMailbox0CompleteCallback       0x0800243f   Thumb Code     2  stm32f4xx_hal_can.o(i.HAL_CAN_TxMailbox0CompleteCallback)
    HAL_CAN_TxMailbox1AbortCallback          0x08002441   Thumb Code     2  stm32f4xx_hal_can.o(i.HAL_CAN_TxMailbox1AbortCallback)
    HAL_CAN_TxMailbox1CompleteCallback       0x08002443   Thumb Code     2  stm32f4xx_hal_can.o(i.HAL_CAN_TxMailbox1CompleteCallback)
    HAL_CAN_TxMailbox2AbortCallback          0x08002445   Thumb Code     2  stm32f4xx_hal_can.o(i.HAL_CAN_TxMailbox2AbortCallback)
    HAL_CAN_TxMailbox2CompleteCallback       0x08002447   Thumb Code     2  stm32f4xx_hal_can.o(i.HAL_CAN_TxMailbox2CompleteCallback)
    HAL_CAN_WakeUpFromRxMsgCallback          0x08002449   Thumb Code     2  stm32f4xx_hal_can.o(i.HAL_CAN_WakeUpFromRxMsgCallback)
    HAL_DMA_Abort_IT                         0x0800244b   Thumb Code    40  stm32f4xx_hal_dma.o(i.HAL_DMA_Abort_IT)
    HAL_DMA_DeInit                           0x08002473   Thumb Code   112  stm32f4xx_hal_dma.o(i.HAL_DMA_DeInit)
    HAL_DMA_IRQHandler                       0x080024e5   Thumb Code   570  stm32f4xx_hal_dma.o(i.HAL_DMA_IRQHandler)
    HAL_DMA_Init                             0x08002725   Thumb Code   232  stm32f4xx_hal_dma.o(i.HAL_DMA_Init)
    HAL_DMA_Start_IT                         0x08002811   Thumb Code   158  stm32f4xx_hal_dma.o(i.HAL_DMA_Start_IT)
    HAL_GPIO_DeInit                          0x080028b1   Thumb Code   316  stm32f4xx_hal_gpio.o(i.HAL_GPIO_DeInit)
    HAL_GPIO_EXTI_Callback                   0x08002a15   Thumb Code    54  drv_gpio.o(i.HAL_GPIO_EXTI_Callback)
    HAL_GPIO_EXTI_IRQHandler                 0x08002a51   Thumb Code    24  stm32f4xx_hal_gpio.o(i.HAL_GPIO_EXTI_IRQHandler)
    HAL_GPIO_Init                            0x08002a6d   Thumb Code   466  stm32f4xx_hal_gpio.o(i.HAL_GPIO_Init)
    HAL_GPIO_ReadPin                         0x08002c6d   Thumb Code    16  stm32f4xx_hal_gpio.o(i.HAL_GPIO_ReadPin)
    HAL_GPIO_WritePin                        0x08002c7d   Thumb Code    12  stm32f4xx_hal_gpio.o(i.HAL_GPIO_WritePin)
    HAL_GetTick                              0x08002c89   Thumb Code    18  drv_common.o(i.HAL_GetTick)
    HAL_IncTick                              0x08002c9d   Thumb Code    16  stm32f4xx_hal.o(i.HAL_IncTick)
    HAL_Init                                 0x08002cb5   Thumb Code    54  stm32f4xx_hal.o(i.HAL_Init)
    HAL_InitTick                             0x08002cf1   Thumb Code     6  drv_common.o(i.HAL_InitTick)
    HAL_MspInit                              0x08002cf9   Thumb Code    68  stm32f4xx_hal_msp.o(i.HAL_MspInit)
    HAL_NVIC_DisableIRQ                      0x08002d41   Thumb Code    62  stm32f4xx_hal_cortex.o(i.HAL_NVIC_DisableIRQ)
    HAL_NVIC_EnableIRQ                       0x08002d85   Thumb Code    32  stm32f4xx_hal_cortex.o(i.HAL_NVIC_EnableIRQ)
    HAL_NVIC_SetPriority                     0x08002da5   Thumb Code   124  stm32f4xx_hal_cortex.o(i.HAL_NVIC_SetPriority)
    HAL_NVIC_SetPriorityGrouping             0x08002e21   Thumb Code    32  stm32f4xx_hal_cortex.o(i.HAL_NVIC_SetPriorityGrouping)
    HAL_RCC_ClockConfig                      0x08002e49   Thumb Code   366  stm32f4xx_hal_rcc.o(i.HAL_RCC_ClockConfig)
    HAL_RCC_GetHCLKFreq                      0x08002fc9   Thumb Code     6  stm32f4xx_hal_rcc.o(i.HAL_RCC_GetHCLKFreq)
    HAL_RCC_GetPCLK1Freq                     0x08002fd5   Thumb Code    22  stm32f4xx_hal_rcc.o(i.HAL_RCC_GetPCLK1Freq)
    HAL_RCC_GetPCLK2Freq                     0x08002ff5   Thumb Code    22  stm32f4xx_hal_rcc.o(i.HAL_RCC_GetPCLK2Freq)
    HAL_RCC_GetSysClockFreq                  0x08003015   Thumb Code   162  stm32f4xx_hal_rcc.o(i.HAL_RCC_GetSysClockFreq)
    HAL_RCC_OscConfig                        0x080030c5   Thumb Code  1086  stm32f4xx_hal_rcc.o(i.HAL_RCC_OscConfig)
    HAL_SPI_ErrorCallback                    0x0800350d   Thumb Code     2  stm32f4xx_hal_spi.o(i.HAL_SPI_ErrorCallback)
    HAL_SPI_GetState                         0x0800350f   Thumb Code     8  stm32f4xx_hal_spi.o(i.HAL_SPI_GetState)
    HAL_SPI_Init                             0x08003517   Thumb Code   140  stm32f4xx_hal_spi.o(i.HAL_SPI_Init)
    HAL_SPI_MspInit                          0x080035a5   Thumb Code   122  stm32f4xx_hal_msp.o(i.HAL_SPI_MspInit)
    HAL_SPI_Receive                          0x0800362d   Thumb Code   356  stm32f4xx_hal_spi.o(i.HAL_SPI_Receive)
    HAL_SPI_Receive_DMA                      0x08003791   Thumb Code   258  stm32f4xx_hal_spi.o(i.HAL_SPI_Receive_DMA)
    HAL_SPI_RxCpltCallback                   0x080038a1   Thumb Code     2  stm32f4xx_hal_spi.o(i.HAL_SPI_RxCpltCallback)
    HAL_SPI_RxHalfCpltCallback               0x080038a3   Thumb Code     2  stm32f4xx_hal_spi.o(i.HAL_SPI_RxHalfCpltCallback)
    HAL_SPI_Transmit                         0x080038a5   Thumb Code   418  stm32f4xx_hal_spi.o(i.HAL_SPI_Transmit)
    HAL_SPI_TransmitReceive                  0x08003a47   Thumb Code   554  stm32f4xx_hal_spi.o(i.HAL_SPI_TransmitReceive)
    HAL_SPI_TransmitReceive_DMA              0x08003c71   Thumb Code   342  stm32f4xx_hal_spi.o(i.HAL_SPI_TransmitReceive_DMA)
    HAL_SPI_Transmit_DMA                     0x08003ddd   Thumb Code   228  stm32f4xx_hal_spi.o(i.HAL_SPI_Transmit_DMA)
    HAL_SPI_TxCpltCallback                   0x08003ecd   Thumb Code     2  stm32f4xx_hal_spi.o(i.HAL_SPI_TxCpltCallback)
    HAL_SPI_TxHalfCpltCallback               0x08003ecf   Thumb Code     2  stm32f4xx_hal_spi.o(i.HAL_SPI_TxHalfCpltCallback)
    HAL_SPI_TxRxCpltCallback                 0x08003ed1   Thumb Code     2  stm32f4xx_hal_spi.o(i.HAL_SPI_TxRxCpltCallback)
    HAL_SPI_TxRxHalfCpltCallback             0x08003ed3   Thumb Code     2  stm32f4xx_hal_spi.o(i.HAL_SPI_TxRxHalfCpltCallback)
    HAL_SYSTICK_CLKSourceConfig              0x08003ed5   Thumb Code    40  stm32f4xx_hal_cortex.o(i.HAL_SYSTICK_CLKSourceConfig)
    HAL_SYSTICK_Config                       0x08003efd   Thumb Code    52  stm32f4xx_hal_cortex.o(i.HAL_SYSTICK_Config)
    HAL_TIMEx_MasterConfigSynchronization    0x08003f31   Thumb Code    84  stm32f4xx_hal_tim_ex.o(i.HAL_TIMEx_MasterConfigSynchronization)
    HAL_TIM_Base_Init                        0x08003f85   Thumb Code    52  stm32f4xx_hal_tim.o(i.HAL_TIM_Base_Init)
    HAL_TIM_Base_MspInit                     0x08003fb9   Thumb Code     2  stm32f4xx_hal_tim.o(i.HAL_TIM_Base_MspInit)
    HAL_TIM_ConfigClockSource                0x08003fbb   Thumb Code   264  stm32f4xx_hal_tim.o(i.HAL_TIM_ConfigClockSource)
    HAL_TIM_Encoder_Init                     0x080040c3   Thumb Code   174  stm32f4xx_hal_tim.o(i.HAL_TIM_Encoder_Init)
    HAL_TIM_Encoder_MspInit                  0x08004171   Thumb Code   226  stm32f4xx_hal_msp.o(i.HAL_TIM_Encoder_MspInit)
    HAL_TIM_Encoder_Start                    0x08004265   Thumb Code    78  stm32f4xx_hal_tim.o(i.HAL_TIM_Encoder_Start)
    HAL_TIM_Encoder_Start_IT                 0x080042b3   Thumb Code   126  stm32f4xx_hal_tim.o(i.HAL_TIM_Encoder_Start_IT)
    HAL_TIM_Encoder_Stop                     0x08004331   Thumb Code   104  stm32f4xx_hal_tim.o(i.HAL_TIM_Encoder_Stop)
    HAL_TIM_Encoder_Stop_IT                  0x08004399   Thumb Code   152  stm32f4xx_hal_tim.o(i.HAL_TIM_Encoder_Stop_IT)
    HAL_TIM_GenerateEvent                    0x08004431   Thumb Code    54  stm32f4xx_hal_tim.o(i.HAL_TIM_GenerateEvent)
    HAL_TIM_MspPostInit                      0x08004469   Thumb Code    84  stm32f4xx_hal_msp.o(i.HAL_TIM_MspPostInit)
    HAL_TIM_PWM_ConfigChannel                0x080044c9   Thumb Code   264  stm32f4xx_hal_tim.o(i.HAL_TIM_PWM_ConfigChannel)
    HAL_TIM_PWM_Init                         0x080045d1   Thumb Code    52  stm32f4xx_hal_tim.o(i.HAL_TIM_PWM_Init)
    HAL_TIM_PWM_MspInit                      0x08004605   Thumb Code    44  stm32f4xx_hal_msp.o(i.HAL_TIM_PWM_MspInit)
    HAL_TIM_PWM_Start                        0x08004639   Thumb Code    80  stm32f4xx_hal_tim.o(i.HAL_TIM_PWM_Start)
    HAL_TIM_PWM_Stop                         0x08004691   Thumb Code   126  stm32f4xx_hal_tim.o(i.HAL_TIM_PWM_Stop)
    HAL_UART_ErrorCallback                   0x08004719   Thumb Code    22  drv_usart.o(i.HAL_UART_ErrorCallback)
    HAL_UART_IRQHandler                      0x08004745   Thumb Code   328  stm32f4xx_hal_uart.o(i.HAL_UART_IRQHandler)
    HAL_UART_Init                            0x08004891   Thumb Code   114  stm32f4xx_hal_uart.o(i.HAL_UART_Init)
    HAL_UART_MspInit                         0x08004905   Thumb Code   618  stm32f4xx_hal_msp.o(i.HAL_UART_MspInit)
    HAL_UART_Receive_DMA                     0x08004b95   Thumb Code   182  stm32f4xx_hal_uart.o(i.HAL_UART_Receive_DMA)
    HAL_UART_RxCpltCallback                  0x08004c59   Thumb Code    30  drv_usart.o(i.HAL_UART_RxCpltCallback)
    HAL_UART_RxHalfCpltCallback              0x08004c8d   Thumb Code    30  drv_usart.o(i.HAL_UART_RxHalfCpltCallback)
    HAL_UART_Transmit_DMA                    0x08004cc1   Thumb Code   142  stm32f4xx_hal_uart.o(i.HAL_UART_Transmit_DMA)
    HAL_UART_TxCpltCallback                  0x08004d5d   Thumb Code    32  drv_usart.o(i.HAL_UART_TxCpltCallback)
    HAL_UART_TxHalfCpltCallback              0x08004d91   Thumb Code     2  stm32f4xx_hal_uart.o(i.HAL_UART_TxHalfCpltCallback)
    Module_DjiC610620Group_Config            0x080053fd   Thumb Code   136  module_djic610620group.o(i.Module_DjiC610620Group_Config)
    Module_Led_Config                        0x080056ad   Thumb Code    50  module_led.o(i.Module_Led_Config)
    Module_PID_Config                        0x080058d1   Thumb Code    42  math_pid.o(i.Module_PID_Config)
    Module_UartCom_Config                    0x08005b65   Thumb Code    58  module_uartcom.o(i.Module_UartCom_Config)
    Module_UartHMI_Config                    0x08005d65   Thumb Code    56  module_uarthmi.o(i.Module_UartHMI_Config)
    SysTick_Handler                          0x0800611d   Thumb Code    20  drv_common.o(i.SysTick_Handler)
    SystemClock_Config                       0x08006131   Thumb Code   178  board.o(i.SystemClock_Config)
    SystemInit                               0x080061fd   Thumb Code    82  system_stm32f4xx.o(i.SystemInit)
    TIM2_IRQHandler                          0x08006261   Thumb Code    18  drv_pulse_encoder.o(i.TIM2_IRQHandler)
    TIM3_IRQHandler                          0x08006279   Thumb Code    18  drv_pulse_encoder.o(i.TIM3_IRQHandler)
    TIM_Base_SetConfig                       0x08006291   Thumb Code   170  stm32f4xx_hal_tim.o(i.TIM_Base_SetConfig)
    TIM_CCxChannelCmd                        0x08006369   Thumb Code    34  stm32f4xx_hal_tim.o(i.TIM_CCxChannelCmd)
    TIM_ETR_SetConfig                        0x0800638b   Thumb Code    22  stm32f4xx_hal_tim.o(i.TIM_ETR_SetConfig)
    TIM_OC2_SetConfig                        0x08006425   Thumb Code   114  stm32f4xx_hal_tim.o(i.TIM_OC2_SetConfig)
    UART4_IRQHandler                         0x080065bd   Thumb Code    18  drv_usart.o(i.UART4_IRQHandler)
    USART1_IRQHandler                        0x08006b9d   Thumb Code    18  drv_usart.o(i.USART1_IRQHandler)
    USART2_IRQHandler                        0x08006bb5   Thumb Code    18  drv_usart.o(i.USART2_IRQHandler)
    USART3_IRQHandler                        0x08006bcd   Thumb Code    18  drv_usart.o(i.USART3_IRQHandler)
    USART6_IRQHandler                        0x08006be5   Thumb Code    18  drv_usart.o(i.USART6_IRQHandler)
    _Error_Handler                           0x08006d29   Thumb Code     4  drv_common.o(i._Error_Handler)
    __hardfp_fabs                            0x08006da1   Thumb Code    20  fabs.o(i.__hardfp_fabs)
    cmd_canstat                              0x08008669   Thumb Code   218  can.o(i.cmd_canstat)
    cmd_free                                 0x080087e9   Thumb Code    14  msh.o(i.cmd_free)
    cmd_ps                                   0x080087f7   Thumb Code    14  msh.o(i.cmd_ps)
    finsh_get_prompt                         0x08008b65   Thumb Code    84  shell.o(i.finsh_get_prompt)
    finsh_set_device                         0x08008c75   Thumb Code   156  shell.o(i.finsh_set_device)
    finsh_set_prompt_mode                    0x08008d51   Thumb Code    42  shell.o(i.finsh_set_prompt_mode)
    finsh_system_function_init               0x08008d99   Thumb Code    10  shell.o(i.finsh_system_function_init)
    finsh_system_init                        0x08008dad   Thumb Code   100  shell.o(i.finsh_system_init)
    finsh_thread_entry                       0x08008e49   Thumb Code  1276  shell.o(i.finsh_thread_entry)
    hello                                    0x08009415   Thumb Code    12  cmd.o(i.hello)
    hw_pulse_encoder_init                    0x08009435   Thumb Code   136  drv_pulse_encoder.o(i.hw_pulse_encoder_init)
    list                                     0x080094fd   Thumb Code    54  cmd.o(i.list)
    list_device                              0x08009565   Thumb Code   172  cmd.o(i.list_device)
    list_event                               0x0800967d   Thumb Code   204  cmd.o(i.list_event)
    list_mailbox                             0x08009875   Thumb Code   224  cmd.o(i.list_mailbox)
    list_mem                                 0x080099d1   Thumb Code    34  mem.o(i.list_mem)
    list_mempool                             0x08009a49   Thumb Code   232  cmd.o(i.list_mempool)
    list_msgqueue                            0x08009bbd   Thumb Code   216  cmd.o(i.list_msgqueue)
    list_mutex                               0x08009d01   Thumb Code   168  cmd.o(i.list_mutex)
    list_sem                                 0x08009e0d   Thumb Code   216  cmd.o(i.list_sem)
    list_thread                              0x08009f45   Thumb Code   294  cmd.o(i.list_thread)
    list_timer                               0x0800a129   Thumb Code   190  cmd.o(i.list_timer)
    $Super$$main                             0x0800a289   Thumb Code    20  main.o(i.main)
    main_thread_entry                        0x0800a2a1   Thumb Code    14  components.o(i.main_thread_entry)
    msh_auto_complete                        0x0800a399   Thumb Code   138  msh.o(i.msh_auto_complete)
    msh_exec                                 0x0800a439   Thumb Code    82  msh.o(i.msh_exec)
    msh_help                                 0x0800a501   Thumb Code    66  msh.o(i.msh_help)
    msh_is_used                              0x0800a581   Thumb Code     4  msh.o(i.msh_is_used)
    pulse_encoder_clear_count                0x0800a935   Thumb Code    16  drv_pulse_encoder.o(i.pulse_encoder_clear_count)
    pulse_encoder_control                    0x0800a945   Thumb Code    82  drv_pulse_encoder.o(i.pulse_encoder_control)
    pulse_encoder_get_count                  0x0800a997   Thumb Code    22  drv_pulse_encoder.o(i.pulse_encoder_get_count)
    pulse_encoder_init                       0x0800a9ad   Thumb Code   196  drv_pulse_encoder.o(i.pulse_encoder_init)
    pulse_encoder_update_isr                 0x0800aacd   Thumb Code   180  drv_pulse_encoder.o(i.pulse_encoder_update_isr)
    rt_application_init                      0x0800acdd   Thumb Code    46  components.o(i.rt_application_init)
    rt_assert_handler                        0x0800ad2d   Thumb Code    56  kservice.o(i.rt_assert_handler)
    rt_calloc                                0x0800ada1   Thumb Code    34  mem.o(i.rt_calloc)
    rt_completion_done                       0x0800b35d   Thumb Code    76  completion.o(i.rt_completion_done)
    rt_completion_init                       0x0800b3c5   Thumb Code    42  completion.o(i.rt_completion_init)
    rt_completion_wait                       0x0800b40d   Thumb Code   198  completion.o(i.rt_completion_wait)
    rt_components_board_init                 0x0800b54d   Thumb Code    20  components.o(i.rt_components_board_init)
    rt_components_init                       0x0800b569   Thumb Code    20  components.o(i.rt_components_init)
    rt_console_get_device                    0x0800b585   Thumb Code     6  kservice.o(i.rt_console_get_device)
    rt_console_set_device                    0x0800b591   Thumb Code    48  kservice.o(i.rt_console_set_device)
    rt_data_queue_deinit                     0x0800b5c5   Thumb Code    70  dataqueue.o(i.rt_data_queue_deinit)
    rt_data_queue_init                       0x0800b649   Thumb Code    80  dataqueue.o(i.rt_data_queue_init)
    rt_data_queue_peak                       0x0800b6b5   Thumb Code   120  dataqueue.o(i.rt_data_queue_peak)
    rt_data_queue_pop                        0x0800b769   Thumb Code   360  dataqueue.o(i.rt_data_queue_pop)
    rt_data_queue_push                       0x0800b95d   Thumb Code   300  dataqueue.o(i.rt_data_queue_push)
    rt_data_queue_reset                      0x0800baf1   Thumb Code   126  dataqueue.o(i.rt_data_queue_reset)
    rt_device_close                          0x0800bb99   Thumb Code    92  device.o(i.rt_device_close)
    rt_device_control                        0x0800bc45   Thumb Code    66  device.o(i.rt_device_control)
    rt_device_find                           0x0800bcd9   Thumb Code    94  device.o(i.rt_device_find)
    rt_device_open                           0x0800bd55   Thumb Code   170  device.o(i.rt_device_open)
    rt_device_pin_register                   0x0800be9d   Thumb Code    56  pin.o(i.rt_device_pin_register)
    rt_device_pulse_encoder_register         0x0800bee5   Thumb Code    88  pulse_encoder.o(i.rt_device_pulse_encoder_register)
    rt_device_pwm_register                   0x0800bf91   Thumb Code    70  rt_drv_pwm.o(i.rt_device_pwm_register)
    rt_device_read                           0x0800bfe5   Thumb Code    98  device.o(i.rt_device_read)
    rt_device_register                       0x0800c099   Thumb Code    52  device.o(i.rt_device_register)
    rt_device_set_rx_indicate                0x0800c0cd   Thumb Code    48  device.o(i.rt_device_set_rx_indicate)
    rt_device_write                          0x0800c14d   Thumb Code    98  device.o(i.rt_device_write)
    rt_enter_critical                        0x0800c351   Thumb Code    28  scheduler.o(i.rt_enter_critical)
    rt_exit_critical                         0x0800c371   Thumb Code    60  scheduler.o(i.rt_exit_critical)
    rt_free                                  0x0800c3b5   Thumb Code   278  mem.o(i.rt_free)
    rt_hw_board_init                         0x0800c5bd   Thumb Code    58  drv_common.o(i.rt_hw_board_init)
    rt_hw_can_init                           0x0800c609   Thumb Code   150  drv_can.o(i.rt_hw_can_init)
    rt_hw_can_isr                            0x0800c6b1   Thumb Code   392  can.o(i.rt_hw_can_isr)
    rt_hw_can_register                       0x0800c8b1   Thumb Code   150  can.o(i.rt_hw_can_register)
    rt_hw_console_output                     0x0800c97d   Thumb Code     2  kservice.o(i.rt_hw_console_output)
    rt_hw_cpu_reset                          0x0800c981   Thumb Code     8  cpuport.o(i.rt_hw_cpu_reset)
    rt_hw_hard_fault_exception               0x0800c991   Thumb Code   220  cpuport.o(i.rt_hw_hard_fault_exception)
    rt_hw_pin_init                           0x0800cbbd   Thumb Code   286  drv_gpio.o(i.rt_hw_pin_init)
